:100000000C9449000C945B000C945B000C945B0016
:100010000C945B000C945B000C945B000C945B00F4
:100020000C945B000C945B000C945B000C945B00E4
:100030000C94070C0C945B000C945B000C945B001C
:100040000C945B000C945B000C945B000C945B00C4
:100050000C945B000C945B000C945B000C945B00B4
:100060000C945B000C945B000C945B000C945B00A4
:100070000C945B000C945B000C945B00DA036C0442
:10008000F6046A05AA052606A3064007E607D40378
:10009000EF0811241FBECFEFD8E0DEBFCDBF21E0B7
:1000A000A0E0B1E001C01D92AB36B207E1F70E94BB
:1000B000870B0C944E0E0C94000082E080937C0021
:1000C00082EE80937A0080EA80937B00089520E29C
:1000D00031E030933101209330011092340170E00F
:1000E00070932C0160932B0122E020932A0128E0D9
:1000F00020932F0124E020936001DC01E0E2F1E095
:1001000088E291E02D912193E817F907D9F76091E2
:10011000600189E291E00E9490038111F8CF609123
:10012000600189E291E00E94BC098130C1F3089529
:10013000FC012581233081F128F4213049F022305F
:10014000C9F008952530D1F1273009F445C008954C
:1001500083E00E946C0B84E690E00E94300C83E008
:100160000E946C0B84E690E00E94300C81E080934A
:100170003601089587E00E946C0B84E690E00E94AF
:10018000300C87E00E946C0B84E690E00E94300CFB
:1001900081E080935701089586E00E946C0B84E60D
:1001A00090E00E94300C86E00E946C0B84E690E0A8
:1001B0000E94300C81E080934601089521E0209355
:1001C0003D01DC01E2E6F1E08AE691E02D91219328
:1001D000E817F907D9F7089521E020932801DC01F9
:1001E000E0E0F1E088E091E02D912193E817F90734
:1001F000D9F708951092340195E090932A0198E080
:1002000090932F018093600181110DC08EE391E0E6
:10021000909331018093300184E190E090932C0120
:1002200080932B010895813069F488E091E09093E8
:1002300031018093300185E190E090932C0180930F
:100240002B010895823069F480E191E090933101AF
:100250008093300186E190E090932C0180932B01F4
:100260000895833069F48FE491E090933101809395
:10027000300187E190E090932C0180932B01089549
:10028000853061F488E591E09093310180933001ED
:1002900089E190E090932C0180932B0108958111C6
:1002A0001FC01092340185E080932A0188E080937A
:1002B0002F01109260018EE391E0909331018093C1
:1002C000300184E190E090932C0180932B016091A8
:1002D000600189E291E00E9490038111F8CF0895B6
:1002E000813001F51092340185E080932A0188E085
:1002F00080932F0181E08093600188E091E09093EA
:1003000031018093300185E190E090932C0180933E
:100310002B016091600189E291E00E9490038111BC
:10032000F8CF0895823001F51092340185E0809372
:100330002A0188E080932F0182E08093600180E1B0
:1003400091E0909331018093300186E190E09093A9
:100350002C0180932B016091600189E291E00E9461
:1003600090038111F8CF0895833001F51092340184
:1003700085E080932A0188E080932F0183E08093B9
:1003800060018FE491E0909331018093300187E127
:1003900090E090932C0180932B016091600189E2A1
:1003A00091E00E9490038111F8CF08958530E9F41F
:1003B0001092340180932A0198E090932F0180934A
:1003C000600188E591E0909331018093300189E1EB
:1003D00090E090932C0180932B016091600189E261
:1003E00091E00E9490038111F8CF0895CF93DF939D
:1003F00085E00E94FA006091600189E291E00E942C
:10040000BC09813011F1809132018032D9F4A09180
:100410003001B0913101CFE4D1E0E7E4F1E08D911A
:100420008193EC17FD07D9F780914D01823021F4BB
:1004300087E491E00E949800E7E4F1E01192EC1764
:10044000FD07E1F785E00E944F01DF91CF9108950C
:100450009F92AF92BF92CF92DF92EF92FF920F9353
:100460001F93CF93DF93912C02E311E00F2EF0E363
:10047000AF2EF1E0BF2EF02DCFE4D1E00F2EF7E448
:10048000EF2EF1E0FF2EF02D0F2EFDE4CF2EF1E048
:10049000DF2EF02D892D0E94FA006091600189E223
:1004A00091E00E94BC098130E1F0F8018081803246
:1004B000A9F4F501A081B181F7018D918193EC1729
:1004C000FD07D9F7F6018081823019F4C7010E9437
:1004D0009800F7011192EC17FD07E1F7892D0E94B2
:1004E0004F019394F4E09F12D5CF0E94F601DF9163
:1004F000CF911F910F91FF90EF90DF90CF90BF9021
:10050000AF909F900895CF93DF938EE391E0909307
:100510003101809330011092340184E190E0909396
:100520002C0180932B0185E080932A0188E0809341
:100530002F01109260016091600189E291E00E94B8
:1005400090038111F8CF88E091E09093310180937E
:1005500030011092340185E190E090932C0180935A
:100560002B0185E080932A0188E080932F0181E0B0
:10057000809360016091600189E291E00E949003A4
:100580008111F8CF80E191E09093310180933001A7
:100590001092340186E190E090932C0180932B011E
:1005A00085E080932A0188E080932F0182E0809388
:1005B00060016091600189E291E00E9490038111E5
:1005C000F8CF8FE491E09093310180933001109245
:1005D000340187E190E090932C0180932B0185E01A
:1005E00080932A0188E080932F0183E0809360014B
:1005F0006091600189E291E00E9490038111F8CF3F
:1006000088E591E09093310180933001109234019C
:1006100089E190E090932C0180932B0185E08093F9
:100620002A0198E090932F0180936001609160010E
:1006300089E291E00E9490038111F8CFE7E4F1E0B4
:1006400088E191E0C2E6D1E040E051E02FE431E002
:100650001192DC011D92CD011992DA011D92AD01BA
:10066000E217F307A9F71092360110924601109293
:10067000570110923D0110922801DF91CF9108950A
:1006800080E0ADEEB0E03EEE20E0982F9295907FB6
:100690009C93E32FF22F1192E83FF105E1F78F5F72
:1006A000863099F708958091EF00807C61F0809109
:1006B000EE00982F907E282F2076203231F0903453
:1006C00031F08F7108958FEF0895892F0895892F44
:1006D0000895FC0180E0AAEFB0E09C9191938F5FB8
:1006E0008830D9F7089581E08093D80082E0809324
:1006F000E2008CE08093E30087E38093E40081E0F4
:1007000008950E947303882349F00E944003E8ED96
:10071000F0E080818260808381E0089580E0089528
:10072000CF93DF931F92CDB7DEB7DC0111968C918A
:1007300011978C30B1F419968C911997803669F421
:10074000862F8295807F8093ED00EFEEF0E0808130
:100750008F7380831092EE006C9319961C9280E048
:1007600007C6862F8295807F8093ED008091EF00F1
:10077000807C09F0F9C580E619968C9319976C93E3
:10078000EEEEF0E01192E83FF105E1F711964C91A1
:10079000119750E0FA013197EB30F10508F0E0C510
:1007A000E25CFF4F0C94480E16968C9116978111BF
:1007B000B7C4C8C41B968C911B978823D9F1149693
:1007C0009C91149792959695977015968C91159784
:1007D000880F880F880F890F8093F30013969C91E0
:1007E000139792959695977014968C911497880FFD
:1007F000880F880F890F8093F20012969C911297B0
:1008000092959695977013968C911397880F880FF1
:10081000880F890F8093F10012968C911297880FA0
:10082000880F880F8093F000EFEEF0E08081806108
:1008300080831CC012968C9112978695869586951A
:1008400013969C91139720E2929F800D1124809320
:10085000F30012968C9112978295880F807E809378
:10086000F200EFEEF0E080818F7E808316968C910F
:100870001697882391F020E08AEF90E01796ED918B
:10088000FC911897E20FF11D3081FC0130832F5F3E
:1008900016963C911697231788F31A968C911A97FF
:1008A000882331F0E0EFF0E080818460808305C030
:1008B000E0EFF0E080818B7F8083EFEEF0E09081CD
:1008C00016968C91892B808380818F7380838081A1
:1008D0008064808380E04CC51B968C911B97882395
:1008E000D9F114969C9114979295969597701596B8
:1008F0008C911597880F880F880F890F8093F300CC
:1009000013969C91139792959695977014968C9147
:100910001497880F880F880F890F8093F200129622
:100920009C91129792959695977013968C91139728
:10093000880F880F880F890F8093F10012968C9191
:100940001297880F880F880F8093F000EFEEF0E089
:100950008081806180831CC012968C91129786954D
:100960008695869513969C911397F0E29F9F800D34
:1009700011248093F30012968C9112978295880F20
:10098000807E8093F200EFEEF0E080818F7E8083A6
:1009900016968C911697882391F020E08AEF90E0CC
:1009A0001796ED91FC911897E20FF11D3081FC0133
:1009B00030832F5F16963C911697231788F31A966B
:1009C0001C921A97E0EFF0E080818B7F8083EFEE3E
:1009D000F0E0908116968C91892B808380818F73B3
:1009E000808380818064808380E0C2C41B968C9168
:1009F0001B978823D9F114969C91149792959695FC
:100A0000977015968C911597880F880F880F890F0E
:100A10008093F30013969C911397929596959770F7
:100A200014968C911497880F880F880F890F8093E4
:100A3000F20012969C911297929596959770139644
:100A40008C911397880F880F880F890F8093F1007E
:100A500012968C911297880F880F880F8093F00060
:100A6000EFEEF0E08081806180831CC012968C9153
:100A7000129786958695869513969C911397F0E22A
:100A80009F9F800D11248093F30012968C911297F2
:100A90008295880F807E8093F200EFEEF0E08081F7
:100AA0008F7E808381E01A968C931A97E0EFF0E0B6
:100AB000808184608083EFEEF0E0908116968C91C7
:100AC000892B808380818F73808380818064808381
:100AD00080E04EC419829B819295969597708C8187
:100AE000880F880F880F890F8093F7009A8192955D
:100AF000969597708B81880F880F880F890F809348
:100B0000F60099819295969597708A81880F880F43
:100B1000880F890F8093F5002981220F220F220F61
:100B200084EF90E0FC012083EFEEF0E03081169638
:100B30002C91232B2083DC012C912B7F2C932C9147
:100B40002E7F2C9380818F73808380818068808347
:100B500080E00EC48FEF89838A818295880F807E22
:100B6000815E27EF30E0F901808349814295440F8F
:100B7000407E86EF90E0FC01408312964C911297E4
:100B800046954695469513965C911397F0E25F9FC4
:100B9000400D11244093F30012964C911297429508
:100BA000440F407E4093F2006FEE70E0FB01408105
:100BB0004F7E408319825B815295569557704C81C8
:100BC000440F440F440F450FF90140833A81329599
:100BD000369537702B81220F220F220F230FFC0135
:100BE000208399819295969597708A81880F880FB6
:100BF000880F890F8093F5002981220F220F220F81
:100C000084EF90E0FC012083FB01308116962C914B
:100C10001697232B20831A961C92DC012C912460BA
:100C20002C93A0EFB0E02C912B7F2C9320812F7E72
:100C30002083FC0120812E7F2083DB018C918F7328
:100C40008C938C9180688C9380E092C38FEF898322
:100C50008A818295880F807E815E27EF30E0F901DE
:100C6000808349814295440F407E86EF90E0FC01ED
:100C7000408312964C911297469546954695139649
:100C80005C911397F0E25F9F400D11244093F300B5
:100C900012964C9112974295440F407E4093F20079
:100CA0006FEE70E0FB0140814F7E408319825B81D3
:100CB0005295569557704C81440F440F440F450F81
:100CC000F90140833A813295369537702B81220F96
:100CD000220F220F230FFC01208399819295969574
:100CE00097708A81880F880F880F890F8093F5008D
:100CF0002981220F220F220F84EF90E0FC01208334
:100D0000FB01308116962C911697232B208321E02E
:100D10001A962C93DC012C9124602C93A0EFB0E068
:100D20002C9124602C9320812F7D2083FC01208135
:100D30002E7F2083DB018C918F738C938C91806844
:100D40008C9380E015C31B968C911B978823D9F157
:100D500014969C91149792959695977015968C91F0
:100D60001597880F880F880F890F8093F3001396CB
:100D70009C91139792959695977014968C911497D1
:100D8000880F880F880F890F8093F20012969C912C
:100D9000129792959695977013968C911397880F4A
:100DA000880F880F890F8093F10012968C9112970B
:100DB000880F880F880F8093F000EFEEF0E08081BD
:100DC000806180831CC012968C91129786958695BF
:100DD000869513969C911397E0E29E9F800D1124B7
:100DE0008093F30012968C9112978295880F807EE3
:100DF0008093F200EFEEF0E080818F7E80838FEFB2
:100E000089839B819295969597708C81880F880F26
:100E1000880F890F8093F7009A8192959695977025
:100E20008B81880F880F880F890F8093F600998136
:100E30009295969597708A81880F880F880F890FF1
:100E40008093F5002981220F220F220F84EF90E07A
:100E5000FC012083EFEEF0E0308116962C91232BDD
:100E60002083DC012C912B7F2C932C9121602C93DF
:100E700080818F73808380818068808380E078C2E6
:100E80001B968C911B978823D9F114969C911497EB
:100E900092959695977015968C911597880F880F57
:100EA000880F890F8093F30013969C911397929566
:100EB0009695977014968C911497880F880F880FC9
:100EC000890F8093F20012969C91129792959695B5
:100ED000977013968C911397880F880F880F890F3E
:100EE0008093F10012968C911297880F880F880FCB
:100EF0008093F000EFEEF0E08081806180831CC081
:100F000012968C91129786958695869513969C914C
:100F10001397E0E29E9F800D11248093F3001296B8
:100F20008C9112978295880F807E8093F200EFEE6D
:100F3000F0E080818F7E80838FEF89839B81929503
:100F4000969597708C81880F880F880F890F8093F2
:100F5000F7009A819295969597708B81880F880FEC
:100F6000880F890F8093F6009981929596959770D6
:100F70008A81880F880F880F890F8093F500298157
:100F8000220F220F220F84EF90E0FC012083EFEE6E
:100F9000F0E0308116962C911697232B20831A9619
:100FA0001C92DC012C9124602C93A0EFB0E02C91DA
:100FB0002B7F2C93DC012C9121602C9380818F73EB
:100FC000808380818068808380E0D2C11B968C9171
:100FD0001B978823D9F114969C9114979295969516
:100FE000977015968C911597880F880F880F890F29
:100FF0008093F30013969C91139792959695977012
:1010000014968C911497880F880F880F890F8093FE
:10101000F20012969C91129792959695977013965E
:101020008C911397880F880F880F890F8093F10098
:1010300012968C911297880F880F880F8093F0007A
:10104000EFEEF0E08081806180831CC012968C916D
:10105000129786958695869513969C911397E0E254
:101060009E9F800D11248093F30012968C9112970D
:101070008295880F807E8093F200EFEEF0E0808111
:101080008F7E80838FEF89839B8192959695977051
:101090008C81880F880F880F890F8093F7009A81C1
:1010A0009295969597708B81880F880F880F890F7E
:1010B0008093F60099819295969597708A81880F12
:1010C000880F880F890F8093F5002981220F220F46
:1010D000220F84EF90E0FC012083EFEEF0E03081FE
:1010E00016962C911697232B208321E01A962C9389
:1010F000DC012C9124602C93A0EFB0E02C912460B3
:101100002C9320812F7D2083DC012C9121602C9356
:1011100080818F73808380818068808380E028C194
:1011200020E08AEF90E01796ED91FC911897E20F7E
:10113000F11D3081FC0130832F5F16963C9116978C
:10114000231788F319829B819295969597708C81CD
:10115000880F880F880F890F8093F7009A819295E6
:10116000969597708B81880F880F880F890F8093D1
:10117000F60099819295969597708A81880F880FCD
:10118000880F890F8093F5002981220F220F220FEB
:1011900084EF90E0FC012083EFEEF0E030811696C2
:1011A0002C911697232B208321E01A962C93DC0197
:1011B0002C9124602C93A0EFB0E02C9124602C9310
:1011C000208120622083DC012C912E7F2C93808152
:1011D0008F73808380818068808380E0C9C01B9684
:1011E0008C911B978823D9F114969C911497929512
:1011F0009695977015968C911597880F880F880F84
:10120000890F8093F30013969C911397929596956E
:10121000977014968C911497880F880F880F890FF8
:101220008093F20012969C911297929596959770E2
:1012300013968C911397880F880F880F890F8093CE
:10124000F10012968C911297880F880F880F809367
:10125000F000EFEEF0E08081806180831CC0129688
:101260008C91129786958695869513969C911397E7
:10127000E0E29E9F800D11248093F30012968C91E2
:1012800012978295880F807E8093F200EFEEF0E057
:1012900080818F7E808316968C911697882391F09B
:1012A00020E08AEF90E01796ED91FC911897E20FFD
:1012B000F11D3081FC0130832F5F16963C9116970B
:1012C000231788F38FEF89839B819295969597706A
:1012D0008C81880F880F880F890F8093F7009A817F
:1012E0009295969597708B81880F880F880F890F3C
:1012F0008093F60099819295969597708A81880FD0
:10130000880F880F890F8093F5002981220F220F03
:10131000220F84EF90E0FC012083EFEEF0E03081BB
:1013200016962C911697232B208321E01A962C9346
:10133000DC012C9124602C93A0EFB0E02C91246070
:101340002C93208120622083DC012C9121602C933E
:1013500080818F73808380818068808380E008C073
:1013600019961C9280E004C08FE119968C938FEF40
:101370000F90DF91CF910895CF93DF93EC01898592
:10138000882309F4E3C08F3109F4E2C08F3F09F4E8
:10139000E1C06295607F6093ED000E94530380324C
:1013A00061F020F4882309F4D7C0C6C0803409F462
:1013B000B8C0803A09F45CC0BFC087E00E946C0BE3
:1013C00084E690E00E94300C87E00E946C0B84E67B
:1013D00090E00E94300C8091F00082FB882780F919
:1013E0008A878091EF0084FF2DC081E08B87E3EF37
:1013F000F0E080818695869586958D83A2EFB0E09A
:101400008C91908186958695869520E2929F800D9D
:1014100011248C83E1EFF0E080819C918695869584
:10142000869520E2929F800D11248B838091F0009D
:10143000908186958695869520E2929F800D112455
:101440008A8307C01B86E3EFF0E080818091F20081
:10145000808180E289878F8198850E946903EFEE01
:10146000F0E080818F7380831092EE0080E275C07F
:101470008091F00082FB882780F98A878091EF00B5
:1014800084FF2DC081E08B87E3EFF0E080818695BB
:10149000869586958D83A2EFB0E08C91908186959C
:1014A0008695869520E2929F800D11248C83E1EF32
:1014B000F0E080819C9186958695869520E2929FAA
:1014C000800D11248B838091F00090818695869504
:1014D000869520E2929F800D11248A8313C01B867B
:1014E000E3EFF0E080818295869587708B83809111
:1014F000F2009081990F990F990F829586958770C8
:10150000890F8A8380EA89878F8198850E94690381
:10151000EFEEF0E080818F7380831092EE0080EA1E
:101520001CC080E48987EFEEF0E080818F738083B8
:101530001092EE0080E411C08987EFEEF0E0808128
:101540008F7380831092EE0082E007C082E005C0B6
:1015500082E003C082E001C081E0DF91CF91089575
:1015600083E080931F0182E080931E0184E08093DA
:101570001D0161E188E191E00E946700109236014F
:10158000089583E080931F0181E080931E0160E154
:1015900088E191E00E946700109246010895CF9380
:1015A000DF9300D0CDB7DEB7BE016E5F7F4FCE01B7
:1015B00001960E94EA0B83E080931F0110921E01A6
:1015C00081E080931D018981809319018A81809334
:1015D000180185E580931C016AE088E191E00E9492
:1015E0006700109257010F900F90DF91CF910895EF
:1015F00083E080931F0110921E0182E080931D0101
:1016000080913701809318016AE088E191E00E949F
:10161000670010923501089590916501E091620193
:10162000F0E080812091690120931F0122E0209346
:101630001E0126E020931D0190931B018093180149
:1016400061E188E191E00E94670010923D010895F8
:10165000809103012091000190916901E0910101C5
:10166000F0E0208390931F0192E090931E0198E098
:1016700090931D0180931B0181E08093180161E12B
:1016800088E191E00E9467001092280108958091FE
:101690003601813011F40E94B00A809146018130F8
:1016A00011F40E94C10A80915701813011F40E9407
:1016B000CF0A80913501813011F40E94F80A80919F
:1016C0003D01813011F40E940C0B80912801813082
:1016D00011F40E94280B0895873029F42BB191E072
:1016E00092279BB907C0833029F498B181E08927FC
:1016F00088B9089545B121E030E0B90102C0660F14
:10170000771F8A95E2F7CB01842785B90895E1E632
:10171000F0E080E8808310828EEF84B981E187B9A0
:1017200018B889E08AB981E08BB91DB81EB80E944B
:10173000160C0E945D0080E00E9481030E948302DB
:101740000E94B10B78940E94490D0E94E10B87E042
:101750000E946C0B0E9428020E94060E0E94470BFA
:10176000F9CF85B78F7785BF83E58CBD08958EBD92
:101770000DB407FC04C089EE8150F1F708958AE0AA
:101780000E94460C8EB5089581E090E00E941E0CE8
:101790000895CF935B988EBD0DB407FC06C0C9EECB
:1017A000C150F1F70E94C40B09C087E00E94460CAB
:1017B0000E94C40B8AE00E94460CCEB58C2FCF91BC
:1017C0000895449A089581E090E00E941E0C0895C7
:1017D000449808950F931F93CF93DF938C01EB01EF
:1017E0000E94E80B1EBC80E890E00E94300C8EB591
:1017F000F801808380E890E00E94300C8EB58883E9
:101800000E94E10BDF91CF911F910F9108951F92DC
:101810000F920FB60F9211248F9381E080936A018B
:101820008F910F900FBE0F901F90189510926F0020
:10183000109280008AE080938100089510926A01DE
:101840001092850010928400909389008093880004
:1018500082E080936F0080916A018823E1F308950C
:101860000F931F93CF93DF938C01009751F0C0E04B
:10187000D0E088EE93E00E941E0C2196C017D1079D
:10188000C1F7DF91CF911F910F910895882321F027
:1018900090E09F5F9813FDCF0895CF93C82F0E94CB
:1018A000E30B80E88C0F0E94B70B81E090E00E9470
:1018B0001E0C80E00E94B70BC82F0E94C40B81E071
:1018C00090E00E94300C8C2FCF910895CF93DF933E
:1018D000D82FC62F0E94E30B8D2F0E94B70B81E0FB
:1018E00090E00E941E0C8C2F0E94B70B0E94C40B2C
:1018F00081E090E00E94300CDF91CF910895CF936A
:10190000C82F0E94E30B8FEA0E94B70B81E090E0A2
:101910000E941E0C8C2F0E94B70B81E090E00E9469
:101920001E0C80E00E94B70BC82F0E94C40B81E000
:1019300090E00E94300C8C2FCF910895CF930E949D
:10194000C90BC82F81E090E00E941E0C8C2FCF9114
:101950000895CF93DF93D82FC62F8DE30E949E0C5E
:101960000E94E30B8FE20E94B70B81E090E00E949F
:101970001E0C8D2F0E94B70B81E090E00E941E0C80
:101980008C2F0E94B70B0E94C40B81E090E00E9454
:10199000300CDF91CF910895CF93DF93EB018DE36E
:1019A0000E949E0C8F7782958F708883DF91CF91F4
:1019B0000895CF93C82F8DE30E949E0C0E94E30BE5
:1019C0008EEB0E94B70B81E090E00E941E0C8C2FE2
:1019D0000E94B70B81E090E00E941E0C80E00E9404
:1019E000B70BC82F0E94C40B81E090E00E94300C1E
:1019F0008C2FCF9108951F93CF93DF93C82FD62FAD
:101A0000142F0E944D0C11110CC0E1E0F0E0AF0169
:101A100002C0440F551FDA95E2F74095682F642302
:101A20000AC041E050E09A0102C0220F331FDA954C
:101A3000E2F7682F622B8C2F0E94660CDF91CF910A
:101A40001F9108951F93CF93DF93C82FD62F142F84
:101A50000E947F0C11110CC0E1E0F0E0AF0102C068
:101A6000440F551FDA95E2F74095682F64230AC0AA
:101A700041E050E09A0102C0220F331FDA95E2F7ED
:101A8000682F622B8C2F0E94A90CDF91CF911F91A0
:101A900008950E94E30B80E30E949E0C8AE30E945B
:101AA0009E0C8BE30E949E0C60E082E10E94A90CD8
:101AB0006FE583E10E94A90C60E486E10E94A90C15
:101AC0006EE087E10E94A90C63E089E10E94A90C05
:101AD00063E38BE10E94A90C67E18DE10E94A90CF0
:101AE00060E58FE10E94A90C64E181E20E94A90CEB
:101AF0006CEA82E20E94A90C8DE30E949E0C6BE0CE
:101B000088E00E94660C6DE083E10E94660C64E050
:101B100086E20E94660C6BE088E00E94660C6CE135
:101B20008CE00E94660C60E080E10E94660C64E03C
:101B300081E10E94660C65E083E10E94660C69EA1F
:101B40008CE10E94660C6FEC8DE10E94660C60E0F7
:101B50008EE10E94660C63E080E20E94660C60E009
:101B60008EE20E94660C60E080E00E94A90C68E4AE
:101B70008AE00E94660C65E08BE00E94660C64E0DF
:101B800081E20E94660C60E08DE00E94660C40E0FD
:101B900065E08EE00E94FB0C40E067E082E00E947E
:101BA000220D40E066E082E00E94220D40E066E007
:101BB00088E00E94FB0C67E189E00E94660C60E00F
:101BC00086E20E94660C6FEF8EE20E94660C8DE347
:101BD0000E949E0C6CE68CE00E94A90C60E88DE0EF
:101BE0000E94A90C83E30E949E0C8AEF90E00E9461
:101BF000300C87E30E949E0C8AEF90E00E94300C2C
:101C00001092350184E30E949E0C0895CF93DF93D8
:101C100000D0CDB7DEB7BE016E5F7F4FCE0101961B
:101C20000E94CC0C8A818650823068F586E30E943F
:101C30009E0C8DE30E949E0C80E80E94D90C80933C
:101C4000370181E80E94D90C8093380182E80E9414
:101C5000D90C8093390183E80E94D90C80933A0112
:101C600084E80E94D90C80933B0185E80E94D90C3E
:101C700080933C0181E0809335018AE30E949E0CB1
:101C800084E30E949E0C0F900F90DF91CF910895F6
:101C9000EE0FFF1F0590F491E02D0994F894FFCF0B
:00000001FF
