:100000000C9449000C945B000C945B000C945B0016
:100010000C945B000C945B000C945B000C945B00F4
:100020000C945B000C945B000C945B000C945B00E4
:100030000C94E30A0C945B000C945B000C945B0042
:100040000C945B000C945B000C945B000C945B00C4
:100050000C945B000C945B000C945B000C945B00B4
:100060000C945B000C945B000C945B000C945B00A4
:100070000C945B000C945B000C945B00D9026B0346
:10008000F5036904A9042505A2053F06E506D30288
:10009000EE0711241FBECFEFD8E0DEBFCDBF21E0B9
:1000A000A0E0B1E001C01D92A935B207E1F70E94BE
:1000B000CA090C94B90C0C94000082E080937C0077
:1000C00082EE80937A0080EA80937B000895CF933C
:1000D000DF938DE291E090932801809327011092A5
:1000E0002B0184E190E0909323018093220185E02D
:1000F0008093210188E08093260110924F0160E0F7
:1001000080E291E00E94BB08813009F4A7C0809191
:100110002901803209F080C0A0912701B091280107
:10012000CEE3D1E0E6E3F1E08D918193EC17FD079A
:10013000D9F7809136018F3FA1F5809137018F3F2C
:1001400009F089C0809138018F3F09F084C0809107
:1001500039018F3F09F07FC080913A018F3F09F04C
:100160007AC080913B018F3F09F075C080913C01BE
:100170008F3F09F070C080913D018F3F09F06BC047
:1001800083E00E94AF0984E690E00E940C0B83E0BC
:100190000E94AF0984E690E00E940C0B81E08093FE
:1001A0002C0180913601853509F055C080913701C9
:1001B000853509F050C080913801853509F04BC074
:1001C00080913901853509F046C080913A01853525
:1001D00009F041C080913B018535E9F580913C01F2
:1001E0008535C9F580913D018535A9F587E00E94E7
:1001F000AF0984E690E00E940C0B87E00E94AF09F3
:1002000084E690E00E940C0B81E08093460123C0BD
:100210001192EC17FD07E1F78DE291E09093280130
:100220008093270110922B0184E190E090932301A9
:100230008093220185E08093210188E0809326014C
:1002400010924F0160914F0180E291E00E948F0275
:100250008111F8CF03C0E6E3F1E0DACFDF91CF916F
:100260000895CF93DF9387E491E0909328018093E2
:10027000270110922B0189E190E090932301809354
:10028000220185E08093210198E0909326018093DC
:100290004F0165E080E291E00E94BB08813009F4E3
:1002A0006FC080912901803209F048C0A0912701D8
:1002B000B0912801CEE3D1E0E6E3F1E08D918193A6
:1002C000EC17FD07D9F7809136018F3009F055C042
:1002D000809137018F3009F050C0809138018F3004
:1002E00009F04BC0809139018F3009F046C08091F0
:1002F0003A018F3009F041C080913B018F30E9F520
:1003000080913C018F30C9F580913D018F30A9F576
:1003100086E00E94AF0984E690E00E940C0B86E024
:100320000E94AF0984E690E00E940C0B81E080936C
:10033000350123C01192EC17FD07E1F787E491E046
:10034000909328018093270110922B0189E190E07E
:10035000909323018093220185E08093210198E00E
:100360009093260180934F0160914F0180E291E0CC
:100370000E948F028111F8CF03C0E6E3F1E0DACFEB
:10038000DF91CF91089528E131E030932801209347
:10039000270110922B0170E07093230160932201DA
:1003A00022E02093210128E02093260124E02093DD
:1003B0004F01DC01E8E1F1E080E291E02D91219331
:1003C000E817F907D9F760914F0180E291E00E94A8
:1003D0008F028111F8CF60914F0180E291E00E947D
:1003E000BB088130C1F308958DE291E0909328011C
:1003F0008093270110922B0184E190E090932301D8
:100400008093220185E08093210188E0809326017A
:1004100010924F0160914F0180E291E00E948F02A3
:100420008111F8CF87E491E0909328018093270110
:1004300010922B0189E190E0909323018093220197
:1004400085E08093210198E09093260180934F01ED
:1004500060914F0180E291E00E948F028111F8CFFC
:10046000E6E3F1E08EE391E01192E817F907E1F796
:1004700010922C011092350110924601089580E0EF
:10048000ADEEB0E03EEE20E0982F9295907F9C93E9
:10049000E32FF22F1192E83FF105E1F78F5F8630ED
:1004A00099F708958091EF00807C61F08091EE00D3
:1004B000982F907E282F2076203231F0903431F022
:1004C0008F7108958FEF0895892F0895892F0895CA
:1004D000FC0180E0AAEFB0E09C9191938F5F88309F
:1004E000D9F7089581E08093D80082E08093E200FC
:1004F0008CE08093E30087E38093E40081E008953B
:100500000E947202882349F00E943F02E8EDF0E069
:1005100080818260808381E0089580E00895CF9398
:10052000DF931F92CDB7DEB7DC0111968C91119746
:100530008C30B1F419968C911997803669F4862F16
:100540008295807F8093ED00EFEEF0E080818F73E5
:1005500080831092EE006C9319961C9280E007C67F
:10056000862F8295807F8093ED008091EF00807CC4
:1005700009F0F9C580E619968C9319976C93EEEE05
:10058000F0E01192E83FF105E1F711964C911197D7
:1005900050E0FA013197EB30F10508F0E0C5E25C7C
:1005A000FF4F0C94B30C16968C9116978111B7C41B
:1005B000C8C41B968C911B978823D9F114969C91E3
:1005C000149792959695977015968C911597880F1C
:1005D000880F880F890F8093F30013969C911397CF
:1005E00092959695977014968C911497880F880F12
:1005F000880F890F8093F20012969C911297929522
:100600009695977013968C911397880F880F880F83
:10061000890F8093F10012968C911297880F880FA2
:10062000880F8093F000EFEEF0E08081806180839E
:100630001CC012968C911297869586958695139676
:100640009C91139720E2929F800D11248093F300D8
:1006500012968C9112978295880F807E8093F2007B
:10066000EFEEF0E080818F7E808316968C91169756
:10067000882391F020E08AEF90E01796ED91FC91AD
:100680001897E20FF11D3081FC0130832F5F169621
:100690003C911697231788F31A968C911A97882302
:1006A00031F0E0EFF0E080818460808305C0E0EF0E
:1006B000F0E080818B7F8083EFEEF0E090811696F2
:1006C0008C91892B808380818F738083808180646B
:1006D000808380E04CC51B968C911B978823D9F1B1
:1006E00014969C91149792959695977015968C9167
:1006F0001597880F880F880F890F8093F300139642
:100700009C91139792959695977014968C91149747
:10071000880F880F880F890F8093F20012969C91A2
:10072000129792959695977013968C911397880FC0
:10073000880F880F890F8093F10012968C91129781
:10074000880F880F880F8093F000EFEEF0E0808133
:10075000806180831CC012968C9112978695869535
:10076000869513969C911397F0E29F9F800D11241C
:100770008093F30012968C9112978295880F807E59
:100780008093F200EFEEF0E080818F7E80831696FA
:100790008C911697882391F020E08AEF90E01796CD
:1007A000ED91FC911897E20FF11D3081FC0130832F
:1007B0002F5F16963C911697231788F31A961C9272
:1007C0001A97E0EFF0E080818B7F8083EFEEF0E01E
:1007D000908116968C91892B808380818F73808382
:1007E00080818064808380E0C2C41B968C911B97BB
:1007F0008823D9F114969C911497929596959770A9
:1008000015968C911597880F880F880F890F809304
:10081000F30013969C911397929596959770149662
:100820008C911497880F880F880F890F8093F2009E
:1008300012969C91129792959695977013968C911B
:100840001397880F880F880F890F8093F1001296F5
:100850008C911297880F880F880F8093F000EFEE2D
:10086000F0E08081806180831CC012968C91129789
:1008700086958695869513969C911397F0E29F9F97
:10088000800D11248093F30012968C91129782951B
:10089000880F807E8093F200EFEEF0E080818F7E03
:1008A000808381E01A968C931A97E0EFF0E08081C4
:1008B00084608083EFEEF0E0908116968C91892B16
:1008C000808380818F73808380818064808380E0D7
:1008D0004EC419829B819295969597708C81880F52
:1008E000880F880F890F8093F7009A8192959695CB
:1008F00097708B81880F880F880F890F8093F6007F
:1009000099819295969597708A81880F880F880FA4
:10091000890F8093F5002981220F220F220F84EF87
:1009200090E0FC012083EFEEF0E0308116962C91F0
:10093000232B2083DC012C912B7F2C932C912E7F59
:100940002C9380818F73808380818068808380E096
:100950000EC48FEF89838A818295880F807E815EA5
:1009600027EF30E0F901808349814295440F407EB2
:1009700086EF90E0FC01408312964C9112974695C9
:100980004695469513965C911397F0E25F9F400D54
:1009900011244093F30012964C9112974295440F04
:1009A000407E4093F2006FEE70E0FB0140814F7E8D
:1009B000408319825B815295569557704C81440F44
:1009C000440F440F450FF90140833A813295369523
:1009D00037702B81220F220F220F230FFC0120835F
:1009E00099819295969597708A81880F880F880FC4
:1009F000890F8093F5002981220F220F220F84EFA7
:100A000090E0FC012083FB01308116962C91169713
:100A1000232B20831A961C92DC012C9124602C93AA
:100A2000A0EFB0E02C912B7F2C9320812F7E208390
:100A3000FC0120812E7F2083DB018C918F738C93AE
:100A40008C9180688C9380E092C38FEF89838A8138
:100A50008295880F807E815E27EF30E0F9018083E8
:100A600049814295440F407E86EF90E0FC0140832F
:100A700012964C91129746954695469513965C9121
:100A80001397F0E25F9F400D11244093F3001296FC
:100A90004C9112974295440F407E4093F2006FEEC6
:100AA00070E0FB0140814F7E408319825B8152954B
:100AB000569557704C81440F440F440F450FF90170
:100AC00040833A813295369537702B81220F220F61
:100AD000220F230FFC0120839981929596959770A0
:100AE0008A81880F880F880F890F8093F5002981EC
:100AF000220F220F220F84EF90E0FC012083FB01E4
:100B0000308116962C911697232B208321E01A967C
:100B10002C93DC012C9124602C93A0EFB0E02C915D
:100B200024602C9320812F7D2083FC0120812E7F47
:100B30002083DB018C918F738C938C9180688C93D4
:100B400080E015C31B968C911B978823D9F11496CE
:100B50009C91149792959695977015968C911597F0
:100B6000880F880F880F890F8093F30013969C914C
:100B7000139792959695977014968C911497880F69
:100B8000880F880F890F8093F20012969C9112971C
:100B900092959695977013968C911397880F880F5E
:100BA000880F890F8093F10012968C911297880F0D
:100BB000880F880F8093F000EFEEF0E08081806175
:100BC00080831CC012968C91129786958695869587
:100BD00013969C911397E0E29E9F800D11248093C1
:100BE000F30012968C9112978295880F807E8093E5
:100BF000F200EFEEF0E080818F7E80838FEF8983BB
:100C00009B819295969597708C81880F880F880F9D
:100C1000890F8093F7009A819295969597708B81B2
:100C2000880F880F880F890F8093F600998192951D
:100C3000969597708A81880F880F880F890F809307
:100C4000F5002981220F220F220F84EF90E0FC0192
:100C50002083EFEEF0E0308116962C91232B208339
:100C6000DC012C912B7F2C932C9121602C93808183
:100C70008F73808380818068808380E078C21B9638
:100C80008C911B978823D9F114969C911497929577
:100C90009695977015968C911597880F880F880FE9
:100CA000890F8093F30013969C91139792959695D4
:100CB000977014968C911497880F880F880F890F5E
:100CC0008093F20012969C91129792959695977048
:100CD00013968C911397880F880F880F890F809334
:100CE000F10012968C911297880F880F880F8093CD
:100CF000F000EFEEF0E08081806180831CC01296EE
:100D00008C91129786958695869513969C9113974C
:100D1000E0E29E9F800D11248093F30012968C9147
:100D200012978295880F807E8093F200EFEEF0E0BC
:100D300080818F7E80838FEF89839B8192959695AA
:100D400097708C81880F880F880F890F8093F70028
:100D50009A819295969597708B81880F880F880F4E
:100D6000890F8093F60099819295969597708A8164
:100D7000880F880F880F890F8093F5002981220F33
:100D8000220F220F84EF90E0FC012083EFEEF0E0D1
:100D9000308116962C911697232B20831A961C923D
:100DA000DC012C9124602C93A0EFB0E02C912B7FE0
:100DB0002C93DC012C9121602C9380818F73808394
:100DC00080818068808380E0D2C11B968C911B97C4
:100DD0008823D9F114969C911497929596959770C3
:100DE00015968C911597880F880F880F890F80931F
:100DF000F30013969C91139792959695977014967D
:100E00008C911497880F880F880F890F8093F200B8
:100E100012969C91129792959695977013968C9135
:100E20001397880F880F880F890F8093F10012960F
:100E30008C911297880F880F880F8093F000EFEE47
:100E4000F0E08081806180831CC012968C911297A3
:100E500086958695869513969C911397E0E29E9FC2
:100E6000800D11248093F30012968C911297829535
:100E7000880F807E8093F200EFEEF0E080818F7E1D
:100E800080838FEF89839B819295969597708C8153
:100E9000880F880F880F890F8093F7009A819295A9
:100EA000969597708B81880F880F880F890F809394
:100EB000F60099819295969597708A81880F880F90
:100EC000880F890F8093F5002981220F220F220FAE
:100ED00084EF90E0FC012083EFEEF0E03081169685
:100EE0002C911697232B208321E01A962C93DC015A
:100EF0002C9124602C93A0EFB0E02C9124602C93D3
:100F000020812F7D2083DC012C9121602C93808116
:100F10008F73808380818068808380E028C120E097
:100F20008AEF90E01796ED91FC911897E20FF11D72
:100F30003081FC0130832F5F16963C911697231762
:100F400088F319829B819295969597708C81880F72
:100F5000880F880F890F8093F7009A819295969554
:100F600097708B81880F880F880F890F8093F60008
:100F700099819295969597708A81880F880F880F2E
:100F8000890F8093F5002981220F220F220F84EF11
:100F900090E0FC012083EFEEF0E0308116962C917A
:100FA0001697232B208321E01A962C93DC012C9199
:100FB00024602C93A0EFB0E02C9124602C9320812E
:100FC00020622083DC012C912E7F2C9380818F73F3
:100FD000808380818068808380E0C9C01B968C916B
:100FE0001B978823D9F114969C9114979295969506
:100FF000977015968C911597880F880F880F890F19
:101000008093F30013969C91139792959695977001
:1010100014968C911497880F880F880F890F8093EE
:10102000F20012969C91129792959695977013964E
:101030008C911397880F880F880F890F8093F10088
:1010400012968C911297880F880F880F8093F0006A
:10105000EFEEF0E08081806180831CC012968C915D
:10106000129786958695869513969C911397E0E244
:101070009E9F800D11248093F30012968C911297FD
:101080008295880F807E8093F200EFEEF0E0808101
:101090008F7E808316968C911697882391F020E09E
:1010A0008AEF90E01796ED91FC911897E20FF11DF1
:1010B0003081FC0130832F5F16963C9116972317E1
:1010C00088F38FEF89839B819295969597708C8199
:1010D000880F880F880F890F8093F7009A81929567
:1010E000969597708B81880F880F880F890F809352
:1010F000F60099819295969597708A81880F880F4E
:10110000880F890F8093F5002981220F220F220F6B
:1011100084EF90E0FC012083EFEEF0E03081169642
:101120002C911697232B208321E01A962C93DC0117
:101130002C9124602C93A0EFB0E02C9124602C9390
:10114000208120622083DC012C9121602C938081FE
:101150008F73808380818068808380E008C01996C7
:101160001C9280E004C08FE119968C938FEF0F9052
:10117000DF91CF910895CF93DF93EC018985882388
:1011800009F4E3C08F3109F4E2C08F3F09F4E1C0F4
:101190006295607F6093ED000E945202803261F0A0
:1011A00020F4882309F4D7C0C6C0803409F4B8C03D
:1011B000803A09F45CC0BFC087E00E94AF0984E6B2
:1011C00090E00E940C0B87E00E94AF0984E690E05B
:1011D0000E940C0B8091F00082FB882780F98A879F
:1011E0008091EF0084FF2DC081E08B87E3EFF0E07A
:1011F00080818695869586958D83A2EFB0E08C914F
:10120000908186958695869520E2929F800D112487
:101210008C83E1EFF0E080819C91869586958695A0
:1012200020E2929F800D11248B838091F0009081A9
:1012300086958695869520E2929F800D11248A835B
:1012400007C01B86E3EFF0E080818091F20080818F
:1012500080E289878F8198850E946802EFEEF0E036
:1012600080818F7380831092EE0080E275C0809140
:10127000F00082FB882780F98A878091EF0084FF45
:101280002DC081E08B87E3EFF0E080818695869525
:1012900086958D83A2EFB0E08C919081869586959E
:1012A000869520E2929F800D11248C83E1EFF0E07F
:1012B00080819C9186958695869520E2929F800DEF
:1012C00011248B838091F000908186958695869578
:1012D00020E2929F800D11248A8313C01B86E3EFC6
:1012E000F0E080818295869587708B838091F200F3
:1012F0009081990F990F990F829586958770890F24
:101300008A8380EA89878F8198850E946802EFEE40
:10131000F0E080818F7380831092EE0080EA1CC021
:1013200080E48987EFEEF0E080818F7380831092F4
:10133000EE0080E411C08987EFEEF0E080818F73CA
:1013400080831092EE0082E007C082E005C082E058
:1013500003C082E001C081E0DF91CF910895873022
:1013600029F42BB191E092279BB907C0833029F46F
:1013700098B181E0892788B9089545B121E030E02E
:10138000B90102C0660F771F8A95E2F7CB01842767
:1013900085B90895CF93DF9300D0CDB7DEB719821A
:1013A0001A82E1E6F0E080E8808310828EEF84B953
:1013B00081E187B918B889E08AB981E08BB91DB895
:1013C0001EB80E94F20A0E945D0080E00E94800226
:1013D0000E94F4010E948D0A78940E94F60B0E94EC
:1013E000BD0A87E00E94AF090F2EF0E1EF2EF1E079
:1013F000FF2EF02D08E111E00F2EF1E1AF2EF1E00C
:10140000BF2EF02D0F2EF4E1CF2EF1E0DF2EF02DC8
:101410004E2C5F2C0F2EF2E58F2EF1E09F2EF02D3B
:101420000F2EFBEA6F2EF02D0F2EF0EF7F2EF02DFA
:101430000F2EF5E53F2EF02D0E9467000E9431012E
:1014400080912C01813069F4E42DF52D6192E01733
:10145000F107E1F761E1842D952D0E94C3011092FF
:101460002C0180913501813069F4E42DF52D7192C4
:10147000E017F107E1F760E1842D952D0E94C3018B
:1014800010923501809146018130F1F4E42DF52D63
:101490001192E017F107E1F7BE016E5F7F4FCE01B9
:1014A00001960E94C60A8981F50180838A81F7012D
:1014B0008083F60130826AE0842D952D0E94C3015D
:1014C000109246011A82198280915101813009F0EF
:1014D000B3CFF7011192E017F107E1F7F401808132
:1014E000F701808380915301F5018083809154013D
:1014F00080931201809155018093130180915601D0
:10150000F601808380915701809315016FE0C70138
:101510000E94C3011092510183CF85B78F7785BF99
:1015200083E58CBD08958EBD0DB407FC04C089EE23
:101530008150F1F708958AE00E94220B8EB508953C
:1015400081E090E00E94FA0A0895CF935B988EBDE7
:101550000DB407FC06C0C9EEC150F1F70E94A00A05
:1015600009C087E00E94220B0E94A00A8AE00E9424
:10157000220BCEB58C2FCF910895449A089581E027
:1015800090E00E94FA0A0895449808950F931F93DB
:10159000CF93DF938C01EB010E94C40A1EBC80E84C
:1015A00090E00E940C0B8EB5F801808380E890E0FB
:1015B0000E940C0B8EB588830E94BD0ADF91CF91EB
:1015C0001F910F9108951F920F920FB60F92112441
:1015D0008F9381E0809358018F910F900FBE0F90F1
:1015E0001F90189510926F00109280008AE08093EF
:1015F0008100089510925801109285001092840085
:10160000909389008093880082E080936F0080919E
:1016100058018823E1F308950F931F93CF93DF932D
:101620008C01009751F0C0E0D0E088EE93E00E947A
:10163000FA0A2196C017D107C1F7DF91CF911F9108
:101640000F910895882321F090E09F5F9813FDCFBC
:101650000895CF93C82F0E94BF0A80E88C0F0E9484
:10166000930A81E090E00E94FA0A80E00E94930AC7
:10167000C82F0E94A00A81E090E00E940C0B8C2FE2
:10168000CF910895CF93DF93D82FC62F0E94BF0A22
:101690008D2F0E94930A81E090E00E94FA0A8C2F1D
:1016A0000E94930A0E94A00A81E090E00E940C0B25
:1016B000DF91CF910895CF93C82F0E94BF0A8FEA80
:1016C0000E94930A81E090E00E94FA0A8C2F0E9407
:1016D000930A81E090E00E94FA0A80E00E94930A57
:1016E000C82F0E94A00A81E090E00E940C0B8C2F72
:1016F000CF910895CF930E94A50AC82F81E090E072
:101700000E94FA0A8C2FCF910895CF93DF93D82FA0
:10171000C62F8DE30E947A0B0E94BF0A8FE20E94BF
:10172000930A81E090E00E94FA0A8D2F0E94930AAA
:1017300081E090E00E94FA0A8C2F0E94930A0E9496
:10174000A00A81E090E00E940C0BDF91CF910895F8
:101750001F93CF93DF93C82FD62F142F0E94290BEE
:1017600011110CC0E1E0F0E0AF0102C0440F551FC1
:10177000DA95E2F74095682F64230AC041E050E013
:101780009A0102C0220F331FDA95E2F7682F622B0D
:101790008C2F0E94420BDF91CF911F9108951F93D0
:1017A000CF93DF93C82FD62F142F0E945B0B1111FC
:1017B0000CC0E1E0F0E0AF0102C0440F551FDA9524
:1017C000E2F74095682F64230AC041E050E09A0197
:1017D00002C0220F331FDA95E2F7682F622B8C2F9D
:1017E0000E94850BDF91CF911F9108950E94BF0A3F
:1017F00080E30E947A0B8AE30E947A0B8BE30E94BB
:101800007A0B60E082E10E94850B6FE583E10E9424
:10181000850B60E486E10E94850B6EE087E10E9403
:10182000850B63E089E10E94850B63E38BE10E94F5
:10183000850B67E18DE10E94850B60E58FE10E94D9
:10184000850B64E181E20E94850B6CEA82E20E94D2
:10185000850B8DE30E947A0B6BE088E00E94420BBF
:101860006DE083E10E94420B64E086E20E94420B3D
:101870006BE088E00E94420B6CE18CE00E94420B1E
:1018800060E080E10E94420B64E081E10E94420B33
:1018900065E083E10E94420B69EA8CE10E94420B01
:1018A0006FEC8DE10E94420B60E08EE10E94420BE2
:1018B00063E080E20E94420B60E08EE20E94420BF5
:1018C00060E080E00E94850B68E48AE00E94420BA1
:1018D00065E08BE00E94420B64E081E20E94420BD3
:1018E00060E08DE00E94420B40E065E08EE00E94E7
:1018F000A80B40E067E082E00E94CF0B40E066E08A
:1019000082E00E94CF0B40E066E088E00E94A80BD6
:1019100067E189E00E94420B60E086E20E94420B90
:101920006FEF8EE20E94420B8DE30E947A0B6CE611
:101930008CE00E94850B60E88DE00E94850B83E3BC
:101940000E947A0B8AEF90E00E940C0B87E30E94C2
:101950007A0B8AEF90E00E940C0B1092510184E305
:101960000E947A0B0895EE0FFF1F0590F491E02D71
:061970000994F894FFCF7A
:00000001FF
