:100000000C945D000C946F000C946F000C946F00C6
:100010000C946F000C946F000C946F000C946F00A4
:100020000C946F000C946F000C946F000C946F0094
:100030000C946F110C946F000C946F000C9443108F
:100040000C9468100C948D100C946F000C946F003D
:100050000C946F000C946F000C946F000C946F0064
:100060000C946F000C946F000C946F000C946F0054
:100070000C946F000C946F000C946F00D800DB00A0
:10008000E8005F01EB005F01F8005F01050112016C
:100090001F012C012F015F013C015F015F015C0129
:1000A0005F015901BC044E05D8054C068C060807B3
:1000B00085072208C808B604D10911241FBECFEF56
:1000C000D8E0DEBFCDBF23E0A0E0B1E001C01D92CB
:1000D000AB3BB207E1F70E94FF0F0C94B4110C94F4
:1000E000000082E080937C0082EE80937A0080EAB8
:1000F00080937B0008958091EC01813019F487E1B1
:100100000E94C8108091EC01811103C087E10E9418
:1001100008118091D401813019F488E10E94C8103F
:100120008091D401811103C088E10E9408110895D3
:100130002AEC31E03093F9012093F8011092FC0190
:1001400070E07093F4016093F30122E02093F201D8
:1001500028E02093F70124E02093FC02DC01EAEC84
:10016000F1E082ED91E02D912193E817F907D9F79D
:100170006091FC0281EF91E00E9472048111F8CF3E
:100180006091FC0281EF91E00E949E0A8130C1F3F0
:100190000895CF93DF93EC014D8150E0FA01319740
:1001A000E431F10508F08BC0E25CFF4F0C94AE1116
:1001B00081E08093100281E08093DF02DE01EDEFA9
:1001C000F1E085E092E02D912193E817F907D9F746
:1001D00081E08093BD0281E080931B02DE01E2EBAF
:1001E000F3E08AEB93E02D912193E817F907D9F713
:1001F00081E08093E101DE01E1E0F1E089E091E05E
:100200002D912193E817F907D9F781E08093DC025B
:10021000DE01E2EEF1E08AEE91E02D912193E81704
:10022000F907D9F781E08093E102DE01ECE0F3E029
:1002300084E193E02D912193E817F907D9F781E044
:100240008093E002DE01E5EDF1E08DED91E02D918E
:100250002193E817F907D9F7888180930C0281E090
:1002600080931202DE01E2EEF2E08AEE92E02D913E
:100270002193E817F907D9F78091DE02811119C09F
:1002800080910103811115C087E18093C50182E04F
:100290008093C40180E18093C30180910C0280931C
:1002A000C20181E08093010361E18EEB91E00E9445
:1002B000980088818093EE0181E08093ED01DF91C9
:1002C000CF9108951092FC0195E09093F20198E08F
:1002D0009093F7018093FC0281110EC085EB92E0B0
:1002E0009093F9018093F8018091CC0290E0909373
:1002F000F4018093F3010895813071F48EEA91E066
:100300009093F9018093F8018091CD0290E0909351
:10031000F4018093F3010895823071F486EB91E04B
:100320009093F9018093F8018091CE0290E0909330
:10033000F4018093F3010895833071F484ED92E029
:100340009093F9018093F8018091CF0290E090930F
:10035000F4018093F3010895853069F480EF92E011
:100360009093F9018093F8018091D10290E09093ED
:10037000F4018093F3010895811120C01092FC01D3
:1003800085E08093F20188E08093F7011092FC02EF
:1003900085EB92E09093F9018093F8018091CC0273
:1003A00090E09093F4018093F3016091FC0281EF5F
:1003B00091E00E9472048111F8CF0895813001F517
:1003C0001092FC0185E08093F20188E08093F701B0
:1003D00081E08093FC028EEA91E09093F901809392
:1003E000F80185E190E09093F4018093F30160912E
:1003F000FC0281EF91E00E9472048111F8CF089510
:10040000823009F51092FC0185E08093F20188E0CA
:100410008093F70182E08093FC0286EB91E0909359
:10042000F9018093F8018091CE0290E09093F4015D
:100430008093F3016091FC0281EF91E00E947204CD
:100440008111F8CF0895833009F51092FC0185E001
:100450008093F20188E08093F70183E08093FC02AF
:1004600084ED92E09093F9018093F8018091CF029E
:1004700090E09093F4018093F3016091FC0281EF8E
:1004800091E00E9472048111F8CF08958530F1F453
:100490001092FC018093F20198E09093F701809311
:1004A000FC0280EF92E09093F9018093F801809133
:1004B000D10290E09093F4018093F3016091FC02EB
:1004C00081EF91E00E9472048111F8CF0895CF93DB
:1004D000DF9385E00E9462016091FC0281EF91E070
:1004E0000E949E0A813011F18091FA018032D9F484
:1004F000A091F801B091F901CCECD2E0E4ECF2E08B
:100500008D918193EC17FD07D9F78091CA02823053
:1005100021F484EC92E00E94C900E4ECF2E0119234
:10052000EC17FD07E1F785E00E94BC01DF91CF9158
:1005300008959F92AF92BF92CF92DF92EF92FF9277
:100540000F931F93CF93DF93912C0AEF11E00F2E9F
:10055000F8EFAF2EF1E0BF2EF02DCCECD2E00F2E55
:10056000F4ECEF2EF2E0FF2EF02D0F2EFAECCF2E52
:10057000F2E0DF2EF02D892D0E9462016091FC02D5
:1005800081EF91E00E949E0A8130E1F0F8018081C4
:100590008032A9F4F501A081B181F7018D91819399
:1005A000EC17FD07D9F7F6018081823019F4C701F5
:1005B0000E94C900F7011192EC17FD07E1F7892DA0
:1005C0000E94BC019394F4E09F12D5CF0E94670271
:1005D000DF91CF911F910F91FF90EF90DF90CF901F
:1005E000BF90AF909F9008958F929F92BF92CF92AD
:1005F000DF92EF92FF920F931F93CF93DF938AE1E5
:100600008093CC028BE18093CD028CE18093CE026B
:100610008DE18093CF028EE18093D0028FE18093B1
:10062000D10285EB92E09093F9018093F80110924A
:10063000FC018AE190E09093F4018093F30185E05E
:100640008093F20188E08093F7011092FC026091A0
:10065000FC0281EF91E00E9472048111F8CF8EEAD2
:1006600091E09093F9018093F8011092FC01809140
:10067000CD0290E09093F4018093F30185E08093A4
:10068000F20188E08093F70181E08093FC026091A1
:10069000FC0281EF91E00E9472048111F8CF86EB99
:1006A00091E09093F9018093F8011092FC01809100
:1006B000CE0290E09093F4018093F30185E0809363
:1006C000F20188E08093F70182E08093FC02609160
:1006D000FC0281EF91E00E9472048111F8CF84ED59
:1006E00092E09093F9018093F8011092FC018091BF
:1006F000CF0290E09093F4018093F30185E0809322
:10070000F20188E08093F70183E08093FC0260911E
:10071000FC0281EF91E00E9472048111F8CF80EF1A
:1007200092E09093F9018093F8011092FC0180917E
:10073000D10290E09093F4018093F30185E08093DF
:10074000F20198E09093F7018093FC026091FC0223
:1007500081EF91E00E9472048111F8CF0F2EF4EC2A
:10076000CF2EF2E0DF2EF02D0F2EFEEBEF2EF1E07C
:10077000FF2EF02D02EB13E061E071E04DEF51E050
:1007800022EE31E08CE093E0C5EDD1E0A2EEB2E0E4
:100790000F2EF2E08F2EF3E09F2EF02D6894BB24F5
:1007A000B3F8F60111926F01F70111927F01F80180
:1007B00011928F01FB011192BF01FA011192AF0159
:1007C000F90111929F01FC011192CF0119921D9222
:1007D000F40111924F01BA9421F7ECE1F2E0A7E1A4
:1007E000B3E08BEA92E011921D92E817F907D9F76E
:1007F000109210021092BD021092DF0210921B02A2
:100800001092E1011092DC021092E1021092E002DB
:1008100010921202109200011092DE021092DD027C
:100820001092EE011092ED0110920103DF91CF9131
:100830001F910F91FF90EF90DF90CF90BF909F900E
:100840008F90089580E0ADEEB0E03EEE20E0982F6E
:100850009295907F9C93E32FF22F1192E83FF10540
:10086000E1F78F5F863099F708958091EF00807CE3
:1008700061F08091EE00982F907E282F2076203214
:1008800031F0903431F08F7108958FEF0895892FF2
:100890000895892F0895FC0180E0AAEFB0E09C91B3
:1008A00091938F5F8830D9F7089581E08093D800C5
:1008B00082E08093E2008CE08093E30087E3809302
:1008C000E40081E008950E945504882349F00E94C5
:1008D0002204E8EDF0E080818260808381E0089569
:1008E00080E00895CF93DF931F92CDB7DEB7DC0190
:1008F00011968C9111978C30B1F419968C911997AF
:10090000803669F4862F8295807F8093ED00EFEE2C
:10091000F0E080818F7380831092EE006C931996C3
:100920001C9280E007C6862F8295807F8093ED0021
:100930008091EF00807C09F0F9C580E619968C93D0
:1009400019976C93EEEEF0E01192E83FF105E1F7B4
:1009500011964C91119750E0FA013197EB30F10567
:1009600008F0E0C5EE5AFF4F0C94AE1116968C912C
:1009700016978111B7C4C8C41B968C911B97882306
:10098000D9F114969C911497929596959770159617
:100990008C911597880F880F880F890F8093F3002B
:1009A00013969C91139792959695977014968C91A7
:1009B0001497880F880F880F890F8093F200129682
:1009C0009C91129792959695977013968C91139788
:1009D000880F880F880F890F8093F10012968C91F1
:1009E0001297880F880F880F8093F000EFEEF0E0E9
:1009F0008081806180831CC012968C9112978695AD
:100A00008695869513969C91139720E2929F800D70
:100A100011248093F30012968C9112978295880F7F
:100A2000807E8093F200EFEEF0E080818F7E808305
:100A300016968C911697882391F020E08AEF90E02B
:100A40001796ED91FC911897E20FF11D3081FC0192
:100A500030832F5F16963C911697231788F31A96CA
:100A60008C911A97882331F0E0EFF0E08081846068
:100A7000808305C0E0EFF0E080818B7F8083EFEE24
:100A8000F0E0908116968C91892B808380818F7302
:100A9000808380818064808380E04CC51B968C912C
:100AA0001B978823D9F114969C911497929596954B
:100AB000977015968C911597880F880F880F890F5E
:100AC0008093F30013969C91139792959695977047
:100AD00014968C911497880F880F880F890F809334
:100AE000F20012969C911297929596959770139694
:100AF0008C911397880F880F880F890F8093F100CE
:100B000012968C911297880F880F880F8093F000AF
:100B1000EFEEF0E08081806180831CC012968C91A2
:100B2000129786958695869513969C911397F0E279
:100B30009F9F800D11248093F30012968C91129741
:100B40008295880F807E8093F200EFEEF0E0808146
:100B50008F7E808316968C911697882391F020E0E3
:100B60008AEF90E01796ED91FC911897E20FF11D36
:100B70003081FC0130832F5F16963C911697231726
:100B800088F31A961C921A97E0EFF0E080818B7F31
:100B90008083EFEEF0E0908116968C91892B808314
:100BA00080818F73808380818064808380E0C2C471
:100BB0001B968C911B978823D9F114969C911497BE
:100BC00092959695977015968C911597880F880F2A
:100BD000880F890F8093F30013969C911397929539
:100BE0009695977014968C911497880F880F880F9C
:100BF000890F8093F20012969C9112979295969588
:100C0000977013968C911397880F880F880F890F10
:100C10008093F10012968C911297880F880F880F9D
:100C20008093F000EFEEF0E08081806180831CC053
:100C300012968C91129786958695869513969C911F
:100C40001397F0E29F9F800D11248093F30012967A
:100C50008C9112978295880F807E8093F200EFEE40
:100C6000F0E080818F7E808381E01A968C931A97C2
:100C7000E0EFF0E0808184608083EFEEF0E090812F
:100C800016968C91892B808380818F7380838081DD
:100C90008064808380E04EC419829B8192959695F2
:100CA00097708C81880F880F880F890F8093F700C9
:100CB0009A819295969597708B81880F880F880FEF
:100CC000890F8093F60099819295969597708A8105
:100CD000880F880F880F890F8093F5002981220FD4
:100CE000220F220F84EF90E0FC012083EFEEF0E072
:100CF000308116962C91232B2083DC012C912B7FA5
:100D00002C932C912E7F2C9380818F7380838081F4
:100D10008068808380E00EC48FEF89838A8182950A
:100D2000880F807E815E27EF30E0F9018083498162
:100D30004295440F407E86EF90E0FC01408312967E
:100D40004C91129746954695469513965C9113974C
:100D5000F0E25F9F400D11244093F30012964C91F6
:100D600012974295440F407E4093F2006FEE70E080
:100D7000FB0140814F7E408319825B8152955695DD
:100D800057704C81440F440F440F450FF9014083C5
:100D90003A813295369537702B81220F220F220F20
:100DA000230FFC01208399819295969597708A81F3
:100DB000880F880F880F890F8093F5002981220FF3
:100DC000220F220F84EF90E0FC012083FB01308191
:100DD00016962C911697232B20831A961C92DC01D1
:100DE0002C9124602C93A0EFB0E02C912B7F2C93BE
:100DF00020812F7E2083FC0120812E7F2083DB0138
:100E00008C918F738C938C9180688C9380E092C3CB
:100E10008FEF89838A818295880F807E815E27EF9C
:100E200030E0F901808349814295440F407E86EF8E
:100E300090E0FC01408312964C911297469546959E
:100E4000469513965C911397F0E25F9F400D112435
:100E50004093F30012964C9112974295440F407EB6
:100E60004093F2006FEE70E0FB0140814F7E4083C3
:100E700019825B815295569557704C81440F440FEF
:100E8000440F450FF90140833A813295369537700A
:100E90002B81220F220F220F230FFC012083998127
:100EA0009295969597708A81880F880F880F890F81
:100EB0008093F5002981220F220F220F84EF90E00A
:100EC000FC012083FB01308116962C911697232B71
:100ED000208321E01A962C93DC012C9124602C9322
:100EE000A0EFB0E02C9124602C9320812F7D2083F3
:100EF000FC0120812E7F2083DB018C918F738C93EA
:100F00008C9180688C9380E015C31B968C911B9705
:100F10008823D9F114969C91149792959695977081
:100F200015968C911597880F880F880F890F8093DD
:100F3000F30013969C91139792959695977014963B
:100F40008C911497880F880F880F890F8093F20077
:100F500012969C91129792959695977013968C91F4
:100F60001397880F880F880F890F8093F1001296CE
:100F70008C911297880F880F880F8093F000EFEE06
:100F8000F0E08081806180831CC012968C91129762
:100F900086958695869513969C911397E0E29E9F81
:100FA000800D11248093F30012968C9112978295F4
:100FB000880F807E8093F200EFEEF0E080818F7EDC
:100FC00080838FEF89839B819295969597708C8112
:100FD000880F880F880F890F8093F7009A81929568
:100FE000969597708B81880F880F880F890F809353
:100FF000F60099819295969597708A81880F880F4F
:10100000880F890F8093F5002981220F220F220F6C
:1010100084EF90E0FC012083EFEEF0E03081169643
:101020002C91232B2083DC012C912B7F2C932C9152
:1010300021602C9380818F7380838081806880837E
:1010400080E078C21B968C911B978823D9F1149667
:101050009C91149792959695977015968C911597EB
:10106000880F880F880F890F8093F30013969C9147
:10107000139792959695977014968C911497880F64
:10108000880F880F890F8093F20012969C91129717
:1010900092959695977013968C911397880F880F59
:1010A000880F890F8093F10012968C911297880F08
:1010B000880F880F8093F000EFEEF0E08081806170
:1010C00080831CC012968C91129786958695869582
:1010D00013969C911397E0E29E9F800D11248093BC
:1010E000F30012968C9112978295880F807E8093E0
:1010F000F200EFEEF0E080818F7E80838FEF8983B6
:101100009B819295969597708C81880F880F880F98
:10111000890F8093F7009A819295969597708B81AD
:10112000880F880F880F890F8093F6009981929518
:10113000969597708A81880F880F880F890F809302
:10114000F5002981220F220F220F84EF90E0FC018D
:101150002083EFEEF0E0308116962C911697232B2A
:1011600020831A961C92DC012C9124602C93A0EF12
:10117000B0E02C912B7F2C93DC012C9121602C93DF
:1011800080818F73808380818068808380E0D2C17A
:101190001B968C911B978823D9F114969C911497D8
:1011A00092959695977015968C911597880F880F44
:1011B000880F890F8093F30013969C911397929553
:1011C0009695977014968C911497880F880F880FB6
:1011D000890F8093F20012969C91129792959695A2
:1011E000977013968C911397880F880F880F890F2B
:1011F0008093F10012968C911297880F880F880FB8
:101200008093F000EFEEF0E08081806180831CC06D
:1012100012968C91129786958695869513969C9139
:101220001397E0E29E9F800D11248093F3001296A5
:101230008C9112978295880F807E8093F200EFEE5A
:10124000F0E080818F7E80838FEF89839B819295F0
:10125000969597708C81880F880F880F890F8093DF
:10126000F7009A819295969597708B81880F880FD9
:10127000880F890F8093F6009981929596959770C3
:101280008A81880F880F880F890F8093F500298144
:10129000220F220F220F84EF90E0FC012083EFEE5B
:1012A000F0E0308116962C911697232B208321E0B5
:1012B0001A962C93DC012C9124602C93A0EFB0E0C3
:1012C0002C9124602C9320812F7D2083DC012C9194
:1012D00021602C9380818F738083808180688083DC
:1012E00080E028C120E08AEF90E01796ED91FC9114
:1012F0001897E20FF11D3081FC0130832F5F1696A5
:101300003C911697231788F319829B8192959695A5
:1013100097708C81880F880F880F890F8093F70052
:101320009A819295969597708B81880F880F880F78
:10133000890F8093F60099819295969597708A818E
:10134000880F880F880F890F8093F5002981220F5D
:10135000220F220F84EF90E0FC012083EFEEF0E0FB
:10136000308116962C911697232B208321E01A9614
:101370002C93DC012C9124602C93A0EFB0E02C91F5
:1013800024602C93208120622083DC012C912E7F0D
:101390002C9380818F73808380818068808380E03C
:1013A000C9C01B968C911B978823D9F114969C91E8
:1013B000149792959695977015968C911597880F1E
:1013C000880F880F890F8093F30013969C911397D1
:1013D00092959695977014968C911497880F880F14
:1013E000880F890F8093F20012969C911297929524
:1013F0009695977013968C911397880F880F880F86
:10140000890F8093F10012968C911297880F880FA4
:10141000880F8093F000EFEEF0E0808180618083A0
:101420001CC012968C911297869586958695139678
:101430009C911397E0E29E9F800D11248093F3000E
:1014400012968C9112978295880F807E8093F2007D
:10145000EFEEF0E080818F7E808316968C91169758
:10146000882391F020E08AEF90E01796ED91FC91AF
:101470001897E20FF11D3081FC0130832F5F169623
:101480003C911697231788F38FEF89839B81929560
:10149000969597708C81880F880F880F890F80939D
:1014A000F7009A819295969597708B81880F880F97
:1014B000880F890F8093F600998192959695977081
:1014C0008A81880F880F880F890F8093F500298102
:1014D000220F220F220F84EF90E0FC012083EFEE19
:1014E000F0E0308116962C911697232B208321E073
:1014F0001A962C93DC012C9124602C93A0EFB0E081
:101500002C9124602C93208120622083DC012C917B
:1015100021602C9380818F73808380818068808399
:1015200080E008C019961C9280E004C08FE11996F3
:101530008C938FEF0F90DF91CF910895CF93DF932E
:10154000EC018985882309F4D5C08F3109F4D4C012
:101550008F3F09F4D3C06295607F6093ED000E94D5
:101560003504803261F020F4882309F4C9C0B8C082
:10157000803409F4AAC0803A09F44EC0B1C0809109
:10158000F00082FB882780F98A878091EF0084FF32
:101590002DC081E08B87E3EFF0E080818695869512
:1015A00086958D83A2EFB0E08C919081869586958B
:1015B000869520E2929F800D11248C83E1EFF0E06C
:1015C00080819C9186958695869520E2929F800DDC
:1015D00011248B838091F000908186958695869565
:1015E00020E2929F800D11248A8307C01B86E3EFBF
:1015F000F0E080818091F200808180E289878F8194
:1016000098850E944B04EFEEF0E080818F73808319
:101610001092EE0080E275C08091F00082FB882776
:1016200080F98A878091EF0084FF2DC081E08B874D
:10163000E3EFF0E080818695869586958D83A2EF15
:10164000B0E08C91908186958695869520E2929F58
:10165000800D11248C83E1EFF0E080819C918695D0
:101660008695869520E2929F800D11248B83809130
:10167000F000908186958695869520E2929F800D58
:1016800011248A8313C01B86E3EFF0E080818295EA
:10169000869587708B838091F2009081990F990FC6
:1016A000990F829586958770890F8A8380EA89874A
:1016B0008F8198850E944B04EFEEF0E080818F735C
:1016C00080831092EE0080EA1CC080E48987EFEEF0
:1016D000F0E080818F7380831092EE0080E411C06F
:1016E0008987EFEEF0E080818F7380831092EE00A7
:1016F00082E007C082E005C082E003C082E001C052
:1017000081E0DF91CF91089580618093C50182E0EF
:101710008093C40183E18093C30180910C02809384
:10172000C2011092C1011092C0011092BF016093DA
:10173000BE0161E18EEB91E00E949800089583E183
:101740008093C50182E08093C40184E08093C3014B
:1017500080910C028093C20161E18EEB91E00E94C6
:10176000980010921002089584E18093C50181E0F1
:101770008093C40180910C028093C20160E18EEBE2
:1017800091E00E9498001092BD0208950F931F935C
:10179000CF93DF9300D0CDB7DEB710910102009157
:1017A000040202950F701092C1011092C0011092B4
:1017B000BF011092BE011A3071F4BE016E5F7F4FFF
:1017C000CE0101960E94521189818093BF018A81C6
:1017D0008093BE010EC0113029F48091EA028093FB
:1017E000BE010EC0123029F48091EB028093BE013D
:1017F0000DC0133029F480910F028093BE0106C002
:10180000143021F4809109018093BE01006100939E
:10181000C5011092C4011093C30180910C02809302
:10182000C2016AE08EEB91E00E9498001092DF0204
:101830000F900F90DF91CF911F910F91089583E149
:101840008093C5011092C4018EEF8093C3018091F3
:101850000C028093C201809115028093BE016AE060
:101860008EEB91E00E94980010920E0108959091E5
:10187000B503E091B203F0E080812091B9032061CB
:101880002093C50122E02093C40126E02093C301E8
:1018900020910C022093C2019093C1018093BE015C
:1018A00061E18EEB91E00E94980010921B02089576
:1018B00080910401209101019091B903E09102010E
:1018C000F0E0208390619093C50192E09093C40171
:1018D00098E09093C30190910C029093C201809381
:1018E000C10181E08093BE0161E18EEB91E00E9435
:1018F00098001092E10108952091E5012A3069F4E1
:101900008091E30190E0982F88273091E201832BAA
:101910009093C7018093C6011EC0213069F4809165
:10192000E30190E0982F88273091E201832B909378
:101930000E0280930D021EC0223069F48091E301F3
:1019400090E0982F88273091E201832B9093160323
:10195000809315031EC0233069F48091E30190E069
:10196000982F88273091E201832B9093AB018093CD
:10197000AA011EC0243069F48091E30190E0982F01
:1019800088273091E201832B9093B1038093B003B9
:101990001EC0253069F48091E30190E0982F8827DC
:1019A0003091E201832B90930B0280930A021EC0B8
:1019B000263069F48091E30190E0982F88273091D8
:1019C000E201832B9093ED028093EC021EC0213143
:1019D00069F48091E30190E0982F88273091E2012B
:1019E000832B90930E0280930D021EC0293069F460
:1019F0008091E30190E0982F88273091E201832BBA
:101A00009093AD018093AC011EC02B3069F480919E
:101A1000E30190E0982F88273091E201832B909387
:101A2000F0018093EF011EC02C3069F48091E30136
:101A300090E0982F88273091E201832B9093D30177
:101A40008093D2011EC02D3069F48091E30190E0B3
:101A5000982F88273091E201832B9093A9018093DE
:101A6000A8011EC02E3069F48091E30190E0982F08
:101A700088272091E201822B909300038093FF023C
:101A80001DC02F3069F48091E30190E0982F8827E2
:101A90002091E201822B9093E0018093DF010EC040
:101AA000203161F48091E30190E0982F8827209104
:101AB000E201822B9093BF028093BE021092DC025F
:101AC000089520910F032A3069F480910D0390E06E
:101AD000982F882730910C03832B9093C901809312
:101AE000C8011EC0213069F480910D0390E0982F49
:101AF000882730910C03832B9093C1028093C002FE
:101B00001EC0223069F480910D0390E0982F882741
:101B100030910C03832B9093DE018093DD011EC076
:101B2000233069F480910D0390E0982F882730913D
:101B30000C03832B9093C3028093C2021EC02430F7
:101B400069F480910D0390E0982F882730910C0361
:101B5000832B9093D3028093D2021EC0253069F468
:101B600080910D0390E0982F882730910C03832BF0
:101B700090930802809307021EC0263069F480917A
:101B80000D0390E0982F882730910C03832B9093BE
:101B90000B0180930A011EC0213169F480910D036D
:101BA00090E0982F882730910C03832B9093C102EB
:101BB0008093C0021EC0293069F480910D0390E02B
:101BC000982F882730910C03832B9093EF028093FA
:101BD000EE021EC02B3069F480910D0390E0982F27
:101BE000882730910C03832B909306028093050283
:101BF0001EC02C3069F480910D0390E0982F882747
:101C000030910C03832B9093FE028093FD021EC043
:101C10002D3069F480910D0390E0982F8827309142
:101C20000C03832B90930D0180930C011EC02E306A
:101C300069F480910D0390E0982F882720910C0380
:101C4000822B90931402809313021DC02F3069F4ED
:101C500080910D0390E0982F882720910C03822B10
:101C600090930B0380930A030EC0203161F480919E
:101C70000D0390E0982F882720910C03822B9093DE
:101C8000F9028093F8021092E10208958091D80140
:101C90008F3F29F49091D501909311020EC08E3F91
:101CA00029F48091D501809309020DC0803F29F469
:101CB0008091D5018093EC0106C0813F21F4809191
:101CC000D5018093D4011092E00208958091E90239
:101CD00082958F709091E602292F30E0609100018B
:101CE000462F50E04F5F5F4F4217530794F46FEF5A
:101CF0000E94840B109200011092120210920103B4
:101D0000ECE1F2E08BEA92E01192E817F907E1F7D3
:101D100008957091DE02772351F06FEF0E94840BDB
:101D20001092000110921202109201030895911175
:101D300003C0662309F447C02417350791F5909333
:101D4000000141E040930103F901EE0FFF1FEE0F88
:101D5000FF1FE45EFD4F2091E20220832091E30209
:101D600021832091E40222832091E5022383933290
:101D7000A9F4109200011092010391E09093DE0209
:101D8000ECE1F2E0AFE0B1E02BEA32E091919D931B
:101D9000E217F307D9F763E20E94840B1092120254
:101DA00008956FEF0E94840B1092000110920103BE
:101DB00010921202ECE1F2E08BEA92E01192E81745
:101DC000F907E1F7089581E080930103F901EE0F2F
:101DD000FF1FEE0FFF1FE45EFD4F8091E202808344
:101DE0008091E30281838091E40282838091E50205
:101DF0008383D4CF8AE18093C50182E08093C401BC
:101E000081E18093C30180910C028093C20161E162
:101E10008EEB91E00E94980008952F923F924F928E
:101E20005F926F927F928F929F92AF92BF92CF926A
:101E3000DF92EF92FF920F931F93CF93DF93109255
:101E4000EE011092ED010E94FA0E8091ED018111D8
:101E50000DC0CAEF03C0C15009F486C08AE090E00B
:101E60000E9486118091ED018823A9F31092ED0163
:101E70008091EE018F3F09F477C00F2EFAE14F2ECB
:101E8000F3E05F2EF02D312CCEEBD1E00F2EFFEBE7
:101E9000AF2EF1E0BF2EF02D0F2EF0ECCF2EF1E0A3
:101EA000DF2EF02D0F2EF1ECEF2EF1E0FF2EF02DB6
:101EB00005EC11E00F2EFAE12F2EF02D0F2EF4EC91
:101EC0008F2EF1E09F2EF02D0F2EF3EC6F2EF1E010
:101ED0007F2EF02D08C084E0480E511C8091EE0149
:101EE0008F3F09F441C0F201339780818883319696
:101EF0008081F5018083F20131978081F601808332
:101F0000F2018081F7018083F801208282E0F401F0
:101F100080838EE0F3018083E2ECF1E0308261E1C6
:101F2000CE010E94980081E090E00E9498113394C5
:101F3000F6E23F12D0CF8091EE0181110CC0C4E6D1
:101F400002C0C15089F084E690E00E948611809121
:101F5000EE018823B1F3833219F01092EE0104C030
:101F60001092EE011092DD02DF91CF911F910F913F
:101F7000FF90EF90DF90CF90BF90AF909F908F90A9
:101F80007F906F905F904F903F902F900895809139
:101F9000100281110E949F0B8091BD0281110E944D
:101FA000B40B8091DF0281110E94C60B80910E015B
:101FB00081110E941F0C80911B0281110E94370C1D
:101FC0008091E10181110E94580C8091DC02811105
:101FD0000E947C0C8091E10281110E94610D809130
:101FE000E00281110E94460E8091120281110E942E
:101FF000660E8091DD0281110E940D0F08951092EE
:102000000000E1E6F0E080E8808310828EEF84B982
:1020100081E187B918B889E08AB9C1E0CBB91DB8A8
:102020001EB80E947E110E94710080E00E9463042D
:102030000E94F4020E9448118DE10E94C8100E9483
:10204000B5108FE3809311028FE180930902C09352
:10205000EC01C093D4018FEB8093EA028FE0809370
:10206000EB028FE580930F028FE280930901789451
:102070000E944E110E9499020E94C1100E947B0092
:102080000E94C70FF7CF1F920F920FB60F92112425
:102090002F933F934F935F936F937F938F939F9370
:1020A000AF93BF93EF93FF938BE10E940811FF91D1
:1020B000EF91BF91AF919F918F917F916F915F91C0
:1020C0004F913F912F910F900FBE0F901F90189539
:1020D0001F920F920FB60F9211242F933F934F939D
:1020E0005F936F937F938F939F93AF93BF93EF9380
:1020F000FF938EE10E940811FF91EF91BF91AF9184
:102100009F918F917F916F915F914F913F912F910F
:102110000F900FBE0F901F9018951F920F920FB641
:102120000F9211242F933F934F935F936F937F935D
:102130008F939F93AF93BF93EF93FF938BE10E9495
:10214000C8108EE10E94C810FF91EF91BF91AF912E
:102150009F918F917F916F915F914F913F912F91BF
:102160000F900FBE0F901F90189516BC8FE387BD80
:102170008FEB88BD14BC85E085BD87E080936E0041
:1021800008958091110287BD8091090288BD08954C
:102190008D3011F45D9A08C08E3011F45E9A08C03B
:1021A0008F3011F45F9A08C0803111F42A9A08C068
:1021B000813111F4449A08C0823111F4459A08C063
:1021C000863111F4469A08C0873111F42B9A08C061
:1021D000883111F42C9A08C0893111F4479A08C04B
:1021E0008A3111F42D9A08C08B3111F42E9A08C04F
:1021F0008C3111F42F9A08C08D3111F4589A08953A
:102200008E3111F4409A0895803209F4599A089554
:102210008D3011F45D9808C08E3011F45E9808C0BE
:102220008F3011F45F9808C0803111F42A9808C0EB
:10223000813111F4449808C0823111F4459808C0E6
:10224000863111F4469808C0873111F42B9808C0E4
:10225000883111F42C9808C0893111F4479808C0CE
:102260008A3111F42D9808C08B3111F42E9808C0D2
:102270008C3111F42F9808C08D3111F458980895BD
:102280008E3111F440980895803209F459980895D8
:1022900085B78F7785BF83E58CBD0895449A0895EF
:1022A000449808950F931F93CF93DF938C01EB0114
:1022B0000E9450111EBC80E890E00E9498118EB5DB
:1022C000F801808380E890E00E9498118EB58883A1
:1022D0000E944E11DF91CF911F910F9108951F928F
:1022E0000F920FB60F9211248F9381E08093BA035F
:1022F0008F910F900FBE0F901F90189510926F0046
:10230000109280008AE08093810008951092BA03B1
:102310001092850010928400909389008093880029
:1023200082E080936F008091BA038823E1F30895DF
:102330000F931F93CF93DF938C01009751F0C0E070
:10234000D0E088EE93E00E9486112196C017D10755
:10235000C1F7DF91CF911F910F910895EE0FFF1FED
:0C2360000590F491E02D0994F894FFCF53
:00000001FF
