S019000053756273797374656D5F50726F6772616D2E7372656305
S11300000C9449000C945B000C945B000C945B0012
S11300100C945B000C945B000C945B000C945B00F0
S11300200C945B000C945B000C945B000C945B00E0
S11300300C94270C0C945B000C945B000C945B00F8
S11300400C945B000C945B000C945B000C945B00C0
S11300500C945B000C945B000C945B000C945B00B0
S11300600C945B000C945B000C945B000C945B00A0
S11300700C945B000C945B000C945B00E503770428
S113008001057505B5053106AE064B07F107DF031B
S1130090FA0811241FBECFEFD8E0DEBFCDBF21E0A8
S11300A0A0E0B1E001C01D92A937B207E1F70E94B8
S11300B0A70B0C94710E0C94000082E080937C00DA
S11300C082EE80937A0080EA80937B00089521E297
S11300D031E030933201209331011092350170E008
S11300E070932D0160932C0122E020932B0128E0D2
S11300F02093300124E020936E01DC01E1E2F1E081
S113010089E291E02D912193E817F907D9F76091DD
S11301106E018AE291E00E949B038111F8CF609105
S11301206E018AE291E00E94C7098130C1F308950B
S1130130CF93DF93EC018D81833019F128F4813062
S113014041F0823069F03FC0853011F1873071F1A0
S11301503AC083E00E94960B81E080933E0133C055
S113016081E00E94960B81E080936501DE01E6E365
S1130170F1E08EE391E02D912193E817F907D9F787
S113018022C082E00E94960B81E080934E011BC046
S113019081E080934501DE01E0E7F1E088E791E04A
S11301A02D912193E817F907D9F70DC081E08093C9
S11301B02901DE01E0E0F1E088E091E02D91219356
S11301C0E817F907D9F7DF91CF9108951092350117
S11301D095E090932B0198E09093300180936E0109
S11301E081110EC086E491E0909332018093310135
S11301F08091570190E090932D0180932C010895F4
S1130200813071F489E091E090933201809331015F
S11302108091580190E090932D0180932C010895D2
S1130220823071F481E191E0909332018093310145
S11302308091590190E090932D0180932C010895B1
S1130240833071F48DE591E0909332018093310114
S113025080915A0190E090932D0180932C01089590
S1130260853069F486E691E0909332018093310100
S113027080915C0190E090932D0180932C0108956E
S1130280811120C01092350185E080932B0188E014
S11302908093300110926E0186E491E090933201D4
S11302A0809331018091570190E090932D018093C8
S11302B02C0160916E018AE291E00E949B038111FE
S11302C0F8CF0895813001F51092350185E08093CF
S11302D02B0188E08093300181E080936E0189E0F6
S11302E091E0909332018093310185E190E0909305
S11302F02D0180932C0160916E018AE291E00E94AD
S11303009B038111F8CF0895823009F510923501CD
S113031085E080932B0188E08093300182E0809314
S11303206E0181E191E090933201809331018091DB
S1130330590190E090932D0180932C0160916E01FE
S11303408AE291E00E949B038111F8CF08958330E3
S113035009F51092350185E080932B0188E08093A4
S1130360300183E080936E018DE591E0909332013A
S11303708093310180915A0190E090932D018093F4
S11303802C0160916E018AE291E00E949B0381112D
S1130390F8CF08958530F1F41092350180932B0144
S11303A098E09093300180936E0186E691E09093FB
S11303B032018093310180915C0190E090932D0192
S11303C080932C0160916E018AE291E00E949B036C
S11303D08111F8CF0895CF93DF9385E00E94E60062
S11303E060916E018AE291E00E94C709813011F1A7
S11303F0809133018032D9F4A0913101B09132015E
S1130400C7E5D1E0EFE4F1E08D918193EC17FD07AE
S1130410D9F780915501823021F48FE491E00E9454
S11304209800EFE4F1E01192EC17FD07E1F785E0A5
S11304300E944001DF91CF9108959F92AF92BF92A5
S1130440CF92DF92EF92FF920F931F93CF93DF939C
S1130450912C03E311E00F2EF1E3AF2EF1E0BF2E58
S1130460F02DC7E5D1E00F2EFFE4EF2EF1E0FF2ED3
S1130470F02D0F2EF5E5CF2EF1E0DF2EF02D892D96
S11304800E94E60060916E018AE291E00E94C70931
S11304908130E1F0F80180818032A9F4F501A08176
S11304A0B181F7018D918193EC17FD07D9F7F6011E
S11304B08081823019F4C7010E949800F7011192DB
S11304C0EC17FD07E1F7892D0E9440019394F4E0B5
S11304D09F12D5CF0E94EB01DF91CF911F910F9115
S11304E0FF90EF90DF90CF90BF90AF909F900895D2
S11304F0CF93DF938AE1809357018BE18093580176
S11305008CE1809359018DE180935A018EE18093AF
S11305105B018FE180935C0186E491E0909332016A
S113052080933101109235018AE190E090932D017E
S113053080932C0185E080932B0188E08093300127
S113054010926E0160916E018AE291E00E949B0319
S11305508111F8CF89E091E09093320180933101C9
S1130560109235018091580190E090932D01809371
S11305702C0185E080932B0188E08093300181E099
S113058080936E0160916E018AE291E00E949B0368
S11305908111F8CF81E191E0909332018093310190
S11305A0109235018091590190E090932D01809330
S11305B02C0185E080932B0188E08093300182E058
S11305C080936E0160916E018AE291E00E949B0328
S11305D08111F8CF8DE591E0909332018093310140
S11305E01092350180915A0190E090932D018093EF
S11305F02C0185E080932B0188E08093300183E017
S113060080936E0160916E018AE291E00E949B03E7
S11306108111F8CF86E691E0909332018093310105
S11306201092350180915C0190E090932D018093AC
S11306302C0185E080932B0198E090933001809306
S11306406E0160916E018AE291E00E949B03811128
S1130650F8CFEFE4F1E089E191E0C0E7D1E040E0D8
S113066051E027E531E01192DC011D92CD01199290
S1130670DA011D92AD01E217F307A9F710923E01CA
S113068010924E01109265011092450110922901B9
S1130690DF91CF91089580E0ADEEB0E03EEE20E032
S11306A0982F9295907F9C93E32FF22F1192E83F1D
S11306B0F105E1F78F5F863099F708958091EF0097
S11306C0807C61F08091EE00982F907E282F207618
S11306D0203231F0903431F08F7108958FEF089506
S11306E0892F0895892F0895FC0180E0AAEFB0E0D6
S11306F09C9191938F5F8830D9F7089581E080931E
S1130700D80082E08093E2008CE08093E30087E3EA
S11307108093E40081E008950E947E03882349F0D9
S11307200E944B03E8EDF0E080818260808381E0E9
S1130730089580E00895CF93DF931F92CDB7DEB77D
S1130740DC0111968C9111978C30B1F419968C912F
S11307501997803669F4862F8295807F8093ED0007
S1130760EFEEF0E080818F7380831092EE006C9343
S113077019961C9280E007C6862F8295807F80930D
S1130780ED008091EF00807C09F0F9C580E61996B0
S11307908C9319976C93EEEEF0E01192E83FF1051B
S11307A0E1F711964C91119750E0FA013197EB3033
S11307B0F10508F0E0C5E25CFF4F0C946B0E169651
S11307C08C9116978111B7C4C8C41B968C911B9742
S11307D08823D9F114969C911497929596959770C5
S11307E015968C911597880F880F880F890F809321
S11307F0F30013969C91139792959695977014967F
S11308008C911497880F880F880F890F8093F200BA
S113081012969C91129792959695977013968C9137
S11308201397880F880F880F890F8093F100129611
S11308308C911297880F880F880F8093F000EFEE49
S1130840F0E08081806180831CC012968C911297A5
S113085086958695869513969C91139720E2929F90
S1130860800D11248093F30012968C911297829537
S1130870880F807E8093F200EFEEF0E080818F7E1F
S1130880808316968C911697882391F020E08AEF46
S113089090E01796ED91FC911897E20FF11D3081CD
S11308A0FC0130832F5F16963C911697231788F32B
S11308B01A968C911A97882331F0E0EFF0E080814A
S11308C08460808305C0E0EFF0E080818B7F8083CB
S11308D0EFEEF0E0908116968C91892B80838081D5
S11308E08F73808380818064808380E04CC51B96F5
S11308F08C911B978823D9F114969C911497929507
S11309009695977015968C911597880F880F880F78
S1130910890F8093F30013969C9113979295969563
S1130920977014968C911497880F880F880F890FED
S11309308093F20012969C911297929596959770D7
S113094013968C911397880F880F880F890F8093C3
S1130950F10012968C911297880F880F880F80935C
S1130960F000EFEEF0E08081806180831CC012967D
S11309708C91129786958695869513969C911397DC
S1130980F0E29F9F800D11248093F30012968C91C6
S113099012978295880F807E8093F200EFEEF0E04C
S11309A080818F7E808316968C911697882391F090
S11309B020E08AEF90E01796ED91FC911897E20FF2
S11309C0F11D3081FC0130832F5F16963C91169700
S11309D0231788F31A961C921A97E0EFF0E08081AF
S11309E08B7F8083EFEEF0E0908116968C91892BBB
S11309F0808380818F73808380818064808380E0A2
S1130A00C2C41B968C911B978823D9F114969C9190
S1130A10149792959695977015968C911597880FC3
S1130A20880F880F890F8093F30013969C91139776
S1130A3092959695977014968C911497880F880FB9
S1130A40880F890F8093F20012969C9112979295C9
S1130A509695977013968C911397880F880F880F2B
S1130A60890F8093F10012968C911297880F880F4A
S1130A70880F8093F000EFEEF0E080818061808346
S1130A801CC012968C91129786958695869513961E
S1130A909C911397F0E29F9F800D11248093F300A3
S1130AA012968C9112978295880F807E8093F20023
S1130AB0EFEEF0E080818F7E808381E01A968C9344
S1130AC01A97E0EFF0E0808184608083EFEEF0E03D
S1130AD0908116968C91892B808380818F7380837B
S1130AE080818064808380E04EC419829B819295CA
S1130AF0969597708C81880F880F880F890F809343
S1130B00F7009A819295969597708B81880F880F3C
S1130B10880F890F8093F600998192959695977026
S1130B208A81880F880F880F890F8093F5002981A7
S1130B30220F220F220F84EF90E0FC012083EFEEBE
S1130B40F0E0308116962C91232B2083DC012C912C
S1130B502B7F2C932C912E7F2C9380818F738083F9
S1130B6080818068808380E00EC48FEF89838A81CE
S1130B708295880F807E815E27EF30E0F9018083C3
S1130B8049814295440F407E86EF90E0FC0140830A
S1130B9012964C91129746954695469513965C91FC
S1130BA01397F0E25F9F400D11244093F3001296D7
S1130BB04C9112974295440F407E4093F2006FEEA1
S1130BC070E0FB0140814F7E408319825B81529526
S1130BD0569557704C81440F440F440F450FF9014B
S1130BE040833A813295369537702B81220F220F3C
S1130BF0220F230FFC01208399819295969597707B
S1130C008A81880F880F880F890F8093F5002981C6
S1130C10220F220F220F84EF90E0FC012083FB01BE
S1130C20308116962C911697232B20831A961C92AA
S1130C30DC012C9124602C93A0EFB0E02C912B7F4D
S1130C402C9320812F7E2083FC0120812E7F208302
S1130C50DB018C918F738C938C9180688C9380E0F2
S1130C6092C38FEF89838A818295880F807E815E0B
S1130C7027EF30E0F901808349814295440F407E9B
S1130C8086EF90E0FC01408312964C9112974695B2
S1130C904695469513965C911397F0E25F9F400D3D
S1130CA011244093F30012964C9112974295440FED
S1130CB0407E4093F2006FEE70E0FB0140814F7E76
S1130CC0408319825B815295569557704C81440F2D
S1130CD0440F440F450FF90140833A81329536950C
S1130CE037702B81220F220F220F230FFC01208348
S1130CF099819295969597708A81880F880F880FAD
S1130D00890F8093F5002981220F220F220F84EF8F
S1130D1090E0FC012083FB01308116962C911697FC
S1130D20232B208321E01A962C93DC012C91246040
S1130D302C93A0EFB0E02C9124602C9320812F7D84
S1130D402083FC0120812E7F2083DB018C918F7313
S1130D508C938C9180688C9380E015C31B968C9146
S1130D601B978823D9F114969C9114979295969584
S1130D70977015968C911597880F880F880F890F97
S1130D808093F30013969C91139792959695977080
S1130D9014968C911497880F880F880F890F80936D
S1130DA0F20012969C9112979295969597701396CD
S1130DB08C911397880F880F880F890F8093F10007
S1130DC012968C911297880F880F880F8093F000E9
S1130DD0EFEEF0E08081806180831CC012968C91DC
S1130DE0129786958695869513969C911397E0E2C3
S1130DF09E9F800D11248093F30012968C9112977C
S1130E008295880F807E8093F200EFEEF0E080817F
S1130E108F7E80838FEF89839B81929596959770BF
S1130E208C81880F880F880F890F8093F7009A812F
S1130E309295969597708B81880F880F880F890FEC
S1130E408093F60099819295969597708A81880F80
S1130E50880F880F890F8093F5002981220F220FB4
S1130E60220F84EF90E0FC012083EFEEF0E030816C
S1130E7016962C91232B2083DC012C912B7F2C9311
S1130E802C9121602C9380818F7380838081806872
S1130E90808380E078C21B968C911B978823D9F1BC
S1130EA014969C91149792959695977015968C919B
S1130EB01597880F880F880F890F8093F300139676
S1130EC09C91139792959695977014968C9114977C
S1130ED0880F880F880F890F8093F20012969C91D7
S1130EE0129792959695977013968C911397880FF5
S1130EF0880F880F890F8093F10012968C911297B6
S1130F00880F880F880F8093F000EFEEF0E0808167
S1130F10806180831CC012968C9112978695869569
S1130F20869513969C911397E0E29E9F800D112461
S1130F308093F30012968C9112978295880F807E8D
S1130F408093F200EFEEF0E080818F7E80838FEF5C
S1130F5089839B819295969597708C81880F880FD1
S1130F60880F890F8093F7009A81929596959770D0
S1130F708B81880F880F880F890F8093F6009981E1
S1130F809295969597708A81880F880F880F890F9C
S1130F908093F5002981220F220F220F84EF90E025
S1130FA0FC012083EFEEF0E0308116962C91169729
S1130FB0232B20831A961C92DC012C9124602C9301
S1130FC0A0EFB0E02C912B7F2C93DC012C912160BD
S1130FD02C9380818F73808380818068808380E0FC
S1130FE0D2C11B968C911B978823D9F114969C919E
S1130FF0149792959695977015968C911597880FDE
S1131000880F880F890F8093F30013969C91139790
S113101092959695977014968C911497880F880FD3
S1131020880F890F8093F20012969C9112979295E3
S11310309695977013968C911397880F880F880F45
S1131040890F8093F10012968C911297880F880F64
S1131050880F8093F000EFEEF0E080818061808360
S11310601CC012968C911297869586958695139638
S11310709C911397E0E29E9F800D11248093F300CE
S113108012968C9112978295880F807E8093F2003D
S1131090EFEEF0E080818F7E80838FEF89839B81E8
S11310A09295969597708C81880F880F880F890F79
S11310B08093F7009A819295969597708B81880F0B
S11310C0880F880F890F8093F600998192959695E1
S11310D097708A81880F880F880F890F8093F50095
S11310E02981220F220F220F84EF90E0FC0120833C
S11310F0EFEEF0E0308116962C911697232B208387
S113110021E01A962C93DC012C9124602C93A0EFFF
S1131110B0E02C9124602C9320812F7D2083DC016E
S11311202C9121602C9380818F73808380818068CF
S1131130808380E028C120E08AEF90E01796ED914B
S1131140FC911897E20FF11D3081FC0130832F5F71
S113115016963C911697231788F319829B819295D2
S1131160969597708C81880F880F880F890F8093CC
S1131170F7009A819295969597708B81880F880FC6
S1131180880F890F8093F6009981929596959770B0
S11311908A81880F880F880F890F8093F500298131
S11311A0220F220F220F84EF90E0FC012083EFEE48
S11311B0F0E0308116962C911697232B208321E0A2
S11311C01A962C93DC012C9124602C93A0EFB0E0B0
S11311D02C9124602C93208120622083DC012C91AB
S11311E02E7F2C9380818F7380838081806880839D
S11311F080E0C9C01B968C911B978823D9F1149663
S11312009C91149792959695977015968C91159735
S1131210880F880F880F890F8093F30013969C9191
S1131220139792959695977014968C911497880FAE
S1131230880F880F890F8093F20012969C91129761
S113124092959695977013968C911397880F880FA3
S1131250880F890F8093F10012968C911297880F52
S1131260880F880F8093F000EFEEF0E080818061BA
S113127080831CC012968C911297869586958695CC
S113128013969C911397E0E29E9F800D1124809306
S1131290F30012968C9112978295880F807E80932A
S11312A0F200EFEEF0E080818F7E808316968C91C1
S11312B01697882391F020E08AEF90E01796ED913D
S11312C0FC911897E20FF11D3081FC0130832F5FF0
S11312D016963C911697231788F38FEF89839B8189
S11312E09295969597708C81880F880F880F890F37
S11312F08093F7009A819295969597708B81880FC9
S1131300880F880F890F8093F6009981929596959E
S113131097708A81880F880F880F890F8093F50052
S11313202981220F220F220F84EF90E0FC012083F9
S1131330EFEEF0E0308116962C911697232B208344
S113134021E01A962C93DC012C9124602C93A0EFBD
S1131350B0E02C9124602C93208120622083DC0156
S11313602C9121602C9380818F738083808180688D
S1131370808380E008C019961C9280E004C08FE14D
S113138019968C938FEF0F90DF91CF910895CF939F
S1131390DF93EC018985882309F4D8C08F3109F4DF
S11313A0D7C08F3F09F4D6C06295607F6093ED008B
S11313B00E945E03803261F020F4882309F4CCC0DB
S11313C0BBC0803409F4ADC0803A09F451C0B4C044
S11313D081E00E94960B8091F00082FB882780F9BF
S11313E08A878091EF0084FF2DC081E08B87E3EF33
S11313F0F0E080818695869586958D83A2EFB0E096
S11314008C91908186958695869520E2929F800D99
S113141011248C83E1EFF0E080819C918695869580
S1131420869520E2929F800D11248B838091F00099
S1131430908186958695869520E2929F800D112451
S11314408A8307C01B86E3EFF0E080818091F2007D
S1131450808180E289878F8198850E947403EFEEF2
S1131460F0E080818F7380831092EE0080E275C07B
S11314708091F00082FB882780F98A878091EF00B1
S113148084FF2DC081E08B87E3EFF0E080818695B7
S1131490869586958D83A2EFB0E08C919081869598
S11314A08695869520E2929F800D11248C83E1EF2E
S11314B0F0E080819C9186958695869520E2929FA6
S11314C0800D11248B838091F00090818695869500
S11314D0869520E2929F800D11248A8313C01B8677
S11314E0E3EFF0E080818295869587708B8380910D
S11314F0F2009081990F990F990F829586958770C4
S1131500890F8A8380EA89878F8198850E94740372
S1131510EFEEF0E080818F7380831092EE0080EA1A
S11315201CC080E48987EFEEF0E080818F738083B4
S11315301092EE0080E411C08987EFEEF0E0808124
S11315408F7380831092EE0082E007C082E005C0B2
S113155082E003C082E001C081E0DF91CF91089571
S113156083E18093200182E080931F0184E08093D3
S11315701E0161E189E191E00E94670010923E0141
S1131580089583E18093200181E080931F0160E14D
S113159089E191E00E94670010924E0108950F9333
S11315A01F93CF93DF9300D0CDB7DEB710913901ED
S11315B000913D0102950F70113071F4BE016E5F10
S11315C07F4FCE0101960E940A0C898180931A01F3
S11315D08A81809319010BC0133021F485E580932F
S11315E0190105C0143019F486E6809319010061CD
S11315F00093200110921F0110931E016AE089E1FB
S113160091E00E946700109265010F900F90DF91A6
S1131610CF911F910F91089583E18093200110923F
S11316201F0182E080931E0180913F018093190184
S11316306AE089E191E00E94670010920801089530
S113164090917301E0917001F0E080812091770125
S113165020612093200122E020931F0126E02093A3
S11316601E0190931C018093190161E189E191E0CD
S11316700E94670010924501089580910301209112
S1131680000190917701E0910101F0E020839061E5
S11316909093200192E090931F0198E090931E0193
S11316A080931C0181E08093190161E189E191E05B
S11316B00E94670010922901089580913E018130B3
S11316C011F40E94B00A80914E01813011F40E94FD
S11316D0C10A80916501813011F40E94CF0A809182
S11316E00801813011F40E940C0B80914501813076
S11316F011F40E94200B80912901813011F40E9481
S11317003D0B0895813021F49BB189278BB908954D
S1131710823029F495B180E4892785B9089583300E
S113172021F498B181E0892788B90895CF93C82F0F
S11317300E94820B89E190E00E94500C8C2F0E9441
S1131740820B89E190E00E94500CCF910895E1E66C
S1131750F0E080E8808310828EEF84B981E187B95C
S113176018B889E08AB981E08BB91DB81EB80E9407
S1131770360C0E945D0080E00E948C030E94780277
S11317800E94D10B78940E94690D0E94010C81E0A3
S11317900E94820B0E941D020E94260E0E945D0B75
S11317A0F9CF85B78F7785BF83E58CBD08958EBD4E
S11317B00DB407FC04C089EE8150F1F708958AE066
S11317C00E94660C8EB5089581E090E00E943E0C64
S11317D00895CF935B988EBD0DB407FC06C0C9EE87
S11317E0C150F1F70E94E40B09C087E00E94660C27
S11317F00E94E40B8AE00E94660CCEB58C2FCF9138
S11318000895449A089581E090E00E943E0C089562
S1131810449808950F931F93CF93DF938C01EB01AA
S11318200E94080C1EBC80E890E00E94500C8EB50B
S1131830F801808380E890E00E94500C8EB5888384
S11318400E94010CDF91CF911F910F9108951F9277
S11318500F920FB60F9211248F9381E08093780139
S11318608F910F900FBE0F901F90189510926F00DC
S1131870109280008AE0809381000895109278018C
S113188010928500109284009093890080938800C0
S113189082E080936F00809178018823E1F30895BA
S11318A00F931F93CF93DF938C01009751F0C0E007
S11318B0D0E088EE93E00E943E0C2196C017D10739
S11318C0C1F7DF91CF911F910F910895882321F0E3
S11318D090E09F5F9813FDCF0895CF93C82F0E9487
S11318E0030C80E88C0F0E94D70B81E090E00E94EB
S11318F03E0C80E00E94D70BC82F0E94E40B81E0CD
S113190090E00E94500C8C2FCF910895CF93DF93D9
S1131910D82FC62F0E94030C8D2F0E94D70B81E075
S113192090E00E943E0C8C2F0E94D70B0E94E40B87
S113193081E090E00E94500CDF91CF910895CF9305
S1131940C82F0E94030C8FEA0E94D70B81E090E01D
S11319500E943E0C8C2F0E94D70B81E090E00E94E5
S11319603E0C80E00E94D70BC82F0E94E40B81E05C
S113197090E00E94500C8C2FCF910895CF930E9439
S1131980E90BC82F81E090E00E943E0C8C2FCF9190
S11319900895CF93DF93D82FC62F8DE30E94BE0CFA
S11319A00E94030C8FE20E94D70B81E090E00E941A
S11319B03E0C8D2F0E94D70B81E090E00E943E0CDC
S11319C08C2F0E94D70B0E94E40B81E090E00E94D0
S11319D0500CDF91CF910895CF93DF93EB018DE30A
S11319E00E94BE0C8F7782958F708883DF91CF9190
S11319F00895CF93C82F8DE30E94BE0C0E94030C60
S1131A008EEB0E94D70B81E090E00E943E0C8C2F5D
S1131A100E94D70B81E090E00E943E0C80E00E947F
S1131A20D70BC82F0E94E40B81E090E00E94500C79
S1131A308C2FCF9108951F93CF93DF93C82FD62F68
S1131A40142F0E946D0C11110CC0E1E0F0E0AF0105
S1131A5002C0440F551FDA95E2F74095682F6423BE
S1131A600AC041E050E09A0102C0220F331FDA9508
S1131A70E2F7682F622B8C2F0E94860CDF91CF91A6
S1131A801F9108951F93CF93DF93C82FD62F142F40
S1131A900E949F0C11110CC0E1E0F0E0AF0102C004
S1131AA0440F551FDA95E2F74095682F64230AC066
S1131AB041E050E09A0102C0220F331FDA95E2F7A9
S1131AC0682F622B8C2F0E94C90CDF91CF911F913C
S1131AD008950E94030C80E30E94BE0C8AE30E94D6
S1131AE0BE0C8BE30E94BE0C60E082E10E94C90C34
S1131AF06FE583E10E94C90C60E486E10E94C90C91
S1131B006EE087E10E94C90C63E089E10E94C90C80
S1131B1063E38BE10E94C90C67E18DE10E94C90C6B
S1131B2060E58FE10E94C90C64E181E20E94C90C66
S1131B306CEA82E20E94C90C8DE30E94BE0C6BE049
S1131B4088E00E94860C6DE083E10E94860C64E0CC
S1131B5086E20E94860C6BE088E00E94860C6CE1B1
S1131B608CE00E94860C60E080E10E94860C64E0B8
S1131B7081E10E94860C65E083E10E94860C69EA9B
S1131B808CE10E94860C6FEC8DE10E94860C60E073
S1131B908EE10E94860C63E080E20E94860C60E085
S1131BA08EE20E94860C60E080E00E94C90C68E42A
S1131BB08AE00E94860C65E08BE00E94860C64E05B
S1131BC081E20E94860C60E08DE00E94860C40E079
S1131BD065E08EE00E941B0D40E067E082E00E9419
S1131BE0420D40E066E082E00E94420D40E066E083
S1131BF088E00E941B0D67E189E00E94860C60E08A
S1131C0086E20E94860C6FEF8EE20E94860C8DE3C2
S1131C100E94BE0C6CE68CE00E94C90C60E88DE06A
S1131C200E94C90C83E30E94BE0C8AEF90E00E94DC
S1131C30500C87E30E94BE0C8AEF90E00E94500C87
S1131C401092080184E30E94BE0C0895CF93DF93A1
S1131C5000D0CDB7DEB7BE016E5F7F4FCE010196D7
S1131C600E94EC0C8A818650823080F586E30E94C3
S1131C70BE0C83E00E94960B8DE30E94BE0C80E8AC
S1131C800E94F90C80933F0181E80E94F90C809333
S1131C90400182E80E94F90C8093410183E80E948C
S1131CA0F90C8093420184E80E94F90C809343016B
S1131CB085E80E94F90C8093440181E08093080137
S1131CC08AE30E94BE0C84E30E94BE0C0F900F9026
S1131CD0DF91CF910895EE0FFF1F0590F491E02D51
S1091CE00994F894FFCF03
S9030000FC
