:100000000C9449000C945B000C945B000C945B0016
:100010000C945B000C945B000C945B000C945B00F4
:100020000C945B000C945B000C945B000C945B00E4
:100030000C94020A0C945B000C945B000C945B0023
:100040000C945B000C945B000C945B000C945B00C4
:100050000C945B000C945B000C945B000C945B00B4
:100060000C945B000C945B000C945B000C945B00A4
:100070000C945B000C945B000C945B0007019901ED
:1000800023029702D7025303D0036D041305010125
:100090001C0611241FBECFEFD8E0DEBFCDBF21E08C
:1000A000A0E0B1E001C01D92AD33B207E1F70E94BC
:1000B000DE070C94470A0C94000082EE80937A00CD
:1000C00080EA80937B000895E8E7F0E02081DC017E
:1000D0002C93218111962C93089580E0ADEEB0E031
:1000E0003EEE20E0982F9295907F9C93E32FF22F85
:1000F0001192E83FF105E1F78F5F863099F7089597
:100100008091EF00807C61F08091EE00982F907ECE
:10011000282F2076203231F0903431F08F710895FD
:100120008FEF0895892F0895892F0895FC0180E0AD
:10013000AAEFB0E09C9191938F5F8830D9F7089532
:1001400081E08093D80082E08093E2008CE080938D
:10015000E30087E38093E40081E008950E94A0001B
:10016000882349F00E946D00E8EDF0E08081826014
:10017000808381E0089580E00895CF93DF931F92FC
:10018000CDB7DEB7DC0111968C9111978C30B1F4AC
:1001900019968C911997803669F4862F8295807F05
:1001A0008093ED00EFEEF0E080818F7380831092FA
:1001B000EE006C9319961C9280E007C6862F8295FC
:1001C000807F8093ED008091EF00807C09F0F9C57D
:1001D00080E619968C9319976C93EEEEF0E01192ED
:1001E000E83FF105E1F711964C91119750E0FA01C3
:1001F0003197EB30F10508F0E0C5E25CFF4F0C945D
:10020000410A16968C9116978111B7C4C8C41B96E3
:100210008C911B978823D9F114969C9114979295F1
:100220009695977015968C911597880F880F880F63
:10023000890F8093F30013969C911397929596954E
:10024000977014968C911497880F880F880F890FD8
:100250008093F20012969C911297929596959770C2
:1002600013968C911397880F880F880F890F8093AE
:10027000F10012968C911297880F880F880F809347
:10028000F000EFEEF0E08081806180831CC0129668
:100290008C91129786958695869513969C911397C7
:1002A00020E2929F800D11248093F30012968C918E
:1002B00012978295880F807E8093F200EFEEF0E037
:1002C00080818F7E808316968C911697882391F07B
:1002D00020E08AEF90E01796ED91FC911897E20FDD
:1002E000F11D3081FC0130832F5F16963C911697EB
:1002F000231788F31A968C911A97882331F0E0EF30
:10030000F0E080818460808305C0E0EFF0E08081D0
:100310008B7F8083EFEEF0E0908116968C91892B95
:10032000808380818F73808380818064808380E07C
:100330004CC51B968C911B978823D9F114969C91E0
:10034000149792959695977015968C911597880F9E
:10035000880F880F890F8093F30013969C91139751
:1003600092959695977014968C911497880F880F94
:10037000880F890F8093F20012969C9112979295A4
:100380009695977013968C911397880F880F880F06
:10039000890F8093F10012968C911297880F880F25
:1003A000880F8093F000EFEEF0E080818061808321
:1003B0001CC012968C9112978695869586951396F9
:1003C0009C911397F0E29F9F800D11248093F3007E
:1003D00012968C9112978295880F807E8093F200FE
:1003E000EFEEF0E080818F7E808316968C911697D9
:1003F000882391F020E08AEF90E01796ED91FC9130
:100400001897E20FF11D3081FC0130832F5F1696A3
:100410003C911697231788F31A961C921A97E0EFCF
:10042000F0E080818B7F8083EFEEF0E09081169684
:100430008C91892B808380818F73808380818064FD
:10044000808380E0C2C41B968C911B978823D9F1CE
:1004500014969C91149792959695977015968C91F9
:100460001597880F880F880F890F8093F3001396D4
:100470009C91139792959695977014968C911497DA
:10048000880F880F880F890F8093F20012969C9135
:10049000129792959695977013968C911397880F53
:1004A000880F880F890F8093F10012968C91129714
:1004B000880F880F880F8093F000EFEEF0E08081C6
:1004C000806180831CC012968C91129786958695C8
:1004D000869513969C911397F0E29F9F800D1124AF
:1004E0008093F30012968C9112978295880F807EEC
:1004F0008093F200EFEEF0E080818F7E808381E0D8
:100500001A968C931A97E0EFF0E0808184608083E4
:10051000EFEEF0E0908116968C91892B808380819C
:100520008F73808380818064808380E04EC41982D1
:100530009B819295969597708C81880F880F880F74
:10054000890F8093F7009A819295969597708B8189
:10055000880F880F880F890F8093F60099819295F4
:10056000969597708A81880F880F880F890F8093DE
:10057000F5002981220F220F220F84EF90E0FC0169
:100580002083EFEEF0E0308116962C91232B208310
:10059000DC012C912B7F2C932C912E7F2C9380812E
:1005A0008F73808380818068808380E00EC48FEFAA
:1005B00089838A818295880F807E815E27EF30E073
:1005C000F901808349814295440F407E86EF90E097
:1005D000FC01408312964C9112974695469546959C
:1005E00013965C911397F0E25F9F400D11244093A6
:1005F000F30012964C9112974295440F407E40931F
:10060000F2006FEE70E0FB0140814F7E4083198263
:100610005B815295569557704C81440F440F440F9F
:10062000450FF90140833A813295369537702B8119
:10063000220F220F220F230FFC0120839981929514
:10064000969597708A81880F880F880F890F8093FD
:10065000F5002981220F220F220F84EF90E0FC0188
:100660002083FB01308116962C911697232B208333
:100670001A961C92DC012C9124602C93A0EFB0E020
:100680002C912B7F2C9320812F7E2083FC012081B5
:100690002E7F2083DB018C918F738C938C918068EB
:1006A0008C9380E092C38FEF89838A818295880F33
:1006B000807E815E27EF30E0F90180834981429599
:1006C000440F407E86EF90E0FC01408312964C91EF
:1006D000129746954695469513965C911397F0E2CE
:1006E0005F9F400D11244093F30012964C91129796
:1006F0004295440F407E4093F2006FEE70E0FB01A4
:1007000040814F7E408319825B8152955695577088
:100710004C81440F440F440F450FF90140833A8147
:100720003295369537702B81220F220F220F230F1F
:10073000FC01208399819295969597708A81880F04
:10074000880F880F890F8093F5002981220F220FCF
:10075000220F84EF90E0FC012083FB01308116968C
:100760002C911697232B208321E01A962C93DC01E1
:100770002C9124602C93A0EFB0E02C9124602C935A
:1007800020812F7D2083FC0120812E7F2083DB01AF
:100790008C918F738C938C9180688C9380E015C3BF
:1007A0001B968C911B978823D9F114969C911497D2
:1007B00092959695977015968C911597880F880F3E
:1007C000880F890F8093F30013969C91139792954D
:1007D0009695977014968C911497880F880F880FB0
:1007E000890F8093F20012969C911297929596959C
:1007F000977013968C911397880F880F880F890F25
:100800008093F10012968C911297880F880F880FB1
:100810008093F000EFEEF0E08081806180831CC067
:1008200012968C91129786958695869513969C9133
:100830001397E0E29E9F800D11248093F30012969F
:100840008C9112978295880F807E8093F200EFEE54
:10085000F0E080818F7E80838FEF89839B819295EA
:10086000969597708C81880F880F880F890F8093D9
:10087000F7009A819295969597708B81880F880FD3
:10088000880F890F8093F6009981929596959770BD
:100890008A81880F880F880F890F8093F50029813E
:1008A000220F220F220F84EF90E0FC012083EFEE55
:1008B000F0E0308116962C91232B2083DC012C91C3
:1008C0002B7F2C932C9121602C9380818F738083BC
:1008D00080818068808380E078C21B968C911B9712
:1008E0008823D9F114969C911497929596959770B8
:1008F00015968C911597880F880F880F890F809314
:10090000F30013969C911397929596959770149671
:100910008C911497880F880F880F890F8093F200AD
:1009200012969C91129792959695977013968C912A
:100930001397880F880F880F890F8093F100129604
:100940008C911297880F880F880F8093F000EFEE3C
:10095000F0E08081806180831CC012968C91129798
:1009600086958695869513969C911397E0E29E9FB7
:10097000800D11248093F30012968C91129782952A
:10098000880F807E8093F200EFEEF0E080818F7E12
:1009900080838FEF89839B819295969597708C8148
:1009A000880F880F880F890F8093F7009A8192959E
:1009B000969597708B81880F880F880F890F809389
:1009C000F60099819295969597708A81880F880F85
:1009D000880F890F8093F5002981220F220F220FA3
:1009E00084EF90E0FC012083EFEEF0E0308116967A
:1009F0002C911697232B20831A961C92DC012C91A4
:100A000024602C93A0EFB0E02C912B7F2C93DC0181
:100A10002C9121602C9380818F73808380818068EA
:100A2000808380E0D2C11B968C911B978823D9F1DB
:100A300014969C91149792959695977015968C9113
:100A40001597880F880F880F890F8093F3001396EE
:100A50009C91139792959695977014968C911497F4
:100A6000880F880F880F890F8093F20012969C914F
:100A7000129792959695977013968C911397880F6D
:100A8000880F880F890F8093F10012968C9112972E
:100A9000880F880F880F8093F000EFEEF0E08081E0
:100AA000806180831CC012968C91129786958695E2
:100AB000869513969C911397E0E29E9F800D1124DA
:100AC0008093F30012968C9112978295880F807E06
:100AD0008093F200EFEEF0E080818F7E80838FEFD5
:100AE00089839B819295969597708C81880F880F4A
:100AF000880F890F8093F7009A8192959695977049
:100B00008B81880F880F880F890F8093F600998159
:100B10009295969597708A81880F880F880F890F14
:100B20008093F5002981220F220F220F84EF90E09D
:100B3000FC012083EFEEF0E0308116962C911697A1
:100B4000232B208321E01A962C93DC012C91246026
:100B50002C93A0EFB0E02C9124602C9320812F7D6A
:100B60002083DC012C9121602C9380818F73808302
:100B700080818068808380E028C120E08AEF90E057
:100B80001796ED91FC911897E20FF11D3081FC0151
:100B900030832F5F16963C911697231788F319829E
:100BA0009B819295969597708C81880F880F880FFE
:100BB000890F8093F7009A819295969597708B8113
:100BC000880F880F880F890F8093F600998192957E
:100BD000969597708A81880F880F880F890F809368
:100BE000F5002981220F220F220F84EF90E0FC01F3
:100BF0002083EFEEF0E0308116962C911697232B90
:100C0000208321E01A962C93DC012C9124602C93F4
:100C1000A0EFB0E02C9124602C93208120622083EF
:100C2000DC012C912E7F2C9380818F7380838081B7
:100C30008068808380E0C9C01B968C911B978823B5
:100C4000D9F114969C911497929596959770159654
:100C50008C911597880F880F880F890F8093F30068
:100C600013969C91139792959695977014968C91E4
:100C70001497880F880F880F890F8093F2001296BF
:100C80009C91129792959695977013968C911397C5
:100C9000880F880F880F890F8093F10012968C912E
:100CA0001297880F880F880F8093F000EFEEF0E026
:100CB0008081806180831CC012968C9112978695EA
:100CC0008695869513969C911397E0E29E9F800DE2
:100CD00011248093F30012968C9112978295880FBD
:100CE000807E8093F200EFEEF0E080818F7E808343
:100CF00016968C911697882391F020E08AEF90E069
:100D00001796ED91FC911897E20FF11D3081FC01CF
:100D100030832F5F16963C911697231788F38FEF39
:100D200089839B819295969597708C81880F880F07
:100D3000880F890F8093F7009A8192959695977006
:100D40008B81880F880F880F890F8093F600998117
:100D50009295969597708A81880F880F880F890FD2
:100D60008093F5002981220F220F220F84EF90E05B
:100D7000FC012083EFEEF0E0308116962C9116975F
:100D8000232B208321E01A962C93DC012C912460E4
:100D90002C93A0EFB0E02C9124602C932081206252
:100DA0002083DC012C9121602C9380818F738083C0
:100DB00080818068808380E008C019961C9280E062
:100DC00004C08FE119968C938FEF0F90DF91CF9134
:100DD0000895CF93DF93EC018985882309F4E1C05E
:100DE0008F3109F4E0C08F3F09F4DFC06295607F66
:100DF0006093ED000E948000803261F020F488232F
:100E000009F4D5C0C4C0803409F4B6C0803A09F4EE
:100E10005AC0BDC081E090E00E94DB0784EF91E002
:100E20000E942B0A80E090E00E94DB078091F00096
:100E300082FB882780F98A878091EF0084FF2DC08C
:100E400081E08B87E3EFF0E080818695869586953B
:100E50008D83A2EFB0E08C919081869586958695E2
:100E600020E2929F800D11248C83E1EFF0E08081DD
:100E70009C9186958695869520E2929F800D1124FF
:100E80008B838091F000908186958695869520E2EF
:100E9000929F800D11248A8307C01B86E3EFF0E048
:100EA00080818091F200808180E289878F8198859E
:100EB0000E949600EFEEF0E080818F7380831092A5
:100EC000EE0080E275C08091F00082FB882780F9F7
:100ED0008A878091EF0084FF2DC081E08B87E3EF4C
:100EE000F0E080818695869586958D83A2EFB0E0AF
:100EF0008C91908186958695869520E2929F800DB3
:100F000011248C83E1EFF0E080819C918695869599
:100F1000869520E2929F800D11248B838091F000B2
:100F2000908186958695869520E2929F800D11246A
:100F30008A8313C01B86E3EFF0E08081829586955B
:100F400087708B838091F2009081990F990F990F90
:100F5000829586958770890F8A8380EA89878F8139
:100F600098850E949600EFEEF0E080818F73808379
:100F70001092EE0080EA1CC080E48987EFEEF0E07A
:100F800080818F7380831092EE0080E411C0898786
:100F9000EFEEF0E080818F7380831092EE0082E0AC
:100FA00007C082E005C082E003C082E001C081E0AA
:100FB000DF91CF910895809585B90895CF93DF9300
:100FC000CDB7DEB763970FB6F894DEBF0FBECDBFC7
:100FD000E1E6F0E080E8808310828FEF84B980E062
:100FE0000E94DB0717B818B81AB81BB81DB81BB891
:100FF0000E94110A80E00E94AE000E945D00789479
:1010000081E00E94DB078AEF90E00E942B0A80E0DB
:101010000E94DB078E010F5F1F4F7E0189E0E80E03
:10102000F11CF8011192EE15FF05E1F784E291E061
:10103000909308018093070110920B0184E190E0E6
:10104000909303018093020185E08093010188E081
:101050008093060160E080E091E00E94BD00811174
:10106000F9CF85E391E090930801809307011092F6
:101070000B0189E190E0909303018093020185E0E8
:101080008093010188E08093060165E080E091E0B3
:101090000E94BD008111F9CF1B861A8619860F2E7A
:1010A000F7E0AF2EF1E0BF2EF02DA4E2B1E0AE8765
:1010B000BF870F2EFBE08F2EF1E09F2EF02D0F2E1D
:1010C000F2E0CF2EF1E0DF2EF02DF4E1F88B198A5B
:1010D0000F2EF1E06F2EF1E07F2EF02D0F2EF5E0B8
:1010E0003F2EF02D3C860F2EF6E04F2EF1E05F2EC6
:1010F000F02D6894222423F82D860A8B1B8B04E2A2
:1011000011E001C01B86EE85D501EC93FF85119699
:10111000FC93D4011C928889F6018083998991837C
:10112000EC85D301EC93ED85D201EC9360E080E097
:1011300091E00E94E906813009F476C0A9E0B1E0AF
:101140008C91803209F05AC0F501A081B181EA8901
:10115000FB898D918193EE16FF06D9F789818F3F28
:1011600021F58A818F3F09F043C08B818F3F09F0C1
:101170003FC08C818F3FE1F58D818F3FC9F58E8116
:101180008F3FB1F58F818F3F99F588858F3F81F52E
:1011900084E00E94DB0784EF91E00E942B0A80E04C
:1011A0000E94DB07F1E0F98723C0853509F58A81C4
:1011B0008535F1F48B818535D9F48C818535C1F481
:1011C0008D818535A9F48E81853591F48F818535A2
:1011D00079F48885853561F480E80E94DB0784EF27
:1011E00091E00E942B0A80E00E94DB0781E08B8760
:1011F000EA89FB891192EE16FF06E1F7E4E2F1E0DD
:10120000D501ED93FC93D4011C9284E1F601808317
:101210001182D3013C92F201208260E080E091E0F3
:101220000E94BD008111F9CFE5E3F1E0D501ED9316
:10123000FC93D4011C9289E190E0F60191838083B4
:10124000D3013C92F2012082632D80E091E00E9464
:10125000E906813009F450C0A9E0B1E08C918032F8
:10126000A1F5F501A081B181EA89FB898D91819376
:10127000EE16FF06D9F789818F3009F58A818F3004
:10128000F1F48B818F30D9F48C818F30C1F48D8152
:101290008F30A9F48E818F3091F48F818F3079F463
:1012A00088858F3061F4822D0E94DB0784EF91E006
:1012B0000E942B0A80E00E94DB07F1E0FA87EA89AE
:1012C000FB891192EE16FF06E1F7E5E3F1E0D501A7
:1012D000ED93FC93D4011C9289E190E0F601918397
:1012E0008083D3013C92F2012082632D80E091E063
:1012F0000E94BD008111F9CFF985F13039F5ECE19B
:10130000F1E0D501ED93FC93D4011C928AE090E0CA
:10131000F6019183808382E0D3018C93F2012082D5
:10132000ECE1F1E08BEA8193E017F107E1F764E08B
:1013300080E091E00E94BD008111F9CF64E080E07F
:1013400091E00E94E9068130C9F31986FA85F130EF
:1013500039F5ECE1F1E0D501ED93FC93D4011C9259
:101360008AE090E0F6019183808382E0D3018C9340
:10137000F2012082ECE1F1E080EF8193E017F107C8
:10138000E1F764E080E091E00E94BD008111F9CFB7
:1013900064E080E091E00E94E9068130C9F31A869A
:1013A000FB85F13009F0AFCEECE1F1E0D501ED9332
:1013B000FC93D4011C928AE090E0F6019183808333
:1013C00082E0D3018C93F2012082ECE1F1E01192F2
:1013D000E017F107E1F78CE191E00E94640085E5F8
:1013E000AFE1B1E08C9364E080E091E00E94BD0049
:1013F0008111F9CF64E080E091E00E94E90681303C
:10140000C9F380CE1F920F920FB60F9211248F93C3
:1014100081E080932C018F910F900FBE0F901F9051
:10142000189510926F00109280008AE080938100DE
:10143000089510922C0110928500109284009093D0
:1014400089008093880082E080936F0080912C0156
:101450008823E1F308950F931F93CF93DF938C01BB
:10146000009751F0C0E0D0E088EE93E00E94190AA6
:101470002196C017D107C1F7DF91CF911F910F912E
:101480000895EE0FFF1F0590F491E02D0994F89454
:02149000FFCF8C
:00000001FF
