S019000053756273797374656D5F50726F6772616D2E7372656305
S11300000C9449000C945B000C945B000C945B0012
S11300100C945B000C945B000C945B000C945B00F0
S11300200C945B000C945B000C945B000C945B00E0
S11300300C9487080C945B000C945B000C945B009C
S11300400C945B000C945B000C945B000C945B00C0
S11300500C945B000C945B000C945B000C945B00B0
S11300600C945B000C945B000C945B000C945B00A0
S11300700C945B000C945B000C945B00F70089010A
S113008013028702C702430390032D04D304F10033
S1130090DC0511241FBECFEFD8E0DEBFCDBF21E0C9
S11300A0A0E0B1E001C01D92AD33B207E1F70E94B8
S11300B09E070C94CC080C94000080E0ADEEB0E0F8
S11300C03EEE20E0982F9295907F9C93E32FF22FA1
S11300D01192E83FF105E1F78F5F863099F70895B3
S11300E08091EF00807C61F08091EE00982F907EEB
S11300F0282F2076203231F0903431F08F7108951A
S11301008FEF0895892F0895892F0895FC0180E0C9
S1130110AAEFB0E09C9191938F5F8830D9F708954E
S113012081E08093D80082E08093E2008CE08093A9
S1130130E30087E38093E40081E008950E94900047
S1130140882349F00E945D00E8EDF0E08081826040
S1130150808381E0089580E00895CF93DF931F9218
S1130160CDB7DEB7DC0111968C9111978C30B1F4C8
S113017019968C911997803669F4862F8295807F21
S11301808093ED00EFEEF0E080818F738083109216
S1130190EE006C9319961C9280E0D7C5862F829549
S11301A0807F8093ED008091EF00807C09F0C9C5C9
S11301B080E619968C9319976C93EEEEF0E0119209
S11301C0E83FF105E1F711964C91119750E0FA01DF
S11301D03197EB30F10508F0B0C5E25CFF4F0C94A9
S11301E0C60816968C911697811187C498C41B96DD
S11301F08C911B978823D9F114969C91149792950E
S11302009695977015968C911597880F880F880F7F
S1130210890F8093F30013969C911397929596956A
S1130220977014968C911497880F880F880F890FF4
S11302308093F20012969C911297929596959770DE
S113024013968C911397880F880F880F890F8093CA
S1130250F10012968C911297880F880F880F809363
S1130260F000EFEEF0E08081806180831CC0129684
S11302708C91129786958695869513969C911397E3
S113028020E2929F800D11248093F30012968C91AA
S113029012978295880F807E8093F200EFEEF0E053
S11302A080818F7E808316968C911697882391F097
S11302B020E08AEF90E01796ED91FC911897E20FF9
S11302C0F11D3081FC0130832F5F16963C91169707
S11302D0231788F31A968C911A97882331F0E0EF4C
S11302E0F0E080818460808305C0E0EFF0E08081ED
S11302F08B7F8083EFEEF0E0908116968C91892BB2
S1130300808380818F73808380818064808380E098
S11303101CC51B968C911B978823D9F114969C912C
S1130320149792959695977015968C911597880FBA
S1130330880F880F890F8093F30013969C9113976D
S113034092959695977014968C911497880F880FB0
S1130350880F890F8093F20012969C9112979295C0
S11303609695977013968C911397880F880F880F22
S1130370890F8093F10012968C911297880F880F41
S1130380880F8093F000EFEEF0E08081806180833D
S11303901CC012968C911297869586958695139615
S11303A09C911397F0E29F9F800D11248093F3009A
S11303B012968C9112978295880F807E8093F2001A
S11303C0EFEEF0E080818F7E808316968C911697F5
S11303D0882391F020E08AEF90E01796ED91FC914C
S11303E01897E20FF11D3081FC0130832F5F1696C0
S11303F03C911697231788F31A961C921A97E0EFEC
S1130400F0E080818B7F8083EFEEF0E090811696A0
S11304108C91892B808380818F7380838081806419
S1130420808380E092C41B968C911B978823D9F11A
S113043014969C91149792959695977015968C9115
S11304401597880F880F880F890F8093F3001396F0
S11304509C91139792959695977014968C911497F6
S1130460880F880F880F890F8093F20012969C9151
S1130470129792959695977013968C911397880F6F
S1130480880F880F890F8093F10012968C91129730
S1130490880F880F880F8093F000EFEEF0E08081E2
S11304A0806180831CC012968C91129786958695E4
S11304B0869513969C911397F0E29F9F800D1124CB
S11304C08093F30012968C9112978295880F807E08
S11304D08093F200EFEEF0E080818F7E808381E0F4
S11304E01A968C931A97E0EFF0E080818460808301
S11304F0EFEEF0E0908116968C91892B80838081B9
S11305008F73808380818064808380E01EC419821D
S11305109B819295969597708C81880F880F880F90
S1130520890F8093F7009A819295969597708B81A5
S1130530880F880F880F890F8093F6009981929510
S1130540969597708A81880F880F880F890F8093FA
S1130550F5002981220F220F220F84EF90E0FC0185
S11305602083EFEEF0E0308116962C91232B20832C
S1130570DC012C912B7F2C932C912E7F2C9380814A
S11305808F73808380818068808380E0DEC38FEFF7
S113059089838A818295880F807E815E27EF30E08F
S11305A0F901808349814295440F407E86EF90E0B3
S11305B0FC01408312964C911297469546954695B8
S11305C013965C911397F0E25F9F400D11244093C2
S11305D0F30012964C9112974295440F407E40933B
S11305E0F2006FEE70E0FB0140814F7E4083198280
S11305F05B815295569557704C81440F440F440FBC
S1130600450FF90140833A813295369537702B8135
S1130610220F220F220F230FFC0120839981929530
S1130620969597708A81880F880F880F890F809319
S1130630F5002981220F220F220F84EF90E0FC01A4
S11306402083FB01308116962C911697232B20834F
S11306501A961C92DC012C9124602C93A0EFB0E03C
S11306602C912B7F2C9320812F7E2083FC012081D1
S11306702E7F2083DB018C918F738C938C91806807
S11306808C9380E062C319829B81929596959770B2
S11306908C81880F880F880F890F8093F7009A81C7
S11306A09295969597708B81880F880F880F890F84
S11306B08093F60099819295969597708A81880F18
S11306C0880F880F890F8093F5002981220F220F4C
S11306D0220F84EF90E0FC012083EFEEF0E0308104
S11306E016962C911697232B208321E01A962C938F
S11306F0DC012C9124602C93A0EFB0E02C912460B9
S11307002C9320812F7D2083DC012C912E7F2C9330
S113071080818F73808380818068808380E015C3AB
S11307201B968C911B978823D9F114969C9114974E
S113073092959695977015968C911597880F880FBA
S1130740880F890F8093F30013969C9113979295C9
S11307509695977014968C911497880F880F880F2C
S1130760890F8093F20012969C9112979295969518
S1130770977013968C911397880F880F880F890FA1
S11307808093F10012968C911297880F880F880F2E
S11307908093F000EFEEF0E08081806180831CC0E4
S11307A012968C91129786958695869513969C91B0
S11307B01397E0E29E9F800D11248093F30012961C
S11307C08C9112978295880F807E8093F200EFEED1
S11307D0F0E080818F7E80838FEF89839B81929567
S11307E0969597708C81880F880F880F890F809356
S11307F0F7009A819295969597708B81880F880F50
S1130800880F890F8093F600998192959695977039
S11308108A81880F880F880F890F8093F5002981BA
S1130820220F220F220F84EF90E0FC012083EFEED1
S1130830F0E0308116962C91232B2083DC012C913F
S11308402B7F2C932C9121602C9380818F73808338
S113085080818068808380E078C21B968C911B978E
S11308608823D9F114969C91149792959695977034
S113087015968C911597880F880F880F890F809390
S1130880F30013969C9113979295969597701496EE
S11308908C911497880F880F880F890F8093F2002A
S11308A012969C91129792959695977013968C91A7
S11308B01397880F880F880F890F8093F100129681
S11308C08C911297880F880F880F8093F000EFEEB9
S11308D0F0E08081806180831CC012968C91129715
S11308E086958695869513969C911397E0E29E9F34
S11308F0800D11248093F30012968C9112978295A7
S1130900880F807E8093F200EFEEF0E080818F7E8E
S113091080838FEF89839B819295969597708C81C4
S1130920880F880F880F890F8093F7009A8192951A
S1130930969597708B81880F880F880F890F809305
S1130940F60099819295969597708A81880F880F01
S1130950880F890F8093F5002981220F220F220F1F
S113096084EF90E0FC012083EFEEF0E030811696F6
S11309702C911697232B20831A961C92DC012C9120
S113098024602C93A0EFB0E02C912B7F2C93DC01FE
S11309902C9121602C9380818F7380838081806867
S11309A0808380E0D2C11B968C911B978823D9F158
S11309B014969C91149792959695977015968C9190
S11309C01597880F880F880F890F8093F30013966B
S11309D09C91139792959695977014968C91149771
S11309E0880F880F880F890F8093F20012969C91CC
S11309F0129792959695977013968C911397880FEA
S1130A00880F880F890F8093F10012968C911297AA
S1130A10880F880F880F8093F000EFEEF0E080815C
S1130A20806180831CC012968C911297869586955E
S1130A30869513969C911397E0E29E9F800D112456
S1130A408093F30012968C9112978295880F807E82
S1130A508093F200EFEEF0E080818F7E80838FEF51
S1130A6089839B819295969597708C81880F880FC6
S1130A70880F890F8093F7009A81929596959770C5
S1130A808B81880F880F880F890F8093F6009981D6
S1130A909295969597708A81880F880F880F890F91
S1130AA08093F5002981220F220F220F84EF90E01A
S1130AB0FC012083EFEEF0E0308116962C9116971E
S1130AC0232B208321E01A962C93DC012C912460A3
S1130AD02C93A0EFB0E02C9124602C9320812F7DE7
S1130AE02083DC012C9121602C9380818F7380837F
S1130AF080818068808380E028C120E08AEF90E0D4
S1130B001796ED91FC911897E20FF11D3081FC01CD
S1130B1030832F5F16963C911697231788F319821A
S1130B209B819295969597708C81880F880F880F7A
S1130B30890F8093F7009A819295969597708B818F
S1130B40880F880F880F890F8093F60099819295FA
S1130B50969597708A81880F880F880F890F8093E4
S1130B60F5002981220F220F220F84EF90E0FC016F
S1130B702083EFEEF0E0308116962C911697232B0C
S1130B80208321E01A962C93DC012C9124602C9371
S1130B90A0EFB0E02C9124602C932081206220836C
S1130BA0DC012C912E7F2C9380818F738083808134
S1130BB08068808380E0C9C01B968C911B97882332
S1130BC0D9F114969C9114979295969597701596D1
S1130BD08C911597880F880F880F890F8093F300E5
S1130BE013969C91139792959695977014968C9161
S1130BF01497880F880F880F890F8093F20012963C
S1130C009C91129792959695977013968C91139741
S1130C10880F880F880F890F8093F10012968C91AA
S1130C201297880F880F880F8093F000EFEEF0E0A2
S1130C308081806180831CC012968C911297869566
S1130C408695869513969C911397E0E29E9F800D5E
S1130C5011248093F30012968C9112978295880F39
S1130C60807E8093F200EFEEF0E080818F7E8083BF
S1130C7016968C911697882391F020E08AEF90E0E5
S1130C801796ED91FC911897E20FF11D3081FC014C
S1130C9030832F5F16963C911697231788F38FEFB6
S1130CA089839B819295969597708C81880F880F84
S1130CB0880F890F8093F7009A8192959695977083
S1130CC08B81880F880F880F890F8093F600998194
S1130CD09295969597708A81880F880F880F890F4F
S1130CE08093F5002981220F220F220F84EF90E0D8
S1130CF0FC012083EFEEF0E0308116962C911697DC
S1130D00232B208321E01A962C93DC012C91246060
S1130D102C93A0EFB0E02C9124602C9320812062CE
S1130D202083DC012C9121602C9380818F7380833C
S1130D3080818068808380E008C019961C9280E0DE
S1130D4004C08FE119968C938FEF0F90DF91CF91B0
S1130D500895CF93DF93EC018985882309F4E1C0DA
S1130D608F3109F4E0C08F3F09F4DFC06295607FE2
S1130D706093ED000E947000803261F020F48823BB
S1130D8009F4D5C0C4C0803409F4B6C0803A09F46B
S1130D905AC0BDC081E090E00E949B0784EF91E0BF
S1130DA00E94B00880E090E00E949B078091F000D0
S1130DB082FB882780F98A878091EF0084FF2DC009
S1130DC081E08B87E3EFF0E08081869586958695B8
S1130DD08D83A2EFB0E08C9190818695869586955F
S1130DE020E2929F800D11248C83E1EFF0E080815A
S1130DF09C9186958695869520E2929F800D11247C
S1130E008B838091F000908186958695869520E26B
S1130E10929F800D11248A8307C01B86E3EFF0E0C4
S1130E2080818091F200808180E289878F8198851A
S1130E300E948600EFEEF0E080818F738083109231
S1130E40EE0080E275C08091F00082FB882780F973
S1130E508A878091EF0084FF2DC081E08B87E3EFC8
S1130E60F0E080818695869586958D83A2EFB0E02B
S1130E708C91908186958695869520E2929F800D2F
S1130E8011248C83E1EFF0E080819C918695869516
S1130E90869520E2929F800D11248B838091F0002F
S1130EA0908186958695869520E2929F800D1124E7
S1130EB08A8313C01B86E3EFF0E0808182958695D8
S1130EC087708B838091F2009081990F990F990F0D
S1130ED0829586958770890F8A8380EA89878F81B6
S1130EE098850E948600EFEEF0E080818F73808306
S1130EF01092EE0080EA1CC080E48987EFEEF0E0F7
S1130F0080818F7380831092EE0080E411C0898702
S1130F10EFEEF0E080818F7380831092EE0082E028
S1130F2007C082E005C082E003C082E001C081E026
S1130F30DF91CF910895809585B90895CF93DF937C
S1130F40CDB7DEB728970FB6F894DEBF0FBECDBF7E
S1130F50E1E6F0E080E8808310828FEF84B980E0DE
S1130F600E949B0717B818B81AB81BB81DB81BB84D
S1130F700E94960880E00E949E00789481E00E947E
S1130F809B078AEF90E00E94B00880E00E949B07D4
S1130F9080E007E011E00F2EF4E28F2EF1E09F2EA7
S1130FA0F02D0F2EFBE0CF2EF1E0DF2EF02D0F2ED3
S1130FB0F2E0EF2EF1E0FF2EF02D0F2EF4E1AF2E34
S1130FC0B12CF02D0F2EF1E06F2EF1E07F2EF02DDD
S1130FD00F2EF6E04F2EF1E05F2EF02D0F2EF9E0EC
S1130FE02F2EF1E03F2EF02D0AC0E1E0F0E0EC0FEF
S1130FF0FD1FE80FF11D10828F5F01C080E0883073
S1131000A0F3D80111969C928E92F6011082D7011A
S11310101196BC92AE9285E0F301808388E0D20100
S11310208C9360E080E091E00E94AD008111F9CFE3
S113103060E080E091E00E94A9068130C9F3F101EB
S113104080818F77803209F060C0FE01319680E0A4
S113105090E0D8012D913C91D901A80FB91F2C9192
S11310602193019688309105A1F789818F3F09F07A
S11310704CC08A818F3F09F048C08B818F3F09F0B3
S113108044C08C818F3F09F040C08D818F3FE9F5CA
S11310908E818F3FD1F58F818F3FB9F588858F3F42
S11310A0A1F584E00E949B0784EF91E00E94B008C0
S11310B080E00E949B078CE191E0F801918380839A
S11310C0D6011C928AE090E0F7019183808382E04C
S11310D0D3018C9388E0F2018083ECE1F1E084E2B7
S11310E091E02BEA2193E817F907E1F764E080E047
S11310F091E00E94AD008111F9CF64E080E091E0BD
S11311000E94A9068130C9F379CF80E078CF1F927D
S11311100F920FB60F9211248F9381E080932C01CC
S11311208F910F900FBE0F901F90189510926F0023
S1131130109280008AE080938100089510922C011F
S11311401092850010928400909389008093880007
S113115082E080936F0080912C018823E1F308954D
S11311600F931F93CF93DF938C01009751F0C0E04E
S1131170D0E088EE93E00E949E082196C017D10724
S1131180C1F7DF91CF911F910F910895EE0FFF1FCB
S10F11900590F491E02D0994F894FFCF31
S9030000FC
