:100000000C9449000C945B000C945B000C945B0016
:100010000C945B000C945B000C945B000C945B00F4
:100020000C945B000C945B000C945B000C945B00E4
:100030000C94340A0C945B000C945B000C945B00F1
:100040000C945B000C945B000C945B000C945B00C4
:100050000C945B000C945B000C945B000C945B00B4
:100060000C945B000C945B000C945B000C945B00A4
:100070000C945B000C945B000C945B00CE0260035C
:10008000EA035E049E041A0597053406DA06C802E0
:10009000E30711241FBECFEFD8E0DEBFCDBF21E0C4
:1000A000A0E0B1E001C01D92A235B207E1F70E94C5
:1000B000A5090C94790A0C94000082E080937C00DE
:1000C00082EE80937A0080EA80937B000895E8E7CF
:1000D000F0E02081DC012C93218111962C9308956E
:1000E000CF93DF938DE291E09093280180932701D5
:1000F00010922B0184E190E09093230180932201E0
:1001000085E08093210188E08093260110924F01C1
:1001100060E080E291E00E94B008813009F4A3C061
:1001200080912901803209F07CC0A0912701B09113
:100130002801CEE3D1E0E6E3F1E08D918193EC1765
:10014000FD07D9F7809136018F3F91F580913701F6
:100150008F3F09F085C0809138018F3F09F080C042
:10016000809139018F3F09F07BC080913A018F3F28
:1001700009F076C080913B018F3F09F071C08091FA
:100180003C018F3F09F06CC080913D018F3F09F029
:1001900067C084E090E00E94A20984EF91E00E9491
:1001A0005D0A80E090E00E94A20981E080932C012A
:1001B00080913601853509F053C08091370185352E
:1001C00009F04EC080913801853509F049C0809111
:1001D0003901853509F044C080913A01853509F02F
:1001E0003FC080913B018535D9F580913C01853533
:1001F000B9F580913D01853599F580E890E00E9440
:10020000A20984EF91E00E945D0A80E090E00E94E4
:10021000A20981E08093460123C01192EC17FD07EB
:10022000E1F78DE291E090932801809327011092ED
:100230002B0184E190E0909323018093220185E0DB
:100240008093210188E08093260110924F016091F4
:100250004F0180E291E00E9484028111F8CF03C037
:10026000E6E3F1E0DACFDF91CF910895CF93DF930A
:1002700087E491E0909328018093270110922B014D
:1002800089E190E0909323018093220185E080939F
:10029000210198E09093260180934F0165E080E270
:1002A00091E00E94B008813009F46DC0809129016D
:1002B000803209F046C0A0912701B0912801CEE319
:1002C000D1E0E6E3F1E08D918193EC17FD07D9F7DA
:1002D000809136018F3009F053C0809137018F3003
:1002E00009F04EC0809138018F3009F049C08091EB
:1002F00039018F3009F044C080913A018F3009F004
:100300003FC080913B018F30D9F580913C018F3007
:10031000B9F580913D018F3099F580E490E00E941D
:10032000A20984EF91E00E945D0A80E090E00E94C3
:10033000A20981E08093350123C01192EC17FD07DB
:10034000E1F787E491E090932801809327011092D0
:100350002B0189E190E0909323018093220185E0B5
:100360008093210198E09093260180934F01609142
:100370004F0180E291E00E9484028111F8CF03C016
:10038000E6E3F1E0DACFDF91CF91089528E131E0A3
:10039000309328012093270110922B0170E0709375
:1003A00023016093220122E02093210128E0209381
:1003B000260124E020934F01DC01E8E1F1E080E236
:1003C00091E02D912193E817F907D9F760914F013A
:1003D00080E291E00E9484028111F8CF60914F0188
:1003E00080E291E00E94B0088130C1F308958DE26F
:1003F00091E0909328018093270110922B0184E1D2
:1004000090E0909323018093220185E08093210165
:1004100088E08093260110924F0160914F0180E2A5
:1004200091E00E9484028111F8CF87E491E09093DB
:1004300028018093270110922B0189E190E090938D
:1004400023018093220185E08093210198E090931D
:10045000260180934F0160914F0180E291E00E945C
:1004600084028111F8CF089580E0ADEEB0E03EEE59
:1004700020E0982F9295907F9C93E32FF22F11927A
:10048000E83FF105E1F78F5F863099F70895809195
:10049000EF00807C61F08091EE00982F907E282FF5
:1004A0002076203231F0903431F08F7108958FEF43
:1004B0000895892F0895892F0895FC0180E0AAEFFF
:1004C000B0E09C9191938F5F8830D9F7089581E0D7
:1004D0008093D80082E08093E2008CE08093E30078
:1004E00087E38093E40081E008950E9467028823F7
:1004F00049F00E943402E8EDF0E080818260808360
:1005000081E0089580E00895CF93DF931F92CDB7E7
:10051000DEB7DC0111968C9111978C30B1F41996ED
:100520008C911997803669F4862F8295807F80930D
:10053000ED00EFEEF0E080818F7380831092EE008B
:100540006C9319961C9280E007C6862F8295807F57
:100550008093ED008091EF00807C09F0F9C580E682
:1005600019968C9319976C93EEEEF0E01192E83F98
:10057000F105E1F711964C91119750E0FA0131978E
:10058000EB30F10508F0E0C5E25CFF4F0C94730A14
:1005900016968C9116978111B7C4C8C41B968C917E
:1005A0001B978823D9F114969C9114979295969550
:1005B000977015968C911597880F880F880F890F63
:1005C0008093F30013969C9113979295969597704C
:1005D00014968C911497880F880F880F890F809339
:1005E000F20012969C911297929596959770139699
:1005F0008C911397880F880F880F890F8093F100D3
:1006000012968C911297880F880F880F8093F000B4
:10061000EFEEF0E08081806180831CC012968C91A7
:10062000129786958695869513969C91139720E24E
:10063000929F800D11248093F30012968C91129753
:100640008295880F807E8093F200EFEEF0E080814B
:100650008F7E808316968C911697882391F020E0E8
:100660008AEF90E01796ED91FC911897E20FF11D3B
:100670003081FC0130832F5F16963C91169723172B
:1006800088F31A968C911A97882331F0E0EFF0E006
:1006900080818460808305C0E0EFF0E080818B7F03
:1006A0008083EFEEF0E0908116968C91892B808309
:1006B00080818F73808380818064808380E04CC5DB
:1006C0001B968C911B978823D9F114969C911497B3
:1006D00092959695977015968C911597880F880F1F
:1006E000880F890F8093F30013969C91139792952E
:1006F0009695977014968C911497880F880F880F91
:10070000890F8093F20012969C911297929596957C
:10071000977013968C911397880F880F880F890F05
:100720008093F10012968C911297880F880F880F92
:100730008093F000EFEEF0E08081806180831CC048
:1007400012968C91129786958695869513969C9114
:100750001397F0E29F9F800D11248093F30012966F
:100760008C9112978295880F807E8093F200EFEE35
:10077000F0E080818F7E808316968C911697882377
:1007800091F020E08AEF90E01796ED91FC91189798
:10079000E20FF11D3081FC0130832F5F16963C91F2
:1007A0001697231788F31A961C921A97E0EFF0E039
:1007B00080818B7F8083EFEEF0E0908116968C91A4
:1007C000892B808380818F73808380818064808384
:1007D00080E0C2C41B968C911B978823D9F1149694
:1007E0009C91149792959695977015968C91159764
:1007F000880F880F880F890F8093F30013969C91C0
:10080000139792959695977014968C911497880FDC
:10081000880F880F890F8093F20012969C9112978F
:1008200092959695977013968C911397880F880FD1
:10083000880F890F8093F10012968C911297880F80
:10084000880F880F8093F000EFEEF0E080818061E8
:1008500080831CC012968C911297869586958695FA
:1008600013969C911397F0E29F9F800D1124809323
:10087000F30012968C9112978295880F807E809358
:10088000F200EFEEF0E080818F7E808381E01A96A7
:100890008C931A97E0EFF0E0808184608083EFEE24
:1008A000F0E0908116968C91892B808380818F73E4
:1008B000808380818064808380E04EC419829B8124
:1008C0009295969597708C81880F880F880F890F65
:1008D0008093F7009A819295969597708B81880FF7
:1008E000880F880F890F8093F600998192959695CD
:1008F00097708A81880F880F880F890F8093F50081
:100900002981220F220F220F84EF90E0FC01208327
:10091000EFEEF0E0308116962C91232B2083DC0142
:100920002C912B7F2C932C912E7F2C9380818F7375
:10093000808380818068808380E00EC48FEF89830C
:100940008A818295880F807E815E27EF30E0F901F1
:10095000808349814295440F407E86EF90E0FC0100
:10096000408312964C91129746954695469513965C
:100970005C911397F0E25F9F400D11244093F300C8
:1009800012964C9112974295440F407E4093F2008C
:100990006FEE70E0FB0140814F7E408319825B81E6
:1009A0005295569557704C81440F440F440F450F94
:1009B000F90140833A813295369537702B81220FA9
:1009C000220F220F230FFC01208399819295969587
:1009D00097708A81880F880F880F890F8093F500A0
:1009E0002981220F220F220F84EF90E0FC01208347
:1009F000FB01308116962C911697232B20831A9693
:100A00001C92DC012C9124602C93A0EFB0E02C917F
:100A10002B7F2C9320812F7E2083FC0120812E7F31
:100A20002083DB018C918F738C938C9180688C93E5
:100A300080E092C38FEF89838A818295880F807EC0
:100A4000815E27EF30E0F901808349814295440FB0
:100A5000407E86EF90E0FC01408312964C91129705
:100A600046954695469513965C911397F0E25F9FE5
:100A7000400D11244093F30012964C911297429529
:100A8000440F407E4093F2006FEE70E0FB01408126
:100A90004F7E408319825B815295569557704C81E9
:100AA000440F440F440F450FF90140833A813295BA
:100AB000369537702B81220F220F220F230FFC0156
:100AC000208399819295969597708A81880F880FD7
:100AD000880F890F8093F5002981220F220F220FA2
:100AE00084EF90E0FC012083FB01308116962C916D
:100AF0001697232B208321E01A962C93DC012C914E
:100B000024602C93A0EFB0E02C9124602C932081E2
:100B10002F7D2083FC0120812E7F2083DB018C919F
:100B20008F738C938C9180688C9380E015C31B9697
:100B30008C911B978823D9F114969C9114979295C8
:100B40009695977015968C911597880F880F880F3A
:100B5000890F8093F30013969C9113979295969525
:100B6000977014968C911497880F880F880F890FAF
:100B70008093F20012969C91129792959695977099
:100B800013968C911397880F880F880F890F809385
:100B9000F10012968C911297880F880F880F80931E
:100BA000F000EFEEF0E08081806180831CC012963F
:100BB0008C91129786958695869513969C9113979E
:100BC000E0E29E9F800D11248093F30012968C9199
:100BD00012978295880F807E8093F200EFEEF0E00E
:100BE00080818F7E80838FEF89839B8192959695FC
:100BF00097708C81880F880F880F890F8093F7007A
:100C00009A819295969597708B81880F880F880F9F
:100C1000890F8093F60099819295969597708A81B5
:100C2000880F880F880F890F8093F5002981220F84
:100C3000220F220F84EF90E0FC012083EFEEF0E022
:100C4000308116962C91232B2083DC012C912B7F55
:100C50002C932C9121602C9380818F7380838081D1
:100C60008068808380E078C21B968C911B978823D4
:100C7000D9F114969C911497929596959770159624
:100C80008C911597880F880F880F890F8093F30038
:100C900013969C91139792959695977014968C91B4
:100CA0001497880F880F880F890F8093F20012968F
:100CB0009C91129792959695977013968C91139795
:100CC000880F880F880F890F8093F10012968C91FE
:100CD0001297880F880F880F8093F000EFEEF0E0F6
:100CE0008081806180831CC012968C9112978695BA
:100CF0008695869513969C911397E0E29E9F800DB2
:100D000011248093F30012968C9112978295880F8C
:100D1000807E8093F200EFEEF0E080818F7E808312
:100D20008FEF89839B819295969597708C81880F20
:100D3000880F880F890F8093F7009A819295969576
:100D400097708B81880F880F880F890F8093F6002A
:100D500099819295969597708A81880F880F880F50
:100D6000890F8093F5002981220F220F220F84EF33
:100D700090E0FC012083EFEEF0E0308116962C919C
:100D80001697232B20831A961C92DC012C91246049
:100D90002C93A0EFB0E02C912B7F2C93DC012C91B5
:100DA00021602C9380818F73808380818068808311
:100DB00080E0D2C11B968C911B978823D9F11496A1
:100DC0009C91149792959695977015968C9115977E
:100DD000880F880F880F890F8093F30013969C91DA
:100DE000139792959695977014968C911497880FF7
:100DF000880F880F890F8093F20012969C911297AA
:100E000092959695977013968C911397880F880FEB
:100E1000880F890F8093F10012968C911297880F9A
:100E2000880F880F8093F000EFEEF0E08081806102
:100E300080831CC012968C91129786958695869514
:100E400013969C911397E0E29E9F800D112480934E
:100E5000F30012968C9112978295880F807E809372
:100E6000F200EFEEF0E080818F7E80838FEF898348
:100E70009B819295969597708C81880F880F880F2B
:100E8000890F8093F7009A819295969597708B8140
:100E9000880F880F880F890F8093F60099819295AB
:100EA000969597708A81880F880F880F890F809395
:100EB000F5002981220F220F220F84EF90E0FC0120
:100EC0002083EFEEF0E0308116962C911697232BBD
:100ED000208321E01A962C93DC012C9124602C9322
:100EE000A0EFB0E02C9124602C9320812F7D2083F3
:100EF000DC012C9121602C9380818F738083808111
:100F00008068808380E028C120E08AEF90E0179617
:100F1000ED91FC911897E20FF11D3081FC013083B7
:100F20002F5F16963C911697231788F319829B81A1
:100F30009295969597708C81880F880F880F890FEE
:100F40008093F7009A819295969597708B81880F80
:100F5000880F880F890F8093F60099819295969556
:100F600097708A81880F880F880F890F8093F5000A
:100F70002981220F220F220F84EF90E0FC012083B1
:100F8000EFEEF0E0308116962C911697232B2083FC
:100F900021E01A962C93DC012C9124602C93A0EF75
:100FA000B0E02C9124602C93208120622083DC010E
:100FB0002C912E7F2C9380818F7380838081806819
:100FC000808380E0C9C01B968C911B978823D9F140
:100FD00014969C91149792959695977015968C916E
:100FE0001597880F880F880F890F8093F300139649
:100FF0009C91139792959695977014968C9114974F
:10100000880F880F880F890F8093F20012969C91A9
:10101000129792959695977013968C911397880FC7
:10102000880F880F890F8093F10012968C91129788
:10103000880F880F880F8093F000EFEEF0E080813A
:10104000806180831CC012968C911297869586953C
:10105000869513969C911397E0E29E9F800D112434
:101060008093F30012968C9112978295880F807E60
:101070008093F200EFEEF0E080818F7E8083169601
:101080008C911697882391F020E08AEF90E01796D4
:10109000ED91FC911897E20FF11D3081FC01308336
:1010A0002F5F16963C911697231788F38FEF89834D
:1010B0009B819295969597708C81880F880F880FE9
:1010C000890F8093F7009A819295969597708B81FE
:1010D000880F880F880F890F8093F6009981929569
:1010E000969597708A81880F880F880F890F809353
:1010F000F5002981220F220F220F84EF90E0FC01DE
:101100002083EFEEF0E0308116962C911697232B7A
:10111000208321E01A962C93DC012C9124602C93DF
:10112000A0EFB0E02C9124602C93208120622083DA
:10113000DC012C9121602C9380818F7380838081CE
:101140008068808380E008C019961C9280E004C00B
:101150008FE119968C938FEF0F90DF91CF910895C7
:10116000CF93DF93EC018985882309F4E1C08F31A7
:1011700009F4E0C08F3F09F4DFC06295607F60939F
:10118000ED000E944702803261F020F4882309F4C8
:10119000D5C0C4C0803409F4B6C0803A09F45AC03E
:1011A000BDC081E090E00E94A20984EF91E00E941E
:1011B0005D0A80E090E00E94A2098091F00082FB2D
:1011C000882780F98A878091EF0084FF2DC081E015
:1011D0008B87E3EFF0E080818695869586958D83F9
:1011E000A2EFB0E08C91908186958695869520E25D
:1011F000929F800D11248C83E1EFF0E080819C911F
:1012000086958695869520E2929F800D11248B838A
:101210008091F000908186958695869520E2929F38
:10122000800D11248A8307C01B86E3EFF0E08081E4
:101230008091F200808180E289878F8198850E9469
:101240005D02EFEEF0E080818F7380831092EE00FC
:1012500080E275C08091F00082FB882780F98A8740
:101260008091EF0084FF2DC081E08B87E3EFF0E0F9
:1012700080818695869586958D83A2EFB0E08C91CE
:10128000908186958695869520E2929F800D112407
:101290008C83E1EFF0E080819C9186958695869520
:1012A00020E2929F800D11248B838091F000908129
:1012B00086958695869520E2929F800D11248A83DB
:1012C00013C01B86E3EFF0E08081829586958770DE
:1012D0008B838091F2009081990F990F990F8295DD
:1012E00086958770890F8A8380EA89878F819885A0
:1012F0000E945D02EFEEF0E080818F738083109298
:10130000EE0080EA1CC080E48987EFEEF0E0808187
:101310008F7380831092EE0080E411C08987EFEE16
:10132000F0E080818F7380831092EE0082E007C02E
:1013300082E005C082E003C082E001C081E0DF916D
:10134000CF910895809585B90895E1E6F0E080E8B1
:10135000808310828FEF84B980E00E94A20917B8C1
:1013600018B81AB81BB81DB81BB80E94430A80E011
:101370000E9475020E945D0081E48EB9789481E03C
:101380000E94A2098AEF90E00E945D0A80E00E941C
:10139000A209E6E3F1E08EE391E01192E817F90784
:1013A000E1F710922C0110923501109246010E9433
:1013B000F7010E942E0A00E111E0C8E1D1E00F2EF2
:1013C000FBEACF2EF02D0F2EF0EFDF2EF02DA02E0A
:1013D000B12E0F2EF3E1EF2EF1E0FF2EF02D0F2EA8
:1013E000F5E59F2EF02D0E9470000E94360180913D
:1013F0002C01813069F4EA2DFB2DC192EC17FD0719
:10140000E1F761E18A2D9B2D0E94C60110922C010B
:1014100080913501813069F4EA2DFB2DD192EC17D2
:10142000FD07E1F760E18A2D9B2D0E94C601109215
:101430003501209146012130B1F6F8011192EC17E7
:10144000FD07E1F7C8010E946700F70190826AE09A
:10145000C8010E94C60110924601C5CFAF9A8CB157
:101460008C7780678CB908951F920F920FB60F92F8
:1014700011248F9381E0809351018F910F900FBEC3
:101480000F901F90189510926F00109280008AE0C4
:10149000809381000895109251011092850010925E
:1014A0008400909389008093880082E080936F008D
:1014B000809151018823E1F308950F931F93CF93F7
:1014C000DF938C01009751F0C0E0D0E088EE93E00C
:1014D0000E944B0A2196C017D107C1F7DF91CF9127
:1014E0001F910F910895EE0FFF1F0590F491E02DCD
:0614F0000994F894FFCFFF
:00000001FF
