S019000053756273797374656D5F50726F6772616D2E7372656305
S11300000C9449000C945B000C945B000C945B0012
S11300100C945B000C945B000C945B000C945B00F0
S11300200C945B000C945B000C945B000C945B00E0
S11300300C94980A0C945B000C945B000C945B0089
S11300400C945B000C945B000C945B000C945B00C0
S11300500C945B000C945B000C945B000C945B00B0
S11300600C945B000C945B000C945B000C945B00A0
S11300700C945B000C945B000C945B00E202740330
S1130080FE037204B2042E05AB054806EE06DC023C
S1130090F70711241FBECFEFD8E0DEBFCDBF21E0AC
S11300A0A0E0B1E001C01D92A435B207E1F70E94BF
S11300B0D3090C94C90C0C94000082E080937C005A
S11300C082EE80937A0080EA80937B000895E8E7CB
S11300D0F0E02081DC012C93218111962C9308956A
S11300E0CF93DF938DE291E09093280180932701D1
S11300F010922B0184E190E09093230180932201DC
S113010085E08093210188E08093260110924F01BD
S113011060E080E291E00E94C408813009F4A7C045
S113012080912901803209F080C0A0912701B0910B
S11301302801CEE3D1E0E6E3F1E08D918193EC1761
S1130140FD07D9F7809136018F3FA1F580913701E2
S11301508F3F09F089C0809138018F3F09F084C036
S1130160809139018F3F09F07FC080913A018F3F20
S113017009F07AC080913B018F3F09F075C08091EE
S11301803C018F3F09F070C080913D018F3F09F021
S11301906BC083E00E94B80984E690E00E94C10A23
S11301A083E00E94B80984E690E00E94C10A81E0DD
S11301B080932C0180913601853509F055C08091DA
S11301C03701853509F050C080913801853509F033
S11301D04BC080913901853509F046C080913A01C0
S11301E0853509F041C080913B018535E9F5809161
S11301F03C018535C9F580913D018535A9F587E038
S11302000E94B80984E690E00E94C10A87E00E9437
S1130210B80984E690E00E94C10A81E08093460117
S113022023C01192EC17FD07E1F78DE291E0909362
S113023028018093270110922B0184E190E0909390
S113024023018093220185E08093210188E080933B
S1130250260110924F0160914F0180E291E00E94CB
S113026098028111F8CF03C0E6E3F1E0DACFDF9121
S1130270CF910895CF93DF9387E491E09093280181
S11302808093270110922B0189E190E09093230140
S11302908093220185E08093210198E090932601C8
S11302A080934F0165E080E291E00E94C4088130B0
S11302B009F46FC080912901803209F048C0A091EF
S11302C02701B0912801CEE3D1E0E6E3F1E08D917E
S11302D08193EC17FD07D9F7809136018F3009F02F
S11302E055C0809137018F3009F050C0809138019A
S11302F08F3009F04BC0809139018F3009F046C02E
S113030080913A018F3009F041C080913B018F30D8
S1130310E9F580913C018F30C9F580913D018F3022
S1130320A9F586E00E94B80984E690E00E94C10A1B
S113033086E00E94B80984E690E00E94C10A81E048
S11303408093350123C01192EC17FD07E1F787E490
S113035091E0909328018093270110922B0189E169
S113036090E0909323018093220185E08093210102
S113037098E09093260180934F0160914F0180E2B1
S113038091E00E9498028111F8CF03C0E6E3F1E006
S1130390DACFDF91CF91089528E131E0309328013D
S11303A02093270110922B0170E070932301609336
S11303B0220122E02093210128E02093260124E059
S11303C020934F01DC01E8E1F1E080E291E02D911E
S11303D02193E817F907D9F760914F0180E291E082
S11303E00E9498028111F8CF60914F0180E291E060
S11303F00E94C4088130C1F308958DE291E0909386
S113040028018093270110922B0184E190E09093BE
S113041023018093220185E08093210188E0809369
S1130420260110924F0160914F0180E291E00E94F9
S113043098028111F8CF87E491E09093280180938A
S1130440270110922B0189E190E09093230180937E
S1130450220185E08093210198E090932601809306
S11304604F0160914F0180E291E00E949802811156
S1130470F8CFE6E3F1E08EE391E01192E817F90793
S1130480E1F710922C011092350110924601089563
S113049080E0ADEEB0E03EEE20E0982F9295907FA4
S11304A09C93E32FF22F1192E83FF105E1F78F5F60
S11304B0863099F708958091EF00807C61F08091F7
S11304C0EE00982F907E282F2076203231F0903441
S11304D031F08F7108958FEF0895892F0895892F32
S11304E00895FC0180E0AAEFB0E09C9191938F5FA6
S11304F08830D9F7089581E08093D80082E0809312
S1130500E2008CE08093E30087E38093E40081E0E1
S113051008950E947B02882349F00E944802E8ED76
S1130520F0E080818260808381E0089580E0089516
S1130530CF93DF931F92CDB7DEB7DC0111968C9178
S113054011978C30B1F419968C911997803669F40F
S1130550862F8295807F8093ED00EFEEF0E080811E
S11305608F7380831092EE006C9319961C9280E036
S113057007C6862F8295807F8093ED008091EF00DF
S1130580807C09F0F9C580E619968C9319976C93D1
S1130590EEEEF0E01192E83FF105E1F711964C918F
S11305A0119750E0FA013197EB30F10508F0E0C5FE
S11305B0E25CFF4F0C94C30C16968C911697811134
S11305C0B7C4C8C41B968C911B978823D9F1149681
S11305D09C91149792959695977015968C91159772
S11305E0880F880F880F890F8093F30013969C91CE
S11305F0139792959695977014968C911497880FEB
S1130600880F880F890F8093F20012969C9112979D
S113061092959695977013968C911397880F880FDF
S1130620880F890F8093F10012968C911297880F8E
S1130630880F880F8093F000EFEEF0E080818061F6
S113064080831CC012968C91129786958695869508
S113065013969C91139720E2929F800D112480930E
S1130660F30012968C9112978295880F807E809366
S1130670F200EFEEF0E080818F7E808316968C91FD
S11306801697882391F020E08AEF90E01796ED9179
S1130690FC911897E20FF11D3081FC0130832F5F2C
S11306A016963C911697231788F31A968C911A97ED
S11306B0882331F0E0EFF0E080818460808305C01E
S11306C0E0EFF0E080818B7F8083EFEEF0E09081BB
S11306D016968C91892B808380818F73808380818F
S11306E08064808380E04CC51B968C911B97882383
S11306F0D9F114969C9114979295969597701596A6
S11307008C911597880F880F880F890F8093F300B9
S113071013969C91139792959695977014968C9135
S11307201497880F880F880F890F8093F200129610
S11307309C91129792959695977013968C91139716
S1130740880F880F880F890F8093F10012968C917F
S11307501297880F880F880F8093F000EFEEF0E077
S11307608081806180831CC012968C91129786953B
S11307708695869513969C911397F0E29F9F800D22
S113078011248093F30012968C9112978295880F0E
S1130790807E8093F200EFEEF0E080818F7E808394
S11307A016968C911697882391F020E08AEF90E0BA
S11307B01796ED91FC911897E20FF11D3081FC0121
S11307C030832F5F16963C911697231788F31A9659
S11307D01C921A97E0EFF0E080818B7F8083EFEE2C
S11307E0F0E0908116968C91892B808380818F73A1
S11307F0808380818064808380E0C2C41B968C9156
S11308001B978823D9F114969C91149792959695E9
S1130810977015968C911597880F880F880F890FFC
S11308208093F30013969C911397929596959770E5
S113083014968C911497880F880F880F890F8093D2
S1130840F20012969C911297929596959770139632
S11308508C911397880F880F880F890F8093F1006C
S113086012968C911297880F880F880F8093F0004E
S1130870EFEEF0E08081806180831CC012968C9141
S1130880129786958695869513969C911397F0E218
S11308909F9F800D11248093F30012968C911297E0
S11308A08295880F807E8093F200EFEEF0E08081E5
S11308B08F7E808381E01A968C931A97E0EFF0E0A4
S11308C0808184608083EFEEF0E0908116968C91B5
S11308D0892B808380818F7380838081806480836F
S11308E080E04EC419829B819295969597708C8175
S11308F0880F880F880F890F8093F7009A8192954B
S1130900969597708B81880F880F880F890F809335
S1130910F60099819295969597708A81880F880F31
S1130920880F890F8093F5002981220F220F220F4F
S113093084EF90E0FC012083EFEEF0E03081169626
S11309402C91232B2083DC012C912B7F2C932C9135
S11309502E7F2C9380818F73808380818068808335
S113096080E00EC48FEF89838A818295880F807E10
S1130970815E27EF30E0F901808349814295440F7D
S1130980407E86EF90E0FC01408312964C911297D2
S113099046954695469513965C911397F0E25F9FB2
S11309A0400D11244093F30012964C9112974295F6
S11309B0440F407E4093F2006FEE70E0FB014081F3
S11309C04F7E408319825B815295569557704C81B6
S11309D0440F440F440F450FF90140833A81329587
S11309E0369537702B81220F220F220F230FFC0123
S11309F0208399819295969597708A81880F880FA4
S1130A00880F890F8093F5002981220F220F220F6E
S1130A1084EF90E0FC012083FB01308116962C9139
S1130A201697232B20831A961C92DC012C912460A8
S1130A302C93A0EFB0E02C912B7F2C9320812F7E60
S1130A402083FC0120812E7F2083DB018C918F7316
S1130A508C938C9180688C9380E092C38FEF898310
S1130A608A818295880F807E815E27EF30E0F901CC
S1130A70808349814295440F407E86EF90E0FC01DB
S1130A80408312964C911297469546954695139637
S1130A905C911397F0E25F9F400D11244093F300A3
S1130AA012964C9112974295440F407E4093F20067
S1130AB06FEE70E0FB0140814F7E408319825B81C1
S1130AC05295569557704C81440F440F440F450F6F
S1130AD0F90140833A813295369537702B81220F84
S1130AE0220F220F230FFC01208399819295969562
S1130AF097708A81880F880F880F890F8093F5007B
S1130B002981220F220F220F84EF90E0FC01208321
S1130B10FB01308116962C911697232B208321E01C
S1130B201A962C93DC012C9124602C93A0EFB0E056
S1130B302C9124602C9320812F7D2083FC01208123
S1130B402E7F2083DB018C918F738C938C91806832
S1130B508C9380E015C31B968C911B978823D9F145
S1130B6014969C91149792959695977015968C91DE
S1130B701597880F880F880F890F8093F3001396B9
S1130B809C91139792959695977014968C911497BF
S1130B90880F880F880F890F8093F20012969C911A
S1130BA0129792959695977013968C911397880F38
S1130BB0880F880F890F8093F10012968C911297F9
S1130BC0880F880F880F8093F000EFEEF0E08081AB
S1130BD0806180831CC012968C91129786958695AD
S1130BE0869513969C911397E0E29E9F800D1124A5
S1130BF08093F30012968C9112978295880F807ED1
S1130C008093F200EFEEF0E080818F7E80838FEF9F
S1130C1089839B819295969597708C81880F880F14
S1130C20880F890F8093F7009A8192959695977013
S1130C308B81880F880F880F890F8093F600998124
S1130C409295969597708A81880F880F880F890FDF
S1130C508093F5002981220F220F220F84EF90E068
S1130C60FC012083EFEEF0E0308116962C91232BCB
S1130C702083DC012C912B7F2C932C9121602C93CD
S1130C8080818F73808380818068808380E078C2D4
S1130C901B968C911B978823D9F114969C911497D9
S1130CA092959695977015968C911597880F880F45
S1130CB0880F890F8093F30013969C911397929554
S1130CC09695977014968C911497880F880F880FB7
S1130CD0890F8093F20012969C91129792959695A3
S1130CE0977013968C911397880F880F880F890F2C
S1130CF08093F10012968C911297880F880F880FB9
S1130D008093F000EFEEF0E08081806180831CC06E
S1130D1012968C91129786958695869513969C913A
S1130D201397E0E29E9F800D11248093F3001296A6
S1130D308C9112978295880F807E8093F200EFEE5B
S1130D40F0E080818F7E80838FEF89839B819295F1
S1130D50969597708C81880F880F880F890F8093E0
S1130D60F7009A819295969597708B81880F880FDA
S1130D70880F890F8093F6009981929596959770C4
S1130D808A81880F880F880F890F8093F500298145
S1130D90220F220F220F84EF90E0FC012083EFEE5C
S1130DA0F0E0308116962C911697232B20831A9607
S1130DB01C92DC012C9124602C93A0EFB0E02C91C8
S1130DC02B7F2C93DC012C9121602C9380818F73D9
S1130DD0808380818068808380E0D2C11B968C915F
S1130DE01B978823D9F114969C9114979295969504
S1130DF0977015968C911597880F880F880F890F17
S1130E008093F30013969C911397929596959770FF
S1130E1014968C911497880F880F880F890F8093EC
S1130E20F20012969C91129792959695977013964C
S1130E308C911397880F880F880F890F8093F10086
S1130E4012968C911297880F880F880F8093F00068
S1130E50EFEEF0E08081806180831CC012968C915B
S1130E60129786958695869513969C911397E0E242
S1130E709E9F800D11248093F30012968C911297FB
S1130E808295880F807E8093F200EFEEF0E08081FF
S1130E908F7E80838FEF89839B819295969597703F
S1130EA08C81880F880F880F890F8093F7009A81AF
S1130EB09295969597708B81880F880F880F890F6C
S1130EC08093F60099819295969597708A81880F00
S1130ED0880F880F890F8093F5002981220F220F34
S1130EE0220F84EF90E0FC012083EFEEF0E03081EC
S1130EF016962C911697232B208321E01A962C9377
S1130F00DC012C9124602C93A0EFB0E02C912460A0
S1130F102C9320812F7D2083DC012C9121602C9344
S1130F2080818F73808380818068808380E028C182
S1130F3020E08AEF90E01796ED91FC911897E20F6C
S1130F40F11D3081FC0130832F5F16963C9116977A
S1130F50231788F319829B819295969597708C81BB
S1130F60880F880F880F890F8093F7009A819295D4
S1130F70969597708B81880F880F880F890F8093BF
S1130F80F60099819295969597708A81880F880FBB
S1130F90880F890F8093F5002981220F220F220FD9
S1130FA084EF90E0FC012083EFEEF0E030811696B0
S1130FB02C911697232B208321E01A962C93DC0185
S1130FC02C9124602C93A0EFB0E02C9124602C93FE
S1130FD0208120622083DC012C912E7F2C93808140
S1130FE08F73808380818068808380E0C9C01B9672
S1130FF08C911B978823D9F114969C911497929500
S11310009695977015968C911597880F880F880F71
S1131010890F8093F30013969C911397929596955C
S1131020977014968C911497880F880F880F890FE6
S11310308093F20012969C911297929596959770D0
S113104013968C911397880F880F880F890F8093BC
S1131050F10012968C911297880F880F880F809355
S1131060F000EFEEF0E08081806180831CC0129676
S11310708C91129786958695869513969C911397D5
S1131080E0E29E9F800D11248093F30012968C91D0
S113109012978295880F807E8093F200EFEEF0E045
S11310A080818F7E808316968C911697882391F089
S11310B020E08AEF90E01796ED91FC911897E20FEB
S11310C0F11D3081FC0130832F5F16963C911697F9
S11310D0231788F38FEF89839B8192959695977058
S11310E08C81880F880F880F890F8093F7009A816D
S11310F09295969597708B81880F880F880F890F2A
S11311008093F60099819295969597708A81880FBD
S1131110880F880F890F8093F5002981220F220FF1
S1131120220F84EF90E0FC012083EFEEF0E03081A9
S113113016962C911697232B208321E01A962C9334
S1131140DC012C9124602C93A0EFB0E02C9124605E
S11311502C93208120622083DC012C9121602C932C
S113116080818F73808380818068808380E008C061
S113117019961C9280E004C08FE119968C938FEF2E
S11311800F90DF91CF910895CF93DF93EC01898580
S1131190882309F4E3C08F3109F4E2C08F3F09F4D6
S11311A0E1C06295607F6093ED000E945B02803233
S11311B061F020F4882309F4D7C0C6C0803409F450
S11311C0B8C0803A09F45CC0BFC087E00E94B80987
S11311D084E690E00E94C10A87E00E94B80984E690
S11311E090E00E94C10A8091F00082FB882780F978
S11311F08A878091EF0084FF2DC081E08B87E3EF25
S1131200F0E080818695869586958D83A2EFB0E087
S11312108C91908186958695869520E2929F800D8B
S113122011248C83E1EFF0E080819C918695869572
S1131230869520E2929F800D11248B838091F0008B
S1131240908186958695869520E2929F800D112443
S11312508A8307C01B86E3EFF0E080818091F2006F
S1131260808180E289878F8198850E947102EFEEE8
S1131270F0E080818F7380831092EE0080E275C06D
S11312808091F00082FB882780F98A878091EF00A3
S113129084FF2DC081E08B87E3EFF0E080818695A9
S11312A0869586958D83A2EFB0E08C91908186958A
S11312B08695869520E2929F800D11248C83E1EF20
S11312C0F0E080819C9186958695869520E2929F98
S11312D0800D11248B838091F000908186958695F2
S11312E0869520E2929F800D11248A8313C01B8669
S11312F0E3EFF0E080818295869587708B838091FF
S1131300F2009081990F990F990F829586958770B5
S1131310890F8A8380EA89878F8198850E94710268
S1131320EFEEF0E080818F7380831092EE0080EA0C
S11313301CC080E48987EFEEF0E080818F738083A6
S11313401092EE0080E411C08987EFEEF0E0808116
S11313508F7380831092EE0082E007C082E005C0A4
S113136082E003C082E001C081E0DF91CF91089563
S1131370873029F42BB191E092279BB907C08330C1
S113138029F498B181E0892788B9089545B121E00D
S113139030E0B90102C0660F771F8A95E2F7CB01EE
S11313A0842785B90895E1E6F0E080E8808310821F
S11313B08EEF84B981E087B918B899E09AB98BB9EE
S11313C01DB81EB80E94A70A0E945D0080E00E941A
S11313D089020E94FD010E94630A78940E94DA0B3C
S11313E087E00E94B80900E111E00F2EF8E1EF2E2A
S11313F0F1E0FF2EF02D0F2EFBEACF2EF02D0F2E55
S1131400F0EFDF2EF02DC3E1D1E00F2EF5E59F2E96
S1131410F02DA02EB12E0F2EF6E68F2EF02D0E9469
S113142070000E943A010E94970C80912C01813037
S113143069F4EA2DFB2DC192EE15FF05E1F761E198
S11314408A2D9B2D0E94CC0110922C018091350194
S1131450813069F4EA2DFB2DD192EE15FF05E1F7F9
S113146060E18A2D9B2D0E94CC0110923501809160
S11314704601813091F4EA2DFB2D1192EE15FF0502
S1131480E1F78A2D9B2D0E94670098826AE08A2DDD
S11314909B2D0E94CC011092460180915101813014
S11314A009F0BDCFF8011192EE15FF05E1F7809127
S11314B05201F801808388826FE0C8010E94CC0148
S11314C010924601ACCF85B78F7785BF83E58CBD7D
S11314D008958EBD0DB407FC04C089EE8150F1F768
S11314E008958AE00E94D70A8EB5089581E090E0BD
S11314F00E94AF0A0895CF935B988EBD0DB407FC8C
S113150006C0C9EEC150F1F70E94760A09C087E00F
S11315100E94D70A0E94760A8AE00E94D70ACEB5B2
S11315208C2FCF91089581E090E00E94AF0A089536
S11315301F920F920FB60F9211248F9381E0809324
S113154053018F910F900FBE0F901F90189510921A
S11315506F00109280008AE08093810008951092B9
S11315605301109285001092840090938900809317
S1131570880082E080936F00809153018823E1F317
S113158008950F931F93CF93DF938C01009751F02D
S1131590C0E0D0E088EE93E00E94AF0A2196C01725
S11315A0D107C1F7DF91CF911F910F91089588233F
S11315B021F090E09F5F9813FDCF0895CF93C82F3B
S11315C00E94930A80E88C0F0E94690A81E090E0EF
S11315D00E94AF0A80E00E94690AC82F0E94760A1E
S11315E081E090E00E94C10A8C2FCF910895CF939F
S11315F0DF93D82FC62F0E94930A8D2F0E94690A69
S113160081E090E00E94AF0A8C2F0E94690A0E9438
S1131610760A81E090E00E94C10ADF91CF9108959B
S1131620CF93C82F0E94930A8FEA0E94690A81E02F
S113163090E00E94AF0A8C2F0E94690A81E090E03A
S11316400E94AF0A80E00E94690AC82F0E94760AAD
S113165081E090E00E94C10A8C2FCF910895CF932E
S11316600E947B0AC82F81E090E00E94AF0A8C2F71
S1131670CF910895CF93DF93D82FC62F8DE30E9487
S11316802F0B0E94930A8FE20E94690A81E090E086
S11316900E94AF0A8D2F0E94690A81E090E00E94A7
S11316A0AF0A8C2F0E94690A0E94760A81E090E0BA
S11316B00E94C10ADF91CF910895CF93DF93EB018C
S11316C08DE30E942F0B8F7782958F708883DF9133
S11316D0CF910895CF93C82F8DE30E942F0B0E94C2
S11316E0930A8EEB0E94690A81E090E00E94AF0A9F
S11316F08C2F0E94690A81E090E00E94AF0A80E08A
S11317000E94690AC82F0E94760A81E090E00E9434
S1131710C10A8C2FCF9108951F93CF93DF93C82FC5
S1131720D62F142F0E94DE0A11110CC0E1E0F0E064
S1131730AF0102C0440F551FDA95E2F74095682FB8
S113174064230AC041E050E09A0102C0220F331F13
S1131750DA95E2F7682F622B8C2F0E94F70ADF914B
S1131760CF911F9108951F93CF93DF93C82FD62F46
S1131770142F0E94100B11110CC0E1E0F0E0AF0136
S113178002C0440F551FDA95E2F74095682F642391
S11317900AC041E050E09A0102C0220F331FDA95DB
S11317A0E2F7682F622B8C2F0E943A0BDF91CF91C6
S11317B01F9108950E94930A80E30E942F0B8AE3ED
S11317C00E942F0B8BE30E942F0B60E082E10E94AA
S11317D03A0B6FE583E10E943A0B60E486E10E94D4
S11317E03A0B6EE087E10E943A0B63E089E10E94C4
S11317F03A0B63E38BE10E943A0B67E18DE10E94AF
S11318003A0B60E58FE10E943A0B64E181E20E94A9
S11318103A0B6CEA82E20E943A0B8DE30E942F0B92
S11318206BE088E00E94F70A6DE083E10E94F70A0A
S113183064E086E20E94F70A6BE088E00E94F70AFF
S11318406CE18CE00E94F70A60E080E10E94F70AF4
S113185064E081E10E94F70A65E083E10E94F70AEF
S113186069EA8CE10E94F70A6FEC8DE10E94F70AA5
S113187060E08EE10E94F70A63E080E20E94F70ACA
S113188060E08EE20E94F70A60E080E00E943A0B7A
S113189068E48AE00E94F70A65E08BE00E94F70A98
S11318A064E081E20E94F70A60E08DE00E94F70A9A
S11318B040E065E08EE00E948C0B40E067E082E04F
S11318C00E94B30B40E066E082E00E94B30B40E06C
S11318D066E088E00E948C0B67E189E00E94F70AC9
S11318E060E086E20E94F70A6FEF8EE20E94F70A38
S11318F08DE30E942F0B6CE68CE00E943A0B60E8AB
S11319008DE00E943A0B83E30E942F0B8AEF90E054
S11319100E94C10A87E30E942F0B8AEF90E00E9485
S1131920C10A1092510184E30E942F0B08951F9362
S1131930CF93DF9300D0CDB7DEB7BE016E5F7F4F8C
S1131940CE0101960E945D0B8A8186508230A8F4F4
S113195086E30E942F0B8DE30E942F0B80E80E94E8
S11319606A0B182F8AE30E942F0B1093520181E017
S11319708093510184E30E942F0B0F900F90DF910D
S1131980CF911F910895EE0FFF1F0590F491E02D64
S10919900994F894FFCF56
S9030000FC
