S019000053756273797374656D5F50726F6772616D2E7372656305
S11300000C9449000C945B000C945B000C945B0012
S11300100C945B000C945B000C945B000C945B00F0
S11300200C945B000C945B000C945B000C945B00E0
S11300300C9447090C945B000C945B000C945B00DB
S11300400C945B000C945B000C945B000C945B00C0
S11300500C945B000C945B000C945B000C945B00B0
S11300600C945B000C945B000C945B000C945B00A0
S11300700C945B000C945B000C945B0078010A0206
S1130080940208034803C4034104DE048405720196
S11300908D0611241FBECFEFD8E0DEBFCDBF21E017
S11300A0A0E0B1E001C01D92A235B207E1F70E94C1
S11300B069080C948E0C0C94000082E080937C0000
S11300C082EE80937A0080EA80937B000895E8E7CB
S11300D0F0E02081DC012C93218111962C9308956A
S11300E028E131E0309328012093270110922B015D
S11300F070E0709323016093220122E02093210198
S113010028E02093260124E020934F01DC01E8E15C
S1130110F1E080E291E02D912193E817F907D9F7F6
S113012060914F0180E291E00E942E018111F8CF8D
S113013060914F0180E291E00E945A078130C1F33F
S113014008958DE291E09093280180932701109205
S11301502B0184E190E0909323018093220185E0B8
S11301608093210188E08093260110924F016091D1
S11301704F0180E291E00E942E018111F8CF87E4C3
S113018091E0909328018093270110922B0189E13B
S113019090E0909323018093220185E080932101D4
S11301A098E09093260180934F0160914F0180E283
S11301B091E00E942E018111F8CF089580E0ADEE08
S11301C0B0E03EEE20E0982F9295907F9C93E32F31
S11301D0F22F1192E83FF105E1F78F5F863099F72E
S11301E008958091EF00807C61F08091EE00982F5B
S11301F0907E282F2076203231F0903431F08F71A8
S113020008958FEF0895892F0895892F0895FC018B
S113021080E0AAEFB0E09C9191938F5F8830D9F78A
S1130220089581E08093D80082E08093E2008CE01E
S11302308093E30087E38093E40081E008950E94C3
S11302401101882349F00E94DE00E8EDF0E080818E
S11302508260808381E0089580E00895CF93DF93E6
S11302601F92CDB7DEB7DC0111968C9111978C30BB
S1130270B1F419968C911997803669F4862F82957A
S1130280807F8093ED00EFEEF0E080818F738083B8
S11302901092EE006C9319961C9280E007C6862F8C
S11302A08295807F8093ED008091EF00807C09F03F
S11302B0F9C580E619968C9319976C93EEEEF0E0ED
S11302C01192E83FF105E1F711964C91119750E036
S11302D0FA013197EB30F10508F0E0C5E25CFF4F1D
S11302E00C94740C16968C9116978111B7C4C8C4DB
S11302F01B968C911B978823D9F114969C91149783
S113030092959695977015968C911597880F880FEE
S1130310880F890F8093F30013969C9113979295FD
S11303209695977014968C911497880F880F880F60
S1130330890F8093F20012969C911297929596954C
S1130340977013968C911397880F880F880F890FD5
S11303508093F10012968C911297880F880F880F62
S11303608093F000EFEEF0E08081806180831CC018
S113037012968C91129786958695869513969C91E4
S1130380139720E2929F800D11248093F30012961C
S11303908C9112978295880F807E8093F200EFEE05
S11303A0F0E080818F7E808316968C911697882347
S11303B091F020E08AEF90E01796ED91FC91189768
S11303C0E20FF11D3081FC0130832F5F16963C91C2
S11303D01697231788F31A968C911A97882331F06D
S11303E0E0EFF0E080818460808305C0E0EFF0E01E
S11303F080818B7F8083EFEEF0E0908116968C9164
S1130400892B808380818F73808380818064808343
S113041080E04CC51B968C911B978823D9F11496C8
S11304209C91149792959695977015968C91159723
S1130430880F880F880F890F8093F30013969C917F
S1130440139792959695977014968C911497880F9C
S1130450880F880F890F8093F20012969C9112974F
S113046092959695977013968C911397880F880F91
S1130470880F890F8093F10012968C911297880F40
S1130480880F880F8093F000EFEEF0E080818061A8
S113049080831CC012968C911297869586958695BA
S11304A013969C911397F0E29F9F800D11248093E3
S11304B0F30012968C9112978295880F807E809318
S11304C0F200EFEEF0E080818F7E808316968C91AF
S11304D01697882391F020E08AEF90E01796ED912B
S11304E0FC911897E20FF11D3081FC0130832F5FDE
S11304F016963C911697231788F31A961C921A970E
S1130500E0EFF0E080818B7F8083EFEEF0E090817C
S113051016968C91892B808380818F738083808150
S11305208064808380E0C2C41B968C911B978823CF
S1130530D9F114969C911497929596959770159667
S11305408C911597880F880F880F890F8093F3007B
S113055013969C91139792959695977014968C91F7
S11305601497880F880F880F890F8093F2001296D2
S11305709C91129792959695977013968C911397D8
S1130580880F880F880F890F8093F10012968C9141
S11305901297880F880F880F8093F000EFEEF0E039
S11305A08081806180831CC012968C9112978695FD
S11305B08695869513969C911397F0E29F9F800DE4
S11305C011248093F30012968C9112978295880FD0
S11305D0807E8093F200EFEEF0E080818F7E808356
S11305E081E01A968C931A97E0EFF0E080818460A2
S11305F08083EFEEF0E0908116968C91892B8083B6
S113060080818F73808380818064808380E04EC486
S113061019829B819295969597708C81880F880F8B
S1130620880F890F8093F7009A8192959695977019
S11306308B81880F880F880F890F8093F60099812A
S11306409295969597708A81880F880F880F890FE5
S11306508093F5002981220F220F220F84EF90E06E
S1130660FC012083EFEEF0E0308116962C91232BD1
S11306702083DC012C912B7F2C932C912E7F2C93A7
S113068080818F73808380818068808380E00EC442
S11306908FEF89838A818295880F807E815E27EF20
S11306A030E0F901808349814295440F407E86EF12
S11306B090E0FC01408312964C9112974695469522
S11306C0469513965C911397F0E25F9F400D1124B9
S11306D04093F30012964C9112974295440F407E3A
S11306E04093F2006FEE70E0FB0140814F7E408347
S11306F019825B815295569557704C81440F440F73
S1130700440F450FF90140833A813295369537708D
S11307102B81220F220F220F230FFC0120839981AA
S11307209295969597708A81880F880F880F890F04
S11307308093F5002981220F220F220F84EF90E08D
S1130740FC012083FB01308116962C911697232BF4
S113075020831A961C92DC012C9124602C93A0EF28
S1130760B0E02C912B7F2C9320812F7E2083FC01E1
S113077020812E7F2083DB018C918F738C938C914D
S113078080688C9380E092C38FEF89838A818295FD
S1130790880F807E815E27EF30E0F90180834981F4
S11307A04295440F407E86EF90E0FC014083129610
S11307B04C91129746954695469513965C911397DE
S11307C0F0E25F9F400D11244093F30012964C9188
S11307D012974295440F407E4093F2006FEE70E012
S11307E0FB0140814F7E408319825B81529556956F
S11307F057704C81440F440F440F450FF901408357
S11308003A813295369537702B81220F220F220FB1
S1130810230FFC01208399819295969597708A8184
S1130820880F880F880F890F8093F5002981220F84
S1130830220F220F84EF90E0FC012083FB01308122
S113084016962C911697232B208321E01A962C932D
S1130850DC012C9124602C93A0EFB0E02C91246057
S11308602C9320812F7D2083FC0120812E7F2083E7
S1130870DB018C918F738C938C9180688C9380E0D6
S113088015C31B968C911B978823D9F114969C91C0
S1130890149792959695977015968C911597880F45
S11308A0880F880F890F8093F30013969C911397F8
S11308B092959695977014968C911497880F880F3B
S11308C0880F890F8093F20012969C91129792954B
S11308D09695977013968C911397880F880F880FAD
S11308E0890F8093F10012968C911297880F880FCC
S11308F0880F8093F000EFEEF0E0808180618083C8
S11309001CC012968C91129786958695869513969F
S11309109C911397E0E29E9F800D11248093F30035
S113092012968C9112978295880F807E8093F200A4
S1130930EFEEF0E080818F7E80838FEF89839B814F
S11309409295969597708C81880F880F880F890FE0
S11309508093F7009A819295969597708B81880F72
S1130960880F880F890F8093F60099819295969548
S113097097708A81880F880F880F890F8093F500FC
S11309802981220F220F220F84EF90E0FC012083A3
S1130990EFEEF0E0308116962C91232B2083DC01BE
S11309A02C912B7F2C932C9121602C9380818F731D
S11309B0808380818068808380E078C21B968C91DC
S11309C01B978823D9F114969C9114979295969528
S11309D0977015968C911597880F880F880F890F3B
S11309E08093F30013969C91139792959695977024
S11309F014968C911497880F880F880F890F809311
S1130A00F20012969C911297929596959770139670
S1130A108C911397880F880F880F890F8093F100AA
S1130A2012968C911297880F880F880F8093F0008C
S1130A30EFEEF0E08081806180831CC012968C917F
S1130A40129786958695869513969C911397E0E266
S1130A509E9F800D11248093F30012968C9112971F
S1130A608295880F807E8093F200EFEEF0E0808123
S1130A708F7E80838FEF89839B8192959695977063
S1130A808C81880F880F880F890F8093F7009A81D3
S1130A909295969597708B81880F880F880F890F90
S1130AA08093F60099819295969597708A81880F24
S1130AB0880F880F890F8093F5002981220F220F58
S1130AC0220F84EF90E0FC012083EFEEF0E0308110
S1130AD016962C911697232B20831A961C92DC01D0
S1130AE02C9124602C93A0EFB0E02C912B7F2C93BD
S1130AF0DC012C9121602C9380818F738083808111
S1130B008068808380E0D2C11B968C911B978823D8
S1130B10D9F114969C911497929596959770159681
S1130B208C911597880F880F880F890F8093F30095
S1130B3013969C91139792959695977014968C9111
S1130B401497880F880F880F890F8093F2001296EC
S1130B509C91129792959695977013968C911397F2
S1130B60880F880F880F890F8093F10012968C915B
S1130B701297880F880F880F8093F000EFEEF0E053
S1130B808081806180831CC012968C911297869517
S1130B908695869513969C911397E0E29E9F800D0F
S1130BA011248093F30012968C9112978295880FEA
S1130BB0807E8093F200EFEEF0E080818F7E808370
S1130BC08FEF89839B819295969597708C81880F7E
S1130BD0880F880F890F8093F7009A8192959695D4
S1130BE097708B81880F880F880F890F8093F60088
S1130BF099819295969597708A81880F880F880FAE
S1130C00890F8093F5002981220F220F220F84EF90
S1130C1090E0FC012083EFEEF0E0308116962C91F9
S1130C201697232B208321E01A962C93DC012C9118
S1130C3024602C93A0EFB0E02C9124602C932081AD
S1130C402F7D2083DC012C9121602C9380818F7374
S1130C50808380818068808380E028C120E08AEFDF
S1130C6090E01796ED91FC911897E20FF11D3081F9
S1130C70FC0130832F5F16963C911697231788F357
S1130C8019829B819295969597708C81880F880F15
S1130C90880F890F8093F7009A81929596959770A3
S1130CA08B81880F880F880F890F8093F6009981B4
S1130CB09295969597708A81880F880F880F890F6F
S1130CC08093F5002981220F220F220F84EF90E0F8
S1130CD0FC012083EFEEF0E0308116962C911697FC
S1130CE0232B208321E01A962C93DC012C91246081
S1130CF02C93A0EFB0E02C9124602C9320812062EF
S1130D002083DC012C912E7F2C9380818F73808330
S1130D1080818068808380E0C9C01B968C911B977A
S1130D208823D9F114969C9114979295969597706F
S1130D3015968C911597880F880F880F890F8093CB
S1130D40F30013969C911397929596959770149629
S1130D508C911497880F880F880F890F8093F20065
S1130D6012969C91129792959695977013968C91E2
S1130D701397880F880F880F890F8093F1001296BC
S1130D808C911297880F880F880F8093F000EFEEF4
S1130D90F0E08081806180831CC012968C91129750
S1130DA086958695869513969C911397E0E29E9F6F
S1130DB0800D11248093F30012968C9112978295E2
S1130DC0880F807E8093F200EFEEF0E080818F7ECA
S1130DD0808316968C911697882391F020E08AEFF1
S1130DE090E01796ED91FC911897E20FF11D308178
S1130DF0FC0130832F5F16963C911697231788F3D6
S1130E008FEF89839B819295969597708C81880F3B
S1130E10880F880F890F8093F7009A819295969591
S1130E2097708B81880F880F880F890F8093F60045
S1130E3099819295969597708A81880F880F880F6B
S1130E40890F8093F5002981220F220F220F84EF4E
S1130E5090E0FC012083EFEEF0E0308116962C91B7
S1130E601697232B208321E01A962C93DC012C91D6
S1130E7024602C93A0EFB0E02C9124602C9320816B
S1130E8020622083DC012C9121602C9380818F735C
S1130E90808380818068808380E008C019961C92DA
S1130EA080E004C08FE119968C938FEF0F90DF914F
S1130EB0CF910895CF93DF93EC018985882309F4BA
S1130EC0E3C08F3109F4E2C08F3F09F4E1C06295B9
S1130ED0607F6093ED000E94F100803261F020F4A5
S1130EE0882309F4D7C0C6C0803409F4B8C0803A56
S1130EF009F45CC0BFC087E00E944E0884E690E01D
S1130F000E94700987E00E944E0884E690E00E94E7
S1130F1070098091F00082FB882780F98A8780918C
S1130F20EF0084FF2DC081E08B87E3EFF0E0808148
S1130F308695869586958D83A2EFB0E08C919081FD
S1130F4086958695869520E2929F800D11248C8348
S1130F50E1EFF0E080819C9186958695869520E26C
S1130F60929F800D11248B838091F000908186954F
S1130F708695869520E2929F800D11248A8307C06E
S1130F801B86E3EFF0E080818091F200808180E2B3
S1130F9089878F8198850E940701EFEEF0E08081B8
S1130FA08F7380831092EE0080E275C08091F00010
S1130FB082FB882780F98A878091EF0084FF2DC007
S1130FC081E08B87E3EFF0E08081869586958695B6
S1130FD08D83A2EFB0E08C9190818695869586955D
S1130FE020E2929F800D11248C83E1EFF0E0808158
S1130FF09C9186958695869520E2929F800D11247A
S11310008B838091F000908186958695869520E269
S1131010929F800D11248A8313C01B86E3EFF0E0B6
S113102080818295869587708B838091F200908170
S1131030990F990F990F829586958770890F8A83E6
S113104080EA89878F8198850E940701EFEEF0E09E
S113105080818F7380831092EE0080EA1CC080E44C
S11310608987EFEEF0E080818F7380831092EE0029
S113107080E411C08987EFEEF0E080818F73808374
S11310801092EE0082E007C082E005C082E003C057
S113109082E001C081E0DF91CF910895873029F487
S11310A02BB191E092279BB907C0833029F498B102
S11310B081E0892788B9089545B121E030E0B9017C
S11310C002C0660F771F8A95E2F7CB01842785B9A2
S11310D00895CF93DF9300D0CDB7DEB7E1E6F0E01B
S11310E080E8808310828EEF84B981E087B918B8D4
S11310F099E09AB98BB91DB81BB80E9456090E9491
S11311005D0080E00E941F010E94A1000E9411095D
S113111078940E94B20AE6E3F1E08EE391E0119242
S1131120E817F907E1F710922C011092350110929B
S113113046010F2EF0E1EF2EF1E0FF2EF02D08E135
S113114011E00F2EFBEAAF2EF02D0F2EF0EFBF2E85
S1131150F02D8E2C9F2C0F2EF3E1CF2EF1E0DF2EFD
S1131160F02D0E94300ABE016F5F7F4FCE010296C0
S11311700E94000A89818630D9F486E30E94F80926
S11311808AE090E00E94700983E00E944E0884E6A1
S113119090E00E94700983E00E944E0884E690E08B
S11311A00E9470098AE30E94F80984E30E94F80906
S11311B080912C01813069F4E82DF92DA192E0177A
S11311C0F107E1F761E1882D992D0E9470001092DA
S11311D02C0180913501813069F4E82DF92DB1920B
S11311E0E017F107E1F760E1882D992D0E94700066
S11311F01092350180914601813009F0B2CFF70198
S11312001192E017F107E1F7C7010E94670085E535
S1131210F60180836AE0C7010E94700010924601C3
S1131220A0CF85B78F7785BF83E58CBD08958EBD2C
S11312300DB407FC04C089EE8150F1F708958AE0EB
S11312400E9486098EB508955B9A81E090E00E9421
S11312505E0908955B9881E090E00E945E0908951C
S1131260CF93C82F0E942A09CEBD0DB407FC06C037
S1131270C9EEC150F1F70E94240906C00E94240956
S11312808AE00E948609CEB58C2FCF9108951F92D3
S11312900F920FB60F9211248F9381E08093510126
S11312A08F910F900FBE0F901F90189510926F00A2
S11312B0109280008AE08093810008951092510179
S11312C01092850010928400909389008093880086
S11312D082E080936F00809151018823E1F30895A7
S11312E00F931F93CF93DF938C01009751F0C0E0CD
S11312F0D0E088EE93E00E945E092196C017D107E2
S1131300C1F7DF91CF911F910F910895882321F0A8
S113131090E09F5F9813FDCF0895CF93C82F0E944C
S11313202A0980E88C0F0E94170981E090E00E944E
S11313305E0980E00E941709C82F8A3A71F483E09D
S11313400E944E0884E690E00E94700983E00E94A7
S11313504E0884E690E00E9470090E94240981E00E
S113136090E00E945E098C2FCF910895CF93DF9374
S1131370D82FC62F0E942A098D2F0E94170981E0B9
S113138090E00E945E098C2F0E9417090E94240994
S113139081E090E00E945E09DF91CF910895CF93A0
S11313A0C82F8FEA0E94300981E090E00E945E0914
S11313B08C2F0E948D0981E090E00E945E098FEAE3
S11313C0CF910895CF93DF93C82FD62F8FE20E9439
S11313D0300981E090E00E945E096D2F8C2F0E94FD
S11313E0B60981E090E00E945E09DF91CF910895F3
S11313F00E948D0981E090E00E945E0980E00895DA
S1131400CF92DF92EF92FF920F931F93CF93DF93CC
S11314106C017B018DE30E94F809982F991F99278D
S1131420991FF601908386FB002700F910E0000F56
S1131430111F85FBFF27F0F9CF2F90E0D92FC00FA4
S1131440D11FCC0F82958170C80FF701C083DF9143
S1131450CF911F910F91FF90EF90DF90CF9008955F
S1131460CF93DF9300D0CDB7DEB7BE016E5F7F4F61
S1131470CE0101960E94000A8981811103C08A81EC
S1131480863071F486E00E944E0884E690E00E9463
S1131490700986E00E944E0884E690E00E9470097C
S11314A08A81813071F487E00E944E0884E690E0DE
S11314B00E94700987E00E944E0884E690E00E9432
S11314C070090F900F90DF91CF9108951F93CF93E0
S11314D0DF93C82F162FD42F0E948D09282F52E096
S11314E05127382F5D9F300D1124652F0E94540C15
S11314F0E32FE90F822F90E0452F50E0BA01660FE9
S1131500771F0E94600C6E2F681B8C2F0E94B609F7
S1131510DF91CF911F9108951F93CF93DF93C82F2D
S1131520162FD42F0E94CF09282F52E05127382F8D
S11315305D9F300D1124652F0E94540CE32FE90F99
S1131540822F90E0452F50E0BA01660F771F0E946A
S1131550600C6E2F681B8C2F0E94E209DF91CF91E3
S11315601F9108950E942A0960E082E10E94E20925
S11315706FE583E10E94E20960E486E10E94E209EA
S11315806EE087E10E94E20963E089E10E94E209DA
S113159063E38BE10E94E20967E18DE10E94E209C5
S11315A060E58FE10E94E2096EE680E20E94E209B2
S11315B064E181E20E94E2096CEA82E20E94E209AB
S11315C064EB87E20E94E2096EE082E30E94E20992
S11315D063E086E30E94E20964E080E00E94E2099D
S11315E060E083E00E94E20960E089E00E94E20991
S11315F062E08FE00E94E20966EA80E10E94E2096B
S113160064E081E10E94E20960E08AE10E94E2096B
S11316106FEF8CE10E94E20960E08EE10E94E20932
S11316206EE680E20E94E20964E183E20E94E2093C
S113163060E084E20E94E20960E088E20E94E2093C
S113164062E089E20E94E20960E08AE20E94E20923
S113165060E08BE20E94E20960E18CE20E94E20910
S113166060E08DE20E94E20960E08EE20E94E209FD
S113167061E08FE20E94E20961E080E30E94E209F6
S113168061E081E30E94E20960EA83E30E94E209E7
S113169063E084E30E94E20960E088E30E94E209D7
S11316A060E089E30E94E20960E088E60E94E209C2
S11316B060E08BE70E94E2096FE38CE70E94E20995
S11316C060E086E90E94E20960E087E90E94E2099D
S11316D060E088E90E94E20960E089E90E94E20989
S11316E060E08AE90E94E2096BE08BE90E94E2096A
S11316F060E48CE90E94E20960E08DE90E94E2095D
S113170060E08EE90E94E2096CE38FE90E94E2093D
S113171060E080EA0E94E2096BE088E00E94B6097A
S11317206DE083E10E94B60964E086E20E94B60996
S113173060E088E20E94B6096FE78BE20E94B60976
S113174060E085E00E94E20960E084E10E94E20931
S113175060E086E20E94E20964E085E30E94E20917
S113176061ED8AE70E94E20961E08DE80E94E209E6
S11317706BE088E00E94B6096CE18CE00E94B60937
S113178060E080E10E94B60964E081E10E94B6094C
S113179065E083E10E94B60969EA8CE10E94B6091A
S11317A06FEC8DE10E94B60960E08EE10E94B609FB
S11317B063E080E20E94B60960E08EE20E94B6090E
S11317C060E080E00E94E20968E48AE00E94B609D1
S11317D065E08BE00E94B60964E081E20E94B609EC
S11317E060E08DE00E94B60940E065E08EE00E9472
S11317F0660A40E067E082E00E948C0A40E066E00E
S113180082E00E948C0A40E066E088E00E94660A5A
S113181067E189E00E94B60963E984E00E94B609A1
S11318206BE085E00E94B60961E586E00E94B60996
S11318306EED87E00E94B60941E066E082E10E9415
S1131840660A40E066E083E10E94660A60E086E2A0
S11318500E94B60960E088E20E94B6096FEF8EE24A
S11318600E94B6096FE78BE20E94B60960E08AE045
S11318700E94E20960E08BE00E94E2096CE68CE0E1
S11318800E94E20960E88DE00E94E20960E08EE0D7
S11318900E94E20983E30E94F80987E30E94F809A1
S11318A084E30E94F8090895991B79E004C0991F04
S11318B0961708F0961B881F7A95C9F780950895A6
S11318C097FB072E16F4009407D077FD09D00E94E9
S11318D07A0C07FC05D03EF4909581959F4F0895AE
S11318E0709561957F4F0895EE0FFF1F0590F49159
S11318F0E02D0994AA1BBB1B51E107C0AA1FBB1F03
S1131900A617B70710F0A61BB70B881F991F5A9587
S1131910A9F780959095BC01CD010895F894FFCF67
S9030000FC
