S019000053756273797374656D5F50726F6772616D2E7372656305
S11300000C945D000C946F000C946F000C946F00C2
S11300100C946F000C946F000C946F000C946F00A0
S11300200C946F000C946F000C946F000C946F0090
S11300300C94AD110C946F000C946F000C9481100F
S11300400C94A6100C94CB100C946F000C946F00BD
S11300500C946F000C946F000C946F000C946F0060
S11300600C946F000C946F000C946F000C946F0050
S11300700C946F000C946F000C946F00D800DB009C
S1130080E8005F01EB005F01F8005F010501120168
S11300901F012C012F015F013C015F015F015C0125
S11300A05F0159012D04BF044905BD05FD0579060D
S11300B0F606930739082704420911241FBECFEF1F
S11300C0D8E0DEBFCDBF23E0A0E0B1E001C01D92C7
S11300D0A13CB207E1F70E94980F0C94F2110C9422
S11300E0000082E080937C0082EE80937A0080EAB4
S11300F080937B0008958091F301813019F487E1A6
S11301000E9406118091F301811103C087E10E94CE
S113011046118091DB01813019F488E10E940611B7
S11301208091DB01811103C088E10E94461108958A
S113013021ED31E03093B6032093B5031092B90357
S113014070E07093B1036093B00322E02093AF0397
S113015028E02093B40324E02093F002DC01E1EDD5
S1130160F1E089ED91E02D912193E817F907D9F792
S11301706091F0028EEA93E00E94E3038111F8CFCC
S11301806091F0028EEA93E00E940F0A8130C1F37D
S11301900895CF93DF93EC014D8150E0FA0131973C
S11301A0E431F10508F08BC0E25CFF4F0C94EC11D4
S11301B081E080930B0281E08093D302DE01E8EFBB
S11301C0F1E080E092E02D912193E817F907D9F747
S11301D081E08093B10281E080931002DE01E5EAC0
S11301E0F3E08DEA93E02D912193E817F907D9F70D
S11301F081E08093E801DE01E2E0F1E08AE091E051
S11302002D912193E817F907D9F781E08093D00263
S1130210DE01E9EEF1E081EF91E02D912193E81701
S1130220F907D9F781E08093D502DE01E0E0F3E03D
S113023088E093E02D912193E817F907D9F781E03D
S11302408093D402DE01ECEDF1E084EE91E02D9197
S11302502193E817F907D9F788818093070281E091
S113026080930D02DE01E6EDF2E08EED92E02D9139
S11302702193E817F907D9F78091D202811119C0A7
S11302808091F502811115C087E18093CC0182E051
S11302908093CB0180E18093CA018091070280930F
S11302A0C90181E08093F50261E185EC91E00E944F
S11302B0980088818093F50181E08093F401DF91B7
S11302C0CF9108951092B90395E09093AF0398E00D
S11302D09093B4038093F00281110EC089EA92E0F6
S11302E09093B6038093B5038091C00290E09093FD
S11302F0B1038093B0030895813071F485EB91E0EC
S11303009093B6038093B5038091C10290E09093DB
S1130310B1038093B0030895823071F48DEB91E0C2
S11303209093B6038093B5038091C20290E09093BA
S1130330B1038093B0030895833071F488EC92E0A4
S11303409093B6038093B5038091C30290E0909399
S1130350B1038093B0030895853069F484EE92E08C
S11303609093B6038093B5038091C50290E0909377
S1130370B1038093B0030895811120C01092B90392
S113038085E08093AF0388E08093B4031092F00279
S113039089EA92E09093B6038093B5038091C002FA
S11303A090E09093B1038093B0036091F0028EEAE1
S11303B093E00E94E3038111F8CF0895813001F5A1
S11303C01092B90385E08093AF0388E08093B4036F
S11303D081E08093F00285EB91E09093B6038093E3
S11303E0B50385E190E09093B1038093B0036091ED
S11303F0F0028EEA93E00E94E3038111F8CF08959E
S1130400823009F51092B90385E08093AF0388E048
S11304108093B40382E08093F0028DEB91E090939B
S1130420B6038093B5038091C20290E09093B10328
S11304308093B0036091F0028EEA93E00E94E3039C
S11304408111F8CF0895833009F51092B90385E03E
S11304508093AF0388E08093B40383E08093F00239
S113046088EC92E09093B6038093B5038091C30225
S113047090E09093B1038093B0036091F0028EEA10
S113048093E00E94E3038111F8CF08958530F1F4DD
S11304901092B9038093AF0398E09093B4038093D0
S11304A0F00284EE92E09093B6038093B5038091BA
S11304B0C50290E09093B1038093B0036091F00281
S11304C08EEA93E00E94E3038111F8CF0895CF935D
S11304D0DF9385E00E9462016091F0028EEA93E06E
S11304E00E940F0A813011F18091B7038032D9F450
S11304F0A091B503B091B603C0ECD2E0E8EBF2E012
S11305008D918193EC17FD07D9F78091BE0282305B
S113051021F488EB92E00E94C900E8EBF2E011922A
S1130520EC17FD07E1F785E00E94BC01DF91CF9154
S113053008959F92AF92BF92CF92DF92EF92FF9273
S11305400F931F93CF93DF93912C07EB13E00F2EA0
S1130550F5EBAF2EF3E0BF2EF02DC0ECD2E00F2E62
S1130560F8EBEF2EF2E0FF2EF02D0F2EFEEBCF2E48
S1130570F2E0DF2EF02D892D0E9462016091F002DD
S11305808EEA93E00E940F0A8130E1F0F801808145
S11305908032A9F4F501A081B181F7018D91819395
S11305A0EC17FD07D9F7F6018081823019F4C701F1
S11305B00E94C900F7011192EC17FD07E1F7892D9C
S11305C00E94BC019394F4E09F12D5CF0E9467026D
S11305D0DF91CF911F910F91FF90EF90DF90CF901B
S11305E0BF90AF909F90089589EA92E09093B603EC
S11305F08093B5031092B9038091C00290E0909368
S1130600B1038093B00385E08093AF0388E08093C7
S1130610B4031092F0026091F0028EEA93E00E941B
S1130620E3038111F8CF85EB91E09093B6038093B7
S1130630B5031092B9038091C10290E09093B10385
S11306408093B00385E08093AF0388E08093B40384
S113065081E08093F0026091F0028EEA93E00E94C0
S1130660E3038111F8CF8DEB91E09093B60380936F
S1130670B5031092B9038091C20290E09093B10344
S11306808093B00385E08093AF0388E08093B40344
S113069082E08093F0026091F0028EEA93E00E947F
S11306A0E3038111F8CF88EC92E09093B603809332
S11306B0B5031092B9038091C30290E09093B10303
S11306C08093B00385E08093AF0388E08093B40304
S11306D083E08093F0026091F0028EEA93E00E943E
S11306E0E3038111F8CF84EE92E09093B6038093F4
S11306F0B5031092B9038091C50290E09093B103C1
S11307008093B00385E08093AF0398E09093B403A3
S11307108093F0026091F0028EEA93E00E94E3037A
S11307208111F8CF089580E0ADEEB0E03EEE20E018
S1130730982F9295907F9C93E32FF22F1192E83F8C
S1130740F105E1F78F5F863099F708958091EF0006
S1130750807C61F08091EE00982F907E282F207687
S1130760203231F0903431F08F7108958FEF089575
S1130770892F0895892F0895FC0180E0AAEFB0E045
S11307809C9191938F5F8830D9F7089581E080938D
S1130790D80082E08093E2008CE08093E30087E35A
S11307A08093E40081E008950E94C603882349F001
S11307B00E949303E8EDF0E080818260808381E011
S11307C0089580E00895CF93DF931F92CDB7DEB7ED
S11307D0DC0111968C9111978C30B1F419968C919F
S11307E01997803669F4862F8295807F8093ED0077
S11307F0EFEEF0E080818F7380831092EE006C93B3
S113080019961C9280E007C6862F8295807F80937C
S1130810ED008091EF00807C09F0F9C580E619961F
S11308208C9319976C93EEEEF0E01192E83FF1058A
S1130830E1F711964C91119750E0FA013197EB30A2
S1130840F10508F0E0C5EE5AFF4F0C94EC11169632
S11308508C9116978111B7C4C8C41B968C911B97B1
S11308608823D9F114969C91149792959695977034
S113087015968C911597880F880F880F890F809390
S1130880F30013969C9113979295969597701496EE
S11308908C911497880F880F880F890F8093F2002A
S11308A012969C91129792959695977013968C91A7
S11308B01397880F880F880F890F8093F100129681
S11308C08C911297880F880F880F8093F000EFEEB9
S11308D0F0E08081806180831CC012968C91129715
S11308E086958695869513969C91139720E2929F00
S11308F0800D11248093F30012968C9112978295A7
S1130900880F807E8093F200EFEEF0E080818F7E8E
S1130910808316968C911697882391F020E08AEFB5
S113092090E01796ED91FC911897E20FF11D30813C
S1130930FC0130832F5F16963C911697231788F39A
S11309401A968C911A97882331F0E0EFF0E08081B9
S11309508460808305C0E0EFF0E080818B7F80833A
S1130960EFEEF0E0908116968C91892B8083808144
S11309708F73808380818064808380E04CC51B9664
S11309808C911B978823D9F114969C911497929576
S11309909695977015968C911597880F880F880FE8
S11309A0890F8093F30013969C91139792959695D3
S11309B0977014968C911497880F880F880F890F5D
S11309C08093F20012969C91129792959695977047
S11309D013968C911397880F880F880F890F809333
S11309E0F10012968C911297880F880F880F8093CC
S11309F0F000EFEEF0E08081806180831CC01296ED
S1130A008C91129786958695869513969C9113974B
S1130A10F0E29F9F800D11248093F30012968C9135
S1130A2012978295880F807E8093F200EFEEF0E0BB
S1130A3080818F7E808316968C911697882391F0FF
S1130A4020E08AEF90E01796ED91FC911897E20F61
S1130A50F11D3081FC0130832F5F16963C9116976F
S1130A60231788F31A961C921A97E0EFF0E080811E
S1130A708B7F8083EFEEF0E0908116968C91892B2A
S1130A80808380818F73808380818064808380E011
S1130A90C2C41B968C911B978823D9F114969C9100
S1130AA0149792959695977015968C911597880F33
S1130AB0880F880F890F8093F30013969C911397E6
S1130AC092959695977014968C911497880F880F29
S1130AD0880F890F8093F20012969C911297929539
S1130AE09695977013968C911397880F880F880F9B
S1130AF0890F8093F10012968C911297880F880FBA
S1130B00880F8093F000EFEEF0E0808180618083B5
S1130B101CC012968C91129786958695869513968D
S1130B209C911397F0E29F9F800D11248093F30012
S1130B3012968C9112978295880F807E8093F20092
S1130B40EFEEF0E080818F7E808381E01A968C93B3
S1130B501A97E0EFF0E0808184608083EFEEF0E0AC
S1130B60908116968C91892B808380818F738083EA
S1130B7080818064808380E04EC419829B81929539
S1130B80969597708C81880F880F880F890F8093B2
S1130B90F7009A819295969597708B81880F880FAC
S1130BA0880F890F8093F600998192959695977096
S1130BB08A81880F880F880F890F8093F500298117
S1130BC0220F220F220F84EF90E0FC012083EFEE2E
S1130BD0F0E0308116962C91232B2083DC012C919C
S1130BE02B7F2C932C912E7F2C9380818F73808369
S1130BF080818068808380E00EC48FEF89838A813E
S1130C008295880F807E815E27EF30E0F901808332
S1130C1049814295440F407E86EF90E0FC01408379
S1130C2012964C91129746954695469513965C916B
S1130C301397F0E25F9F400D11244093F300129646
S1130C404C9112974295440F407E4093F2006FEE10
S1130C5070E0FB0140814F7E408319825B81529595
S1130C60569557704C81440F440F440F450FF901BA
S1130C7040833A813295369537702B81220F220FAB
S1130C80220F230FFC0120839981929596959770EA
S1130C908A81880F880F880F890F8093F500298136
S1130CA0220F220F220F84EF90E0FC012083FB012E
S1130CB0308116962C911697232B20831A961C921A
S1130CC0DC012C9124602C93A0EFB0E02C912B7FBD
S1130CD02C9320812F7E2083FC0120812E7F208372
S1130CE0DB018C918F738C938C9180688C9380E062
S1130CF092C38FEF89838A818295880F807E815E7B
S1130D0027EF30E0F901808349814295440F407E0A
S1130D1086EF90E0FC01408312964C911297469521
S1130D204695469513965C911397F0E25F9F400DAC
S1130D3011244093F30012964C9112974295440F5C
S1130D40407E4093F2006FEE70E0FB0140814F7EE5
S1130D50408319825B815295569557704C81440F9C
S1130D60440F440F450FF90140833A81329536957B
S1130D7037702B81220F220F220F230FFC012083B7
S1130D8099819295969597708A81880F880F880F1C
S1130D90890F8093F5002981220F220F220F84EFFF
S1130DA090E0FC012083FB01308116962C9116976C
S1130DB0232B208321E01A962C93DC012C912460B0
S1130DC02C93A0EFB0E02C9124602C9320812F7DF4
S1130DD02083FC0120812E7F2083DB018C918F7383
S1130DE08C938C9180688C9380E015C31B968C91B6
S1130DF01B978823D9F114969C91149792959695F4
S1130E00977015968C911597880F880F880F890F06
S1130E108093F30013969C911397929596959770EF
S1130E2014968C911497880F880F880F890F8093DC
S1130E30F20012969C91129792959695977013963C
S1130E408C911397880F880F880F890F8093F10076
S1130E5012968C911297880F880F880F8093F00058
S1130E60EFEEF0E08081806180831CC012968C914B
S1130E70129786958695869513969C911397E0E232
S1130E809E9F800D11248093F30012968C911297EB
S1130E908295880F807E8093F200EFEEF0E08081EF
S1130EA08F7E80838FEF89839B819295969597702F
S1130EB08C81880F880F880F890F8093F7009A819F
S1130EC09295969597708B81880F880F880F890F5C
S1130ED08093F60099819295969597708A81880FF0
S1130EE0880F880F890F8093F5002981220F220F24
S1130EF0220F84EF90E0FC012083EFEEF0E03081DC
S1130F0016962C91232B2083DC012C912B7F2C9380
S1130F102C9121602C9380818F73808380818068E1
S1130F20808380E078C21B968C911B978823D9F12B
S1130F3014969C91149792959695977015968C910A
S1130F401597880F880F880F890F8093F3001396E5
S1130F509C91139792959695977014968C911497EB
S1130F60880F880F880F890F8093F20012969C9146
S1130F70129792959695977013968C911397880F64
S1130F80880F880F890F8093F10012968C91129725
S1130F90880F880F880F8093F000EFEEF0E08081D7
S1130FA0806180831CC012968C91129786958695D9
S1130FB0869513969C911397E0E29E9F800D1124D1
S1130FC08093F30012968C9112978295880F807EFD
S1130FD08093F200EFEEF0E080818F7E80838FEFCC
S1130FE089839B819295969597708C81880F880F41
S1130FF0880F890F8093F7009A8192959695977040
S11310008B81880F880F880F890F8093F600998150
S11310109295969597708A81880F880F880F890F0B
S11310208093F5002981220F220F220F84EF90E094
S1131030FC012083EFEEF0E0308116962C91169798
S1131040232B20831A961C92DC012C9124602C9370
S1131050A0EFB0E02C912B7F2C93DC012C9121602C
S11310602C9380818F73808380818068808380E06B
S1131070D2C11B968C911B978823D9F114969C910D
S1131080149792959695977015968C911597880F4D
S1131090880F880F890F8093F30013969C91139700
S11310A092959695977014968C911497880F880F43
S11310B0880F890F8093F20012969C911297929553
S11310C09695977013968C911397880F880F880FB5
S11310D0890F8093F10012968C911297880F880FD4
S11310E0880F8093F000EFEEF0E0808180618083D0
S11310F01CC012968C9112978695869586951396A8
S11311009C911397E0E29E9F800D11248093F3003D
S113111012968C9112978295880F807E8093F200AC
S1131120EFEEF0E080818F7E80838FEF89839B8157
S11311309295969597708C81880F880F880F890FE8
S11311408093F7009A819295969597708B81880F7A
S1131150880F880F890F8093F60099819295969550
S113116097708A81880F880F880F890F8093F50004
S11311702981220F220F220F84EF90E0FC012083AB
S1131180EFEEF0E0308116962C911697232B2083F6
S113119021E01A962C93DC012C9124602C93A0EF6F
S11311A0B0E02C9124602C9320812F7D2083DC01DE
S11311B02C9121602C9380818F738083808180683F
S11311C0808380E028C120E08AEF90E01796ED91BB
S11311D0FC911897E20FF11D3081FC0130832F5FE1
S11311E016963C911697231788F319829B81929542
S11311F0969597708C81880F880F880F890F80933C
S1131200F7009A819295969597708B81880F880F35
S1131210880F890F8093F60099819295969597701F
S11312208A81880F880F880F890F8093F5002981A0
S1131230220F220F220F84EF90E0FC012083EFEEB7
S1131240F0E0308116962C911697232B208321E011
S11312501A962C93DC012C9124602C93A0EFB0E01F
S11312602C9124602C93208120622083DC012C911A
S11312702E7F2C9380818F7380838081806880830C
S113128080E0C9C01B968C911B978823D9F11496D2
S11312909C91149792959695977015968C911597A5
S11312A0880F880F880F890F8093F30013969C9101
S11312B0139792959695977014968C911497880F1E
S11312C0880F880F890F8093F20012969C911297D1
S11312D092959695977013968C911397880F880F13
S11312E0880F890F8093F10012968C911297880FC2
S11312F0880F880F8093F000EFEEF0E0808180612A
S113130080831CC012968C9112978695869586953B
S113131013969C911397E0E29E9F800D1124809375
S1131320F30012968C9112978295880F807E809399
S1131330F200EFEEF0E080818F7E808316968C9130
S11313401697882391F020E08AEF90E01796ED91AC
S1131350FC911897E20FF11D3081FC0130832F5F5F
S113136016963C911697231788F38FEF89839B81F8
S11313709295969597708C81880F880F880F890FA6
S11313808093F7009A819295969597708B81880F38
S1131390880F880F890F8093F6009981929596950E
S11313A097708A81880F880F880F890F8093F500C2
S11313B02981220F220F220F84EF90E0FC01208369
S11313C0EFEEF0E0308116962C911697232B2083B4
S11313D021E01A962C93DC012C9124602C93A0EF2D
S11313E0B0E02C9124602C93208120622083DC01C6
S11313F02C9121602C9380818F73808380818068FD
S1131400808380E008C019961C9280E004C08FE1BC
S113141019968C938FEF0F90DF91CF910895CF930E
S1131420DF93EC018985882309F4D5C08F3109F451
S1131430D4C08F3F09F4D3C06295607F6093ED0000
S11314400E94A603803261F020F4882309F4C9C005
S1131450B8C0803409F4AAC0803A09F44EC0B1C0BF
S11314608091F00082FB882780F98A878091EF00C1
S113147084FF2DC081E08B87E3EFF0E080818695C7
S1131480869586958D83A2EFB0E08C9190818695A8
S11314908695869520E2929F800D11248C83E1EF3E
S11314A0F0E080819C9186958695869520E2929FB6
S11314B0800D11248B838091F00090818695869510
S11314C0869520E2929F800D11248A8307C01B8693
S11314D0E3EFF0E080818091F200808180E28987EF
S11314E08F8198850E94BC03EFEEF0E080818F73BA
S11314F080831092EE0080E275C08091F00082FB40
S1131500882780F98A878091EF0084FF2DC081E0CD
S11315108B87E3EFF0E080818695869586958D83B1
S1131520A2EFB0E08C91908186958695869520E215
S1131530929F800D11248C83E1EFF0E080819C91D7
S113154086958695869520E2929F800D11248B8343
S11315508091F000908186958695869520E2929FF1
S1131560800D11248A8313C01B86E3EFF0E0808191
S11315708295869587708B838091F2009081990F74
S1131580990F990F829586958770890F8A8380EACF
S113159089878F8198850E94BC03EFEEF0E08081FB
S11315A08F7380831092EE0080EA1CC080E48987E8
S11315B0EFEEF0E080818F7380831092EE0080E480
S11315C011C08987EFEEF0E080818F7380831092E1
S11315D0EE0082E007C082E005C082E003C082E042
S11315E001C081E0DF91CF91089580618093CC01A7
S11315F082E08093CB0183E18093CA01809107024A
S11316008093C9011092C8011092C7011092C601BB
S11316106093C50161E185EC91E00E949800089512
S113162083E18093CC0182E08093CB0184E08093BA
S1131630CA01809107028093C90161E185EC91E0C0
S11316400E94980010920B02089584E18093CC01CB
S113165081E08093CB01809107028093C9016EE001
S113166085EC91E00E9498001092B10208950F93C6
S11316701F93CF93DF9300D0CDB7DEB71091FC0159
S11316800091FF0102950F701092C8011092C701DA
S11316901092C6011092C5011A3071F4BE016E5F3A
S11316A07F4FCE0101960E94901189818093C601DB
S11316B08A818093C5010EC0113029F48091DE0225
S11316C08093C5010EC0123029F48091DF0280930B
S11316D0C5010DC0133029F480910A028093C5011D
S11316E006C0143021F480910A018093C501006181
S11316F00093CC011092CB011093CA018091070290
S11317008093C9016AE085EC91E00E9498001092F0
S1131710D3020F900F90DF91CF911F910F910895F5
S113172083E18093CC011092CB0182E08093CA01C3
S1131730809107028093C9018091BA038093C50107
S11317406AE085EC91E00E9498001092AD03089540
S11317509091A803E091A503F0E080812091AC036F
S113176020612093CC0122E02093CB0126E020933A
S1131770CA01209107022093C9019093C801809364
S1131780C50161E185EC91E00E949800109210027D
S1131790089580910501209102019091AC03E0919C
S11317A00301F0E0208390619093CC0192E0909348
S11317B0CB0198E09093CA01909107029093C901DC
S11317C08093C80181E08093C50161E185EC91E0DB
S11317D00E9498001092E80108952091EC012A30AB
S11317E069F48091EA0190E0982F88273091E9010B
S11317F0832B9093CE018093CD011EC0213069F4D8
S11318008091EA0190E0982F88273091E901832B99
S113181090930902809308021EC0223069F48091DB
S1131820EA0190E0982F88273091E901832B909367
S11318300A03809309031EC0233069F48091EA01EE
S113184090E0982F88273091E901832B9093B2017F
S11318508093B1011EC0243069F48091EA0190E0C4
S1131860982F88273091E901832B9093A4038093C8
S1131870A3031EC0253069F48091EA0190E0982FFB
S113188088273091E901832B909306028093050207
S11318901EC0263069F48091EA0190E0982F8827D1
S11318A03091E901832B9093E1028093E0021EC002
S11318B0213169F48091EA0190E0982F88273091D2
S11318C0E901832B90930902809308021EC02930FA
S11318D069F48091EA0190E0982F88273091E9011A
S11318E0832B9093B4018093B3011EC02B3069F411
S11318F08091EA0190E0982F88273091E901832BA9
S11319009093F7018093F6011EC02C3069F4809106
S1131910EA0190E0982F88273091E901832B909376
S1131920DA018093D9011EC02D3069F48091EA0157
S113193090E0982F88273091E901832B9093A80198
S11319408093A7011EC02E3069F48091EA0190E0D3
S1131950982F88272091E901822B9093F402809399
S1131960F3021DC02F3069F48091EA0190E0982FB2
S113197088272091E901822B9093E7018093E60167
S11319800EC0203161F48091EA0190E0982F8827FD
S11319902091E901822B9093B3028093B2021092BA
S11319A0D0020895209103032A3069F48091010341
S11319B090E0982F882730910003832B9093D001D7
S11319C08093CF011EC0213069F48091010390E01F
S11319D0982F882730910003832B9093B50280932E
S11319E0B4021EC0223069F48091010390E0982F64
S11319F0882730910003832B9093E5018093E401C1
S1131A001EC0233069F48091010390E0982F882749
S1131A1030910003832B9093B7028093B6021EC0CB
S1131A20243069F48091010390E0982F8827309145
S1131A300003832B9093C7028093C6021EC02530F7
S1131A4069F48091010390E0982F88273091000376
S1131A50832B90930302809302021EC0263069F404
S1131A608091010390E0982F882730910003832B05
S1131A7090930C0180930B011EC0213169F4809175
S1131A80010390E0982F882730910003832B9093D3
S1131A90B5028093B4021EC0293069F48091010319
S1131AA090E0982F882730910003832B9093E302D2
S1131AB08093E2021EC02B3069F48091010390E010
S1131AC0982F882730910003832B909301028093F1
S1131AD000021EC02C3069F48091010390E0982F1D
S1131AE0882730910003832B9093F2028093F102B4
S1131AF01EC02D3069F48091010390E0982F88274F
S1131B0030910003832B90930E0180930D011EC02E
S1131B102E3069F48091010390E0982F882720915A
S1131B200003822B90930F0280930E021DC02F306E
S1131B3069F48091010390E0982F88272091000395
S1131B40822B9093FF028093FE020EC0203161F439
S1131B508091010390E0982F882720910003822B25
S1131B609093ED028093EC021092D5020895809137
S1131B70DF018F3F29F49091DC0190930C020EC099
S1131B808E3F29F48091DC01809304020DC0803FD4
S1131B9029F48091DC018093F30106C0813F21F494
S1131BA08091DC018093DB011092D402089580912E
S1131BB0DD0282958F709091DA02292F30E06091D6
S1131BC00001462F50E04F5F5F4F4217530794F4D4
S1131BD06FEF0E94F50A1092000110920D0210920C
S1131BE0F502E1E1F2E080EA92E01192E817F907E8
S1131BF0E1F708957091D202772351F06FEF0E94BC
S1131C00F50A1092000110920D021092F502089547
S1131C10911103C0662309F447C02417350791F5D1
S1131C209093000141E04093F502F901EE0FFF1F8C
S1131C30EE0FFF1FEF5EFD4F2091D602208320910F
S1131C40D70221832091D80222832091D9022383B1
S1131C509332A9F4109200011092F50291E090934E
S1131C60D202E1E1F2E0AFE0B1E020EA32E09191AA
S1131C709D93E217F307D9F763E20E94F50A1092E5
S1131C800D0208956FEF0E94F50A10920001109260
S1131C90F50210920D02E1E1F2E080EA92E0119285
S1131CA0E817F907E1F7089581E08093F502F90157
S1131CB0EE0FFF1FEE0FFF1FEF5EFD4F8091D60268
S1131CC080838091D70281838091D802828380911E
S1131CD0D9028383D4CF8AE18093CC0182E08093BC
S1131CE0CB0181E18093CA01809107028093C901ED
S1131CF061E185EC91E00E94980008952F923F9253
S1131D004F925F926F927F928F929F92AF92BF9207
S1131D10CF92DF92EF92FF920F931F93CF93DF93B3
S1131D201092F5011092F4010E946B0E8091F4015F
S1131D3081110DC0CAEF03C0C15009F486C08AE006
S1131D4090E00E94C4118091F4018823A9F31092B9
S1131D50F4018091F5018F3F09F477C00F2EFEE066
S1131D604F2EF3E05F2EF02D312CC5ECD1E00F2E79
S1131D70F6ECAF2EF1E0BF2EF02D0F2EF7ECCF2EA8
S1131D80F1E0DF2EF02D0F2EF8ECEF2EF1E0FF2E18
S1131D90F02D0CEC11E00F2EFAE12F2EF02D0F2E6A
S1131DA0FBEC8F2EF1E09F2EF02D0F2EFAEC6F2E10
S1131DB0F1E07F2EF02D08C084E0480E511C809184
S1131DC0F5018F3F09F441C0F20133978081888384
S1131DD031968081F5018083F20131978081F6018B
S1131DE08083F2018081F7018083F801208282E000
S1131DF0F40180838EE0F3018083E9ECF1E030822A
S1131E0061E1CE010E94980081E090E00E94D61129
S1131E103394F6E23F12D0CF8091F50181110CC0CA
S1131E20C4E602C0C15089F084E690E00E94C41167
S1131E308091F5018823B1F3833219F01092F501F2
S1131E4004C01092F5011092D102DF91CF911F913D
S1131E500F91FF90EF90DF90CF90BF90AF909F9045
S1131E608F907F906F905F904F903F902F90089548
S1131E708AE18093CC0182E08093CB0186E1809358
S1131E80CA01809107028093C9018091AC018093BB
S1131E90C8018091AB018093C7018091AA0180930E
S1131EA0C6018091A9018093C50161E185EC91E0AF
S1131EB00E949800089580910B0281110E94100BDA
S1131EC08091B10281110E94250B8091D30281116E
S1131ED00E94370B8091AD0381110E94900B809179
S1131EE0100281110E94A80B8091E80181110E94C7
S1131EF0C90B8091D00281110E94ED0B8091D50213
S1131F0081110E94D20C8091D40281110E94B70DDC
S1131F1080910D0281110E94D70D8091D10281110F
S1131F200E947E0E8091010181110E94380F089554
S1131F30CF93DF9300D000D0CDB7DEB7109200006E
S1131F40E1E6F0E080E8808310828AE18093C002B9
S1131F508BE18093C1028CE18093C2028DE1809376
S1131F60C3028EE18093C4028FE18093C5020F2ED9
S1131F70F8EB8F2EF2E09F2EF02D0F2EF5ECAF2E06
S1131F80F1E0BF2EF02D05EA13E082E091E09C839E
S1131F908B8368EF71E049EE51E020E033E08CED93
S1131FA091E0A6EDB2E0E6EFF2E0FA83E9830F2ECA
S1131FB0F9EACF2EF1E0DF2EF02D6894FF24F3F838
S1131FC0F40111924F01F50111925F01F801119290
S1131FD08F01EB81FC811192FC83EB83FB01119255
S1131FE0BF01FA011192AF01F90111929F01FC01A5
S1131FF01192CF011D92E981FA811192FA83E9834A
S1132000F60111926F01FA94D9F6E1E1F2E02BE0C6
S113201033E04FE051E089EA92E01192D9011D9238
S11320209D01DA011D92AD01E817F907B1F710928D
S11320300B021092B1021092D3021092100210926D
S1132040E8011092D0021092D5021092D40210929C
S11320500D02109200011092D2021092D10210923D
S1132060F5011092F4011092F502109201018EEF25
S113207084B981E187B918B889E08AB981E08BB95C
S11320801DB81EB80E94BC110E94710080E00E941D
S1132090D4030E94F4020E9486112FE088E190E0AC
S11320A00FB6F894A895809360000FBE209360004B
S11320B08DE10E9406110E94F3108FE380930C02BD
S11320C08FE18093040281E08093F3018093DB012C
S11320D08FEB8093DE028FE08093DF028FE58093A5
S11320E00A028FE280930A0178940E948C11A895C9
S11320F00E9499020E94FF100E947B000E945B0FC5
S1132100F6CF1F920F920FB60F9211242F933F9385
S11321104F935F936F937F938F939F93AF93BF93EB
S1132120EF93FF938BE10E944611FF91EF91BF91D2
S1132130AF919F918F917F916F915F914F913F915B
S11321402F910F900FBE0F901F9018951F920F9212
S11321500FB60F9211242F933F934F935F936F9376
S11321607F938F939F93AF93BF93EF93FF938EE1EE
S11321700E944611FF91EF91BF91AF919F918F9172
S11321807F916F915F914F913F912F910F900FBE6F
S11321900F901F9018951F920F920FB60F92112453
S11321A02F933F934F935F936F937F938F939F935B
S11321B0AF93BF93EF93FF938BE10E9406118EE1DF
S11321C00E940611FF91EF91BF91AF919F918F9162
S11321D07F916F915F914F913F912F910F900FBE1F
S11321E00F901F90189516BC8FE387BD8FEB88BDA9
S11321F014BC85E085BD87E080936E0008958091CE
S11322000C0287BD8091040288BD08958D3011F4BD
S11322105D9A08C08E3011F45E9A08C08F3011F4B4
S11322205F9A08C0803111F42A9A08C0813111F4F0
S1132230449A08C0823111F4459A08C0863111F4D9
S1132240469A08C0873111F42B9A08C0883111F4DA
S11322502C9A08C0893111F4479A08C08A3111F4C4
S11322602D9A08C08B3111F42E9A08C08C3111F4C8
S11322702F9A08C08D3111F4589A08958E3111F4B3
S1132280409A0895803209F4599A08958D3011F4D2
S11322905D9808C08E3011F45E9808C08F3011F438
S11322A05F9808C0803111F42A9808C0813111F474
S11322B0449808C0823111F4459808C0863111F45D
S11322C0469808C0873111F42B9808C0883111F45E
S11322D02C9808C0893111F4479808C08A3111F448
S11322E02D9808C08B3111F42E9808C08C3111F44C
S11322F02F9808C08D3111F4589808958E3111F437
S113230040980895803209F45998089585B78F77D5
S113231085BF83E58CBD0895449A08954498089533
S11323200F931F93CF93DF938C01EB010E948E11C7
S11323301EBC80E890E00E94D6118EB5F80180831F
S113234080E890E00E94D6118EB588830E948C119B
S1132350DF91CF911F910F9108951F920F920FB6A5
S11323600F9211248F9381E08093C0038F910F907B
S11323700FBE0F901F90189510926F00109280005E
S11323808AE08093810008951092C0031092850022
S113239010928400909389008093880082E0809357
S11323A06F008091C0038823E1F308950F931F9376
S11323B0CF93DF938C01009751F0C0E0D0E088EE1A
S11323C093E00E94C4112196C017D107C1F7DF9191
S11323D0CF911F910F910895EE0FFF1F0590F49177
S10B23E0E02D0994F894FFCFED
S9030000FC
