:100000000C9449000C945B000C945B000C945B0016
:100010000C945B000C945B000C945B000C945B00F4
:100020000C945B000C945B000C945B000C945B00E4
:100030000C944F090C945B000C945B000C945B00D7
:100040000C945B000C945B000C945B000C945B00C4
:100050000C945B000C945B000C945B000C945B00B4
:100060000C945B000C945B000C945B000C945B00A4
:100070000C945B000C945B000C945B0078010A020A
:10008000940208034803C4034104DE04840572019A
:100090008D0611241FBECFEFD8E0DEBFCDBF21E01B
:1000A000A0E0B1E001C01D92A235B207E1F70E94C5
:1000B00069080C94F50B0C94000082E080937C009E
:1000C00082EE80937A0080EA80937B000895E8E7CF
:1000D000F0E02081DC012C93218111962C9308956E
:1000E00028E131E0309328012093270110922B0161
:1000F00070E0709323016093220122E0209321019C
:1001000028E02093260124E020934F01DC01E8E160
:10011000F1E080E291E02D912193E817F907D9F7FA
:1001200060914F0180E291E00E942E018111F8CF91
:1001300060914F0180E291E00E945A078130C1F343
:1001400008958DE291E09093280180932701109209
:100150002B0184E190E0909323018093220185E0BC
:100160008093210188E08093260110924F016091D5
:100170004F0180E291E00E942E018111F8CF87E4C7
:1001800091E0909328018093270110922B0189E13F
:1001900090E0909323018093220185E080932101D8
:1001A00098E09093260180934F0160914F0180E287
:1001B00091E00E942E018111F8CF089580E0ADEE0C
:1001C000B0E03EEE20E0982F9295907F9C93E32F35
:1001D000F22F1192E83FF105E1F78F5F863099F732
:1001E00008958091EF00807C61F08091EE00982F5F
:1001F000907E282F2076203231F0903431F08F71AC
:1002000008958FEF0895892F0895892F0895FC018F
:1002100080E0AAEFB0E09C9191938F5F8830D9F78E
:10022000089581E08093D80082E08093E2008CE022
:100230008093E30087E38093E40081E008950E94C7
:100240001101882349F00E94DE00E8EDF0E0808192
:100250008260808381E0089580E00895CF93DF93EA
:100260001F92CDB7DEB7DC0111968C9111978C30BF
:10027000B1F419968C911997803669F4862F82957E
:10028000807F8093ED00EFEEF0E080818F738083BC
:100290001092EE006C9319961C9280E007C6862F90
:1002A0008295807F8093ED008091EF00807C09F043
:1002B000F9C580E619968C9319976C93EEEEF0E0F1
:1002C0001192E83FF105E1F711964C91119750E03A
:1002D000FA013197EB30F10508F0E0C5E25CFF4F21
:1002E0000C94DB0B16968C9116978111B7C4C8C479
:1002F0001B968C911B978823D9F114969C91149787
:1003000092959695977015968C911597880F880FF2
:10031000880F890F8093F30013969C911397929501
:100320009695977014968C911497880F880F880F64
:10033000890F8093F20012969C9112979295969550
:10034000977013968C911397880F880F880F890FD9
:100350008093F10012968C911297880F880F880F66
:100360008093F000EFEEF0E08081806180831CC01C
:1003700012968C91129786958695869513969C91E8
:10038000139720E2929F800D11248093F300129620
:100390008C9112978295880F807E8093F200EFEE09
:1003A000F0E080818F7E808316968C91169788234B
:1003B00091F020E08AEF90E01796ED91FC9118976C
:1003C000E20FF11D3081FC0130832F5F16963C91C6
:1003D0001697231788F31A968C911A97882331F071
:1003E000E0EFF0E080818460808305C0E0EFF0E022
:1003F00080818B7F8083EFEEF0E0908116968C9168
:10040000892B808380818F73808380818064808347
:1004100080E04CC51B968C911B978823D9F11496CC
:100420009C91149792959695977015968C91159727
:10043000880F880F880F890F8093F30013969C9183
:10044000139792959695977014968C911497880FA0
:10045000880F880F890F8093F20012969C91129753
:1004600092959695977013968C911397880F880F95
:10047000880F890F8093F10012968C911297880F44
:10048000880F880F8093F000EFEEF0E080818061AC
:1004900080831CC012968C911297869586958695BE
:1004A00013969C911397F0E29F9F800D11248093E7
:1004B000F30012968C9112978295880F807E80931C
:1004C000F200EFEEF0E080818F7E808316968C91B3
:1004D0001697882391F020E08AEF90E01796ED912F
:1004E000FC911897E20FF11D3081FC0130832F5FE2
:1004F00016963C911697231788F31A961C921A9712
:10050000E0EFF0E080818B7F8083EFEEF0E0908180
:1005100016968C91892B808380818F738083808154
:100520008064808380E0C2C41B968C911B978823D3
:10053000D9F114969C91149792959695977015966B
:100540008C911597880F880F880F890F8093F3007F
:1005500013969C91139792959695977014968C91FB
:100560001497880F880F880F890F8093F2001296D6
:100570009C91129792959695977013968C911397DC
:10058000880F880F880F890F8093F10012968C9145
:100590001297880F880F880F8093F000EFEEF0E03D
:1005A0008081806180831CC012968C911297869501
:1005B0008695869513969C911397F0E29F9F800DE8
:1005C00011248093F30012968C9112978295880FD4
:1005D000807E8093F200EFEEF0E080818F7E80835A
:1005E00081E01A968C931A97E0EFF0E080818460A6
:1005F0008083EFEEF0E0908116968C91892B8083BA
:1006000080818F73808380818064808380E04EC48A
:1006100019829B819295969597708C81880F880F8F
:10062000880F890F8093F7009A819295969597701D
:100630008B81880F880F880F890F8093F60099812E
:100640009295969597708A81880F880F880F890FE9
:100650008093F5002981220F220F220F84EF90E072
:10066000FC012083EFEEF0E0308116962C91232BD5
:100670002083DC012C912B7F2C932C912E7F2C93AB
:1006800080818F73808380818068808380E00EC446
:100690008FEF89838A818295880F807E815E27EF24
:1006A00030E0F901808349814295440F407E86EF16
:1006B00090E0FC01408312964C9112974695469526
:1006C000469513965C911397F0E25F9F400D1124BD
:1006D0004093F30012964C9112974295440F407E3E
:1006E0004093F2006FEE70E0FB0140814F7E40834B
:1006F00019825B815295569557704C81440F440F77
:10070000440F450FF90140833A8132953695377091
:100710002B81220F220F220F230FFC0120839981AE
:100720009295969597708A81880F880F880F890F08
:100730008093F5002981220F220F220F84EF90E091
:10074000FC012083FB01308116962C911697232BF8
:1007500020831A961C92DC012C9124602C93A0EF2C
:10076000B0E02C912B7F2C9320812F7E2083FC01E5
:1007700020812E7F2083DB018C918F738C938C9151
:1007800080688C9380E092C38FEF89838A81829501
:10079000880F807E815E27EF30E0F90180834981F8
:1007A0004295440F407E86EF90E0FC014083129614
:1007B0004C91129746954695469513965C911397E2
:1007C000F0E25F9F400D11244093F30012964C918C
:1007D00012974295440F407E4093F2006FEE70E016
:1007E000FB0140814F7E408319825B815295569573
:1007F00057704C81440F440F440F450FF90140835B
:100800003A813295369537702B81220F220F220FB5
:10081000230FFC01208399819295969597708A8188
:10082000880F880F880F890F8093F5002981220F88
:10083000220F220F84EF90E0FC012083FB01308126
:1008400016962C911697232B208321E01A962C9331
:10085000DC012C9124602C93A0EFB0E02C9124605B
:100860002C9320812F7D2083FC0120812E7F2083EB
:10087000DB018C918F738C938C9180688C9380E0DA
:1008800015C31B968C911B978823D9F114969C91C4
:10089000149792959695977015968C911597880F49
:1008A000880F880F890F8093F30013969C911397FC
:1008B00092959695977014968C911497880F880F3F
:1008C000880F890F8093F20012969C91129792954F
:1008D0009695977013968C911397880F880F880FB1
:1008E000890F8093F10012968C911297880F880FD0
:1008F000880F8093F000EFEEF0E0808180618083CC
:100900001CC012968C9112978695869586951396A3
:100910009C911397E0E29E9F800D11248093F30039
:1009200012968C9112978295880F807E8093F200A8
:10093000EFEEF0E080818F7E80838FEF89839B8153
:100940009295969597708C81880F880F880F890FE4
:100950008093F7009A819295969597708B81880F76
:10096000880F880F890F8093F6009981929596954C
:1009700097708A81880F880F880F890F8093F50000
:100980002981220F220F220F84EF90E0FC012083A7
:10099000EFEEF0E0308116962C91232B2083DC01C2
:1009A0002C912B7F2C932C9121602C9380818F7321
:1009B000808380818068808380E078C21B968C91E0
:1009C0001B978823D9F114969C911497929596952C
:1009D000977015968C911597880F880F880F890F3F
:1009E0008093F30013969C91139792959695977028
:1009F00014968C911497880F880F880F890F809315
:100A0000F20012969C911297929596959770139674
:100A10008C911397880F880F880F890F8093F100AE
:100A200012968C911297880F880F880F8093F00090
:100A3000EFEEF0E08081806180831CC012968C9183
:100A4000129786958695869513969C911397E0E26A
:100A50009E9F800D11248093F30012968C91129723
:100A60008295880F807E8093F200EFEEF0E0808127
:100A70008F7E80838FEF89839B8192959695977067
:100A80008C81880F880F880F890F8093F7009A81D7
:100A90009295969597708B81880F880F880F890F94
:100AA0008093F60099819295969597708A81880F28
:100AB000880F880F890F8093F5002981220F220F5C
:100AC000220F84EF90E0FC012083EFEEF0E0308114
:100AD00016962C911697232B20831A961C92DC01D4
:100AE0002C9124602C93A0EFB0E02C912B7F2C93C1
:100AF000DC012C9121602C9380818F738083808115
:100B00008068808380E0D2C11B968C911B978823DC
:100B1000D9F114969C911497929596959770159685
:100B20008C911597880F880F880F890F8093F30099
:100B300013969C91139792959695977014968C9115
:100B40001497880F880F880F890F8093F2001296F0
:100B50009C91129792959695977013968C911397F6
:100B6000880F880F880F890F8093F10012968C915F
:100B70001297880F880F880F8093F000EFEEF0E057
:100B80008081806180831CC012968C91129786951B
:100B90008695869513969C911397E0E29E9F800D13
:100BA00011248093F30012968C9112978295880FEE
:100BB000807E8093F200EFEEF0E080818F7E808374
:100BC0008FEF89839B819295969597708C81880F82
:100BD000880F880F890F8093F7009A8192959695D8
:100BE00097708B81880F880F880F890F8093F6008C
:100BF00099819295969597708A81880F880F880FB2
:100C0000890F8093F5002981220F220F220F84EF94
:100C100090E0FC012083EFEEF0E0308116962C91FD
:100C20001697232B208321E01A962C93DC012C911C
:100C300024602C93A0EFB0E02C9124602C932081B1
:100C40002F7D2083DC012C9121602C9380818F7378
:100C5000808380818068808380E028C120E08AEFE3
:100C600090E01796ED91FC911897E20FF11D3081FD
:100C7000FC0130832F5F16963C911697231788F35B
:100C800019829B819295969597708C81880F880F19
:100C9000880F890F8093F7009A81929596959770A7
:100CA0008B81880F880F880F890F8093F6009981B8
:100CB0009295969597708A81880F880F880F890F73
:100CC0008093F5002981220F220F220F84EF90E0FC
:100CD000FC012083EFEEF0E0308116962C91169700
:100CE000232B208321E01A962C93DC012C91246085
:100CF0002C93A0EFB0E02C9124602C9320812062F3
:100D00002083DC012C912E7F2C9380818F73808334
:100D100080818068808380E0C9C01B968C911B977E
:100D20008823D9F114969C91149792959695977073
:100D300015968C911597880F880F880F890F8093CF
:100D4000F30013969C91139792959695977014962D
:100D50008C911497880F880F880F890F8093F20069
:100D600012969C91129792959695977013968C91E6
:100D70001397880F880F880F890F8093F1001296C0
:100D80008C911297880F880F880F8093F000EFEEF8
:100D9000F0E08081806180831CC012968C91129754
:100DA00086958695869513969C911397E0E29E9F73
:100DB000800D11248093F30012968C9112978295E6
:100DC000880F807E8093F200EFEEF0E080818F7ECE
:100DD000808316968C911697882391F020E08AEFF5
:100DE00090E01796ED91FC911897E20FF11D30817C
:100DF000FC0130832F5F16963C911697231788F3DA
:100E00008FEF89839B819295969597708C81880F3F
:100E1000880F880F890F8093F7009A819295969595
:100E200097708B81880F880F880F890F8093F60049
:100E300099819295969597708A81880F880F880F6F
:100E4000890F8093F5002981220F220F220F84EF52
:100E500090E0FC012083EFEEF0E0308116962C91BB
:100E60001697232B208321E01A962C93DC012C91DA
:100E700024602C93A0EFB0E02C9124602C9320816F
:100E800020622083DC012C9121602C9380818F7360
:100E9000808380818068808380E008C019961C92DE
:100EA00080E004C08FE119968C938FEF0F90DF9153
:100EB000CF910895CF93DF93EC018985882309F4BE
:100EC000E3C08F3109F4E2C08F3F09F4E1C06295BD
:100ED000607F6093ED000E94F100803261F020F4A9
:100EE000882309F4D7C0C6C0803409F4B8C0803A5A
:100EF00009F45CC0BFC087E00E944E0884E690E021
:100F00000E94780987E00E944E0884E690E00E94E3
:100F100078098091F00082FB882780F98A87809188
:100F2000EF0084FF2DC081E08B87E3EFF0E080814C
:100F30008695869586958D83A2EFB0E08C91908101
:100F400086958695869520E2929F800D11248C834C
:100F5000E1EFF0E080819C9186958695869520E270
:100F6000929F800D11248B838091F0009081869553
:100F70008695869520E2929F800D11248A8307C072
:100F80001B86E3EFF0E080818091F200808180E2B7
:100F900089878F8198850E940701EFEEF0E08081BC
:100FA0008F7380831092EE0080E275C08091F00014
:100FB00082FB882780F98A878091EF0084FF2DC00B
:100FC00081E08B87E3EFF0E08081869586958695BA
:100FD0008D83A2EFB0E08C91908186958695869561
:100FE00020E2929F800D11248C83E1EFF0E080815C
:100FF0009C9186958695869520E2929F800D11247E
:101000008B838091F000908186958695869520E26D
:10101000929F800D11248A8313C01B86E3EFF0E0BA
:1010200080818295869587708B838091F200908174
:10103000990F990F990F829586958770890F8A83EA
:1010400080EA89878F8198850E940701EFEEF0E0A2
:1010500080818F7380831092EE0080EA1CC080E450
:101060008987EFEEF0E080818F7380831092EE002D
:1010700080E411C08987EFEEF0E080818F73808378
:101080001092EE0082E007C082E005C082E003C05B
:1010900082E001C081E0DF91CF910895873029F48B
:1010A0002BB191E092279BB907C0833029F498B106
:1010B00081E0892788B9089545B121E030E0B90180
:1010C00002C0660F771F8A95E2F7CB01842785B9A6
:1010D0000895E1E6F0E080E8808310828EEF84B925
:1010E00081E087B918B899E09AB98BB91DB81BB8D7
:1010F0000E945E090E945D0080E00E941F010E9424
:10110000A1000E941D090E94090A86E30E94BA09F3
:10111000789483E00E944E0884EF91E00E94780961
:1011200083E00E944E088AEF90E00E947809E6E38F
:10113000F1E08EE391E01192E817F907E1F71092E0
:101140002C01109235011092460100E111E0C8E136
:10115000D1E00F2EFBEACF2EF02D0F2EF0EFDF2E79
:10116000F02D902EA12E0F2EF3E1EF2EF1E0FF2EA9
:10117000F02D0F2EF5E58F2EF02D0E94480980E509
:1011800090E00E9466096FEF8AE00E9494090E9435
:101190004C090E94480980E590E00E9466098AE0B7
:1011A0000E948E09B82E0E944C09BB2071F083E08A
:1011B0000E944E0884E690E00E94780983E00E9435
:1011C0004E0884E690E00E94780980912C018130DD
:1011D00069F4E92DFA2DC192EC17FD07E1F761E101
:1011E000892D9A2D0E94700010922C01809135015A
:1011F000813069F4E92DFA2DD192EC17FD07E1F762
:1012000060E1892D9A2D0E94700010923501809125
:101210004601813009F0B1CFF8011192EC17FD07BA
:10122000E1F7C8010E946700F70180826AE0C80107
:101230000E94700010924601A0CF85B78F7785BFBE
:101240008CB58F758B658CBD08958EBD0DB407FC74
:1012500004C089EE8150F1F7089527E030E060E0A6
:1012600090E0AC01022E02C0440F551F0A94E2F731
:10127000441F4427441F50E0022E02C0440F551F54
:101280000A94E2F7640F2150310958F7862F089528
:101290008BB188708BB908958BB11BB808951F92DC
:1012A0000F920FB60F9211248F9381E0809351011A
:1012B0008F910F900FBE0F901F90189510926F0096
:1012C000109280008AE0809381000895109251016D
:1012D000109285001092840090938900809388007A
:1012E00082E080936F00809151018823E1F308959B
:1012F0000F931F93CF93DF938C01009751F0C0E0C1
:10130000D0E088EE93E00E9466092196C017D107CD
:10131000C1F7DF91CF911F910F9108950E94250988
:1013200080E00E9425090895CF93C62F0E942509C9
:101330008C2F0E942509CF910895CF93C82F87E560
:101340000E9425098C2F0E94250980E00E94250912
:10135000CF910895CF93DF93D82FC62F87E50E94B2
:1013600025098D2F0E9425098C2F0E942509DF91C8
:10137000CF9108950E94250908951F93CF93DF937D
:10138000C82F162FD42F0E948E09282F52E05127E4
:10139000382F5D9F300D1124652F0E94BB0BE32F6A
:1013A000E90F822F90E0452F50E0BA01660F771FBA
:1013B0000E94C70B6E2F681B8C2F0E949409DF912F
:1013C000CF911F9108951F93CF93DF93C82F162FAE
:1013D000D42F0E949D09282F52E05127382F5D9F5E
:1013E000300D1124652F0E94BB0BE32FE90F822FD4
:1013F00090E0452F50E0BA01660F771F0E94C70B9F
:101400006E2F681B8C2F0E94AA09DF91CF911F912C
:1014100008950E944C0980E30E94BA0986E30E9465
:10142000BA098AE30E94BA098BE30E94BA0960E014
:1014300082E10E94AA096FE583E10E94AA0960E4A3
:1014400086E10E94AA096EE087E10E94AA0963E092
:1014500089E10E94AA0963E38BE10E94AA0967E17E
:101460008DE10E94AA0960E58FE10E94AA096EE65B
:1014700080E20E94AA0964E181E20E94AA096CEA62
:1014800082E20E94AA0964EB87E20E94AA096EE048
:1014900082E30E94AA0963E086E30E94AA0964E04D
:1014A00080E00E94AA0960E083E00E94AA0960E04F
:1014B00089E00E94AA0962E08FE00E94AA0966EA18
:1014C00080E10E94AA0964E081E10E94AA0960E02B
:1014D0008AE10E94AA096FEF8CE10E94AA0960E0EC
:1014E0008EE10E94AA096EE680E20E94AA0964E1E8
:1014F00083E20E94AA0960E084E20E94AA0960E0F7
:1015000088E20E94AA0962E089E20E94AA0960E0DA
:101510008AE20E94AA0960E08BE20E94AA0960E1C7
:101520008CE20E94AA0960E08DE20E94AA0960E0B4
:101530008EE20E94AA0961E08FE20E94AA0961E09E
:1015400080E30E94AA0961E081E30E94AA0960EA9F
:1015500083E30E94AA0963E084E30E94AA0960E091
:1015600088E30E94AA0960E089E30E94AA0960E07A
:1015700088E60E94AA0960E08BE70E94AA096FE34F
:101580008CE70E94AA0960E086E90E94AA0960E04F
:1015900087E90E94AA0960E088E90E94AA0960E040
:1015A00089E90E94AA0960E08AE90E94AA096BE021
:1015B0008BE90E94AA0960E48CE90E94AA0960E014
:1015C0008DE90E94AA0960E08EE90E94AA096CE3F5
:1015D0008FE90E94AA0960E080EA0E94AA096BE0F4
:1015E00088E00E9494096DE083E10E94940964E020
:1015F00086E20E94940960E088E20E9494096FE705
:101600008BE20E94940960E085E00E94AA0960E0F4
:1016100084E10E94AA0960E086E20E94AA0964E0CF
:1016200085E30E94AA0961ED8AE70E94AA0961E0A8
:101630008DE80E94AA096BE088E00E9494096CE1A1
:101640008CE00E94940960E080E10E94940964E0CB
:1016500081E10E94940965E083E10E94940969EAAE
:101660008CE10E9494096FEC8DE10E94940960E086
:101670008EE10E94940963E080E20E94940960E098
:101680008EE20E94940960E080E00E94AA0968E46A
:101690008AE00E94940965E08BE00E94940964E06E
:1016A00081E20E94940960E08DE00E94940940E08C
:1016B00065E08EE00E94BD0940E067E082E00E94A4
:1016C000E30940E066E082E00E94E30940E066E072
:1016D00088E00E94BD0967E189E00E94940963E9FE
:1016E00084E00E9494096BE085E00E94940961E522
:1016F00086E00E9494096EED87E00E94940941E023
:1017000066E082E10E94BD0940E066E083E10E945C
:10171000BD0960E086E20E94940960E088E20E94D0
:1017200094096FEF8EE20E9494096FE78BE20E94AA
:10173000940960E08AE00E94AA0960E08BE00E94C0
:10174000AA096CE68CE00E94AA0960E88DE00E947C
:10175000AA0960E08EE00E94AA0961E180E00E948F
:10176000940983E30E94BA0987E30E94BA0984E3DB
:101770000E94BA090895991B79E004C0991F961731
:1017800008F0961B881F7A95C9F78095089597FBF6
:10179000072E16F4009407D077FD09D00E94E10BC4
:1017A00007FC05D03EF4909581959F4F0895709564
:1017B00061957F4F0895EE0FFF1F0590F491E02D86
:1017C0000994AA1BBB1B51E107C0AA1FBB1FA61788
:1017D000B70710F0A61BB70B881F991F5A95A9F7DA
:0E17E00080959095BC01CD010895F894FFCF3F
:00000001FF
