:100000000C9449000C945B000C945B000C945B0016
:100010000C945B000C945B000C945B000C945B00F4
:100020000C945B000C945B000C945B000C945B00E4
:100030000C943D0A0C945B000C945B000C945B00E8
:100040000C945B000C945B000C945B000C945B00C4
:100050000C945B000C945B000C945B000C945B00B4
:100060000C945B000C945B000C945B000C945B00A4
:100070000C945B000C945B000C945B004702D9026B
:100080006303D703170493041005AD05530641021B
:100090005C0711241FBECFEFD8E0DEBFCDBF21E04B
:1000A000A0E0B1E001C01D92A935B207E1F70E94BE
:1000B00038090C94840C0C94000082E080937C003E
:1000C00082EE80937A0080EA80937B000895CF933C
:1000D000DF938DE291E090932801809327011092A5
:1000E0002B0184E190E0909323018093220185E02D
:1000F0008093210188E08093260110924F0160E0F7
:1001000080E291E00E942908813009F4A7C0809123
:100110002901803209F080C0A0912701B091280107
:10012000CEE3D1E0E6E3F1E08D918193EC17FD079A
:10013000D9F7809136018F3FA1F5809137018F3F2C
:1001400009F089C0809138018F3F09F084C0809107
:1001500039018F3F09F07FC080913A018F3F09F04C
:100160007AC080913B018F3F09F075C080913C01BE
:100170008F3F09F070C080913D018F3F09F06BC047
:1001800083E00E941D0984E690E00E94660A83E0F5
:100190000E941D0984E690E00E94660A81E0809337
:1001A0002C0180913601853509F055C080913701C9
:1001B000853509F050C080913801853509F04BC074
:1001C00080913901853509F046C080913A01853525
:1001D00009F041C080913B018535E9F580913C01F2
:1001E0008535C9F580913D018535A9F587E00E94E7
:1001F0001D0984E690E00E94660A87E00E941D09BE
:1002000084E690E00E94660A81E08093460123C064
:100210001192EC17FD07E1F78DE291E09093280130
:100220008093270110922B0184E190E090932301A9
:100230008093220185E08093210188E0809326014C
:1002400010924F0160914F0180E291E00E94FD0108
:100250008111F8CF03C0E6E3F1E0DACFDF91CF916F
:10026000089528E131E0309328012093270110926E
:100270002B0170E0709323016093220122E0209310
:10028000210128E02093260124E020934F01DC0186
:10029000E8E1F1E080E291E02D912193E817F90780
:1002A000D9F760914F0180E291E00E94FD01811138
:1002B000F8CF60914F0180E291E00E9429088130DF
:1002C000C1F308958DE291E0909328018093270176
:1002D00010922B0184E190E09093230180932201FE
:1002E00085E08093210188E08093260110924F01E0
:1002F00060914F0180E291E00E94FD018111F8CFF1
:1003000087E491E0909328018093270110922B01BC
:1003100089E190E0909323018093220185E080930E
:10032000210198E09093260180934F0160914F0145
:1003300080E291E00E94FD018111F8CFE6E3F1E057
:100340008EE391E01192E817F907E1F710922C0182
:100350001092350110924601089580E0ADEEB0E0B4
:100360003EEE20E0982F9295907F9C93E32FF22F02
:100370001192E83FF105E1F78F5F863099F7089514
:100380008091EF00807C61F08091EE00982F907E4C
:10039000282F2076203231F0903431F08F7108957B
:1003A0008FEF0895892F0895892F0895FC0180E02B
:1003B000AAEFB0E09C9191938F5F8830D9F70895B0
:1003C00081E08093D80082E08093E2008CE080930B
:1003D000E30087E38093E40081E008950E94E00158
:1003E000882349F00E94AD01E8EDF0E08081826051
:1003F000808381E0089580E00895CF93DF931F927A
:10040000CDB7DEB7DC0111968C9111978C30B1F429
:1004100019968C911997803669F4862F8295807F82
:100420008093ED00EFEEF0E080818F738083109277
:10043000EE006C9319961C9280E007C6862F829579
:10044000807F8093ED008091EF00807C09F0F9C5FA
:1004500080E619968C9319976C93EEEEF0E011926A
:10046000E83FF105E1F711964C91119750E0FA0140
:100470003197EB30F10508F0E0C5E25CFF4F0C94DA
:100480007E0C16968C9116978111B7C4C8C41B9622
:100490008C911B978823D9F114969C91149792956F
:1004A0009695977015968C911597880F880F880FE1
:1004B000890F8093F30013969C91139792959695CC
:1004C000977014968C911497880F880F880F890F56
:1004D0008093F20012969C91129792959695977040
:1004E00013968C911397880F880F880F890F80932C
:1004F000F10012968C911297880F880F880F8093C5
:10050000F000EFEEF0E08081806180831CC01296E5
:100510008C91129786958695869513969C91139744
:1005200020E2929F800D11248093F30012968C910B
:1005300012978295880F807E8093F200EFEEF0E0B4
:1005400080818F7E808316968C911697882391F0F8
:1005500020E08AEF90E01796ED91FC911897E20F5A
:10056000F11D3081FC0130832F5F16963C91169768
:10057000231788F31A968C911A97882331F0E0EFAD
:10058000F0E080818460808305C0E0EFF0E080814E
:100590008B7F8083EFEEF0E0908116968C91892B13
:1005A000808380818F73808380818064808380E0FA
:1005B0004CC51B968C911B978823D9F114969C915E
:1005C000149792959695977015968C911597880F1C
:1005D000880F880F890F8093F30013969C911397CF
:1005E00092959695977014968C911497880F880F12
:1005F000880F890F8093F20012969C911297929522
:100600009695977013968C911397880F880F880F83
:10061000890F8093F10012968C911297880F880FA2
:10062000880F8093F000EFEEF0E08081806180839E
:100630001CC012968C911297869586958695139676
:100640009C911397F0E29F9F800D11248093F300FB
:1006500012968C9112978295880F807E8093F2007B
:10066000EFEEF0E080818F7E808316968C91169756
:10067000882391F020E08AEF90E01796ED91FC91AD
:100680001897E20FF11D3081FC0130832F5F169621
:100690003C911697231788F31A961C921A97E0EF4D
:1006A000F0E080818B7F8083EFEEF0E09081169602
:1006B0008C91892B808380818F738083808180647B
:1006C000808380E0C2C41B968C911B978823D9F14C
:1006D00014969C91149792959695977015968C9177
:1006E0001597880F880F880F890F8093F300139652
:1006F0009C91139792959695977014968C91149758
:10070000880F880F880F890F8093F20012969C91B2
:10071000129792959695977013968C911397880FD0
:10072000880F880F890F8093F10012968C91129791
:10073000880F880F880F8093F000EFEEF0E0808143
:10074000806180831CC012968C9112978695869545
:10075000869513969C911397F0E29F9F800D11242C
:100760008093F30012968C9112978295880F807E69
:100770008093F200EFEEF0E080818F7E808381E055
:100780001A968C931A97E0EFF0E080818460808362
:10079000EFEEF0E0908116968C91892B808380811A
:1007A0008F73808380818064808380E04EC419824F
:1007B0009B819295969597708C81880F880F880FF2
:1007C000890F8093F7009A819295969597708B8107
:1007D000880F880F880F890F8093F6009981929572
:1007E000969597708A81880F880F880F890F80935C
:1007F000F5002981220F220F220F84EF90E0FC01E7
:100800002083EFEEF0E0308116962C91232B20838D
:10081000DC012C912B7F2C932C912E7F2C938081AB
:100820008F73808380818068808380E00EC48FEF27
:1008300089838A818295880F807E815E27EF30E0F0
:10084000F901808349814295440F407E86EF90E014
:10085000FC01408312964C91129746954695469519
:1008600013965C911397F0E25F9F400D1124409323
:10087000F30012964C9112974295440F407E40939C
:10088000F2006FEE70E0FB0140814F7E40831982E1
:100890005B815295569557704C81440F440F440F1D
:1008A000450FF90140833A813295369537702B8197
:1008B000220F220F220F230FFC0120839981929592
:1008C000969597708A81880F880F880F890F80937B
:1008D000F5002981220F220F220F84EF90E0FC0106
:1008E0002083FB01308116962C911697232B2083B1
:1008F0001A961C92DC012C9124602C93A0EFB0E09E
:100900002C912B7F2C9320812F7E2083FC01208132
:100910002E7F2083DB018C918F738C938C91806868
:100920008C9380E092C38FEF89838A818295880FB0
:10093000807E815E27EF30E0F90180834981429516
:10094000440F407E86EF90E0FC01408312964C916C
:10095000129746954695469513965C911397F0E24B
:100960005F9F400D11244093F30012964C91129713
:100970004295440F407E4093F2006FEE70E0FB0121
:1009800040814F7E408319825B8152955695577006
:100990004C81440F440F440F450FF90140833A81C5
:1009A0003295369537702B81220F220F220F230F9D
:1009B000FC01208399819295969597708A81880F82
:1009C000880F880F890F8093F5002981220F220F4D
:1009D000220F84EF90E0FC012083FB01308116960A
:1009E0002C911697232B208321E01A962C93DC015F
:1009F0002C9124602C93A0EFB0E02C9124602C93D8
:100A000020812F7D2083FC0120812E7F2083DB012C
:100A10008C918F738C938C9180688C9380E015C33C
:100A20001B968C911B978823D9F114969C9114974F
:100A300092959695977015968C911597880F880FBB
:100A4000880F890F8093F30013969C9113979295CA
:100A50009695977014968C911497880F880F880F2D
:100A6000890F8093F20012969C9112979295969519
:100A7000977013968C911397880F880F880F890FA2
:100A80008093F10012968C911297880F880F880F2F
:100A90008093F000EFEEF0E08081806180831CC0E5
:100AA00012968C91129786958695869513969C91B1
:100AB0001397E0E29E9F800D11248093F30012961D
:100AC0008C9112978295880F807E8093F200EFEED2
:100AD000F0E080818F7E80838FEF89839B81929568
:100AE000969597708C81880F880F880F890F809357
:100AF000F7009A819295969597708B81880F880F51
:100B0000880F890F8093F60099819295969597703A
:100B10008A81880F880F880F890F8093F5002981BB
:100B2000220F220F220F84EF90E0FC012083EFEED2
:100B3000F0E0308116962C91232B2083DC012C9140
:100B40002B7F2C932C9121602C9380818F73808339
:100B500080818068808380E078C21B968C911B978F
:100B60008823D9F114969C91149792959695977035
:100B700015968C911597880F880F880F890F809391
:100B8000F30013969C9113979295969597701496EF
:100B90008C911497880F880F880F890F8093F2002B
:100BA00012969C91129792959695977013968C91A8
:100BB0001397880F880F880F890F8093F100129682
:100BC0008C911297880F880F880F8093F000EFEEBA
:100BD000F0E08081806180831CC012968C91129716
:100BE00086958695869513969C911397E0E29E9F35
:100BF000800D11248093F30012968C9112978295A8
:100C0000880F807E8093F200EFEEF0E080818F7E8F
:100C100080838FEF89839B819295969597708C81C5
:100C2000880F880F880F890F8093F7009A8192951B
:100C3000969597708B81880F880F880F890F809306
:100C4000F60099819295969597708A81880F880F02
:100C5000880F890F8093F5002981220F220F220F20
:100C600084EF90E0FC012083EFEEF0E030811696F7
:100C70002C911697232B20831A961C92DC012C9121
:100C800024602C93A0EFB0E02C912B7F2C93DC01FF
:100C90002C9121602C9380818F7380838081806868
:100CA000808380E0D2C11B968C911B978823D9F159
:100CB00014969C91149792959695977015968C9191
:100CC0001597880F880F880F890F8093F30013966C
:100CD0009C91139792959695977014968C91149772
:100CE000880F880F880F890F8093F20012969C91CD
:100CF000129792959695977013968C911397880FEB
:100D0000880F880F890F8093F10012968C911297AB
:100D1000880F880F880F8093F000EFEEF0E080815D
:100D2000806180831CC012968C911297869586955F
:100D3000869513969C911397E0E29E9F800D112457
:100D40008093F30012968C9112978295880F807E83
:100D50008093F200EFEEF0E080818F7E80838FEF52
:100D600089839B819295969597708C81880F880FC7
:100D7000880F890F8093F7009A81929596959770C6
:100D80008B81880F880F880F890F8093F6009981D7
:100D90009295969597708A81880F880F880F890F92
:100DA0008093F5002981220F220F220F84EF90E01B
:100DB000FC012083EFEEF0E0308116962C9116971F
:100DC000232B208321E01A962C93DC012C912460A4
:100DD0002C93A0EFB0E02C9124602C9320812F7DE8
:100DE0002083DC012C9121602C9380818F73808380
:100DF00080818068808380E028C120E08AEF90E0D5
:100E00001796ED91FC911897E20FF11D3081FC01CE
:100E100030832F5F16963C911697231788F319821B
:100E20009B819295969597708C81880F880F880F7B
:100E3000890F8093F7009A819295969597708B8190
:100E4000880F880F880F890F8093F60099819295FB
:100E5000969597708A81880F880F880F890F8093E5
:100E6000F5002981220F220F220F84EF90E0FC0170
:100E70002083EFEEF0E0308116962C911697232B0D
:100E8000208321E01A962C93DC012C9124602C9372
:100E9000A0EFB0E02C9124602C932081206220836D
:100EA000DC012C912E7F2C9380818F738083808135
:100EB0008068808380E0C9C01B968C911B97882333
:100EC000D9F114969C9114979295969597701596D2
:100ED0008C911597880F880F880F890F8093F300E6
:100EE00013969C91139792959695977014968C9162
:100EF0001497880F880F880F890F8093F20012963D
:100F00009C91129792959695977013968C91139742
:100F1000880F880F880F890F8093F10012968C91AB
:100F20001297880F880F880F8093F000EFEEF0E0A3
:100F30008081806180831CC012968C911297869567
:100F40008695869513969C911397E0E29E9F800D5F
:100F500011248093F30012968C9112978295880F3A
:100F6000807E8093F200EFEEF0E080818F7E8083C0
:100F700016968C911697882391F020E08AEF90E0E6
:100F80001796ED91FC911897E20FF11D3081FC014D
:100F900030832F5F16963C911697231788F38FEFB7
:100FA00089839B819295969597708C81880F880F85
:100FB000880F890F8093F7009A8192959695977084
:100FC0008B81880F880F880F890F8093F600998195
:100FD0009295969597708A81880F880F880F890F50
:100FE0008093F5002981220F220F220F84EF90E0D9
:100FF000FC012083EFEEF0E0308116962C911697DD
:10100000232B208321E01A962C93DC012C91246061
:101010002C93A0EFB0E02C9124602C9320812062CF
:101020002083DC012C9121602C9380818F7380833D
:1010300080818068808380E008C019961C9280E0DF
:1010400004C08FE119968C938FEF0F90DF91CF91B1
:101050000895CF93DF93EC018985882309F4E3C0D9
:101060008F3109F4E2C08F3F09F4E1C06295607FDF
:101070006093ED000E94C001803261F020F488236B
:1010800009F4D7C0C6C0803409F4B8C0803A09F466
:101090005CC0BFC087E00E941D0984E690E00E940A
:1010A000660A87E00E941D0984E690E00E94660AB5
:1010B0008091F00082FB882780F98A878091EF0079
:1010C00084FF2DC081E08B87E3EFF0E0808186957F
:1010D000869586958D83A2EFB0E08C919081869560
:1010E0008695869520E2929F800D11248C83E1EFF6
:1010F000F0E080819C9186958695869520E2929F6E
:10110000800D11248B838091F000908186958695C7
:10111000869520E2929F800D11248A8307C01B864A
:10112000E3EFF0E080818091F200808180E28987A6
:101130008F8198850E94D601EFEEF0E080818F7359
:1011400080831092EE0080E275C08091F00082FBF7
:10115000882780F98A878091EF0084FF2DC081E085
:101160008B87E3EFF0E080818695869586958D8369
:10117000A2EFB0E08C91908186958695869520E2CD
:10118000929F800D11248C83E1EFF0E080819C918F
:1011900086958695869520E2929F800D11248B83FB
:1011A0008091F000908186958695869520E2929FA9
:1011B000800D11248A8313C01B86E3EFF0E0808149
:1011C0008295869587708B838091F2009081990F2C
:1011D000990F990F829586958770890F8A8380EA87
:1011E00089878F8198850E94D601EFEEF0E080819B
:1011F0008F7380831092EE0080EA1CC080E48987A0
:10120000EFEEF0E080818F7380831092EE0080E437
:1012100011C08987EFEEF0E080818F738083109298
:10122000EE0082E007C082E005C082E003C082E0F9
:1012300001C081E0DF91CF910895873029F42BB16F
:1012400091E092279BB907C0833029F498B181E0DF
:10125000892788B9089545B121E030E0B90102C07D
:10126000660F771F8A95E2F7CB01842785B9089529
:10127000CF93DF9300D0CDB7DEB719821A82E1E6B3
:10128000F0E080E8808310828EEF84B981E187B935
:1012900018B889E08AB981E08BB91DB81EB80E94E0
:1012A0004C0A0E945D0080E00E94EE010E946201F3
:1012B0000E94E70978940E947F0B0E94170A87E03A
:1012C0000E941D090F2EF0E1EF2EF1E0FF2EF02D10
:1012D00008E111E00F2EF1E1AF2EF1E0BF2EF02D6D
:1012E0000F2EF4E1CF2EF1E0DF2EF02D4E2C5F2CEF
:1012F0000F2EF2E58F2EF1E09F2EF02D0F2EFBEA40
:101300006F2EF02D0F2EF0EF7F2EF02D0F2EF5E526
:101310003F2EF02D0E9467000E943C0C80912C0112
:10132000813069F4E42DF52D6192E017F107E1F7C2
:1013300067E0842D952D0E94310110922C0180913F
:101340003501813069F4E42DF52D7192E017F10734
:10135000E1F766E0842D952D0E9431011092350150
:10136000809146018130F1F4E42DF52D1192E017C2
:10137000F107E1F7BE016E5F7F4FCE0101960E943B
:10138000200A8981F50180838A81F7018083F60133
:10139000308260E0842D952D0E943101109246012B
:1013A0001A82198280915101813009F0B3CFF7017F
:1013B0001192E017F107E1F7F4018081F7018083D2
:1013C00065E0C7010E9431011092510197CF85B7A6
:1013D0008F7785BF83E58CBD08958EBD0DB407FC66
:1013E00004C089EE8150F1F708958AE00E947C0ADA
:1013F0008EB5089581E090E00E94540A0895CF933D
:101400005B988EBD0DB407FC06C0C9EEC150F1F764
:101410000E94FA0909C087E00E947C0A0E94FA092A
:101420008AE00E947C0ACEB58C2FCF910895449A11
:10143000089581E090E00E94540A08954498089528
:101440000F931F93CF93DF938C01EB010E941E0A31
:101450001EBC80E890E00E94660A8EB5F801808389
:1014600080E890E00E94660A8EB588830E94170A81
:10147000DF91CF911F910F9108951F920F920FB698
:101480000F9211248F9381E0809358018F910F90D8
:101490000FBE0F901F90189510926F001092800051
:1014A0008AE080938100089510925801109285007F
:1014B00010928400909389008093880082E080934A
:1014C0006F00809158018823E1F308950F931F93D3
:1014D000CF93DF938C01009751F0C0E0D0E088EE0D
:1014E00093E00E94540A2196C017D107C1F7DF91FB
:1014F000CF911F910F910895882321F090E09F5F75
:101500009813FDCF0895CF93C82F0E94190A80E841
:101510008C0F0E94ED0981E090E00E94540A80E067
:101520000E94ED09C82F0E94FA0981E090E00E9414
:10153000660A8C2FCF910895CF93DF93D82FC62FB3
:101540000E94190A8D2F0E94ED0981E090E00E940F
:10155000540A8C2F0E94ED090E94FA0981E090E064
:101560000E94660ADF91CF910895CF93C82F0E9401
:10157000190A8FEA0E94ED0981E090E00E94540A66
:101580008C2F0E94ED0981E090E00E94540A80E0D7
:101590000E94ED09C82F0E94FA0981E090E00E94A4
:1015A000660A8C2FCF910895CF930E94FF09C82F10
:1015B00081E090E00E94540A8C2FCF910895CF9340
:1015C000DF93D82FC62F8DE30E94D40A0E94190AF8
:1015D0008FE20E94ED0981E090E00E94540A8D2F75
:1015E0000E94ED0981E090E00E94540A8C2F0E9435
:1015F000ED090E94FA0981E090E00E94660ADF91FD
:10160000CF910895CF93DF93EB018DE30E94D40A2D
:101610008F7782958F708883DF91CF910895CF93D4
:10162000C82F8DE30E94D40A0E94190A8EEB0E94F3
:10163000ED0981E090E00E94540A8C2F0E94ED0990
:1016400081E090E00E94540A80E00E94ED09C82FDA
:101650000E94FA0981E090E00E94660A8C2FCF91E7
:1016600008951F93CF93DF93C82FD62F142F0E9476
:10167000830A11110CC0E1E0F0E0AF0102C0440F99
:10168000551FDA95E2F74095682F64230AC041E0C0
:1016900050E09A0102C0220F331FDA95E2F7682F5B
:1016A000622B8C2F0E949C0ADF91CF911F9108958D
:1016B0001F93CF93DF93C82FD62F142F0E94B50A04
:1016C00011110CC0E1E0F0E0AF0102C0440F551F62
:1016D000DA95E2F74095682F64230AC041E050E0B4
:1016E0009A0102C0220F331FDA95E2F7682F622BAE
:1016F0008C2F0E94DF0ADF91CF911F9108950E94E5
:10170000190A80E30E94D40A8AE30E94D40A8BE378
:101710000E94D40A60E082E10E94DF0A6FE583E163
:101720000E94DF0A60E486E10E94DF0A6EE087E142
:101730000E94DF0A63E089E10E94DF0A63E38BE134
:101740000E94DF0A67E18DE10E94DF0A60E58FE118
:101750000E94DF0A64E181E20E94DF0A6CEA82E211
:101760000E94DF0A8DE30E94D40A6BE088E00E94A9
:101770009C0A6DE083E10E949C0A64E086E20E947C
:101780009C0A6BE088E00E949C0A6CE18CE00E945D
:101790009C0A60E080E10E949C0A64E081E10E9472
:1017A0009C0A65E083E10E949C0A69EA8CE10E9440
:1017B0009C0A6FEC8DE10E949C0A60E08EE10E9421
:1017C0009C0A63E080E20E949C0A60E08EE20E9434
:1017D0009C0A60E080E00E94DF0A68E48AE00E94E0
:1017E0009C0A65E08BE00E949C0A64E081E20E9412
:1017F0009C0A60E08DE00E949C0A40E065E08EE07B
:101800000E94310B40E067E082E00E94580B40E00C
:1018100066E082E00E94580B40E066E088E00E94AB
:10182000310B67E189E00E949C0A60E086E20E9439
:101830009C0A6FEF8EE20E949C0A8DE30E94D40AFC
:101840006CE68CE00E94DF0A60E88DE00E94DF0A0F
:1018500083E30E94D40A8AEF90E00E94660A87E33D
:101860000E94D40A8AEF90E00E94660A1092510109
:1018700084E30E94D40A0895CF93DF9300D0CDB7BC
:10188000DEB7BE016E5F7F4FCE0101960E94020B54
:101890008A818650823068F586E30E94D40A8DE3FF
:1018A0000E94D40A80E80E940F0B8093520181E8C5
:1018B0000E940F0B8093530182E80E940F0B8093CC
:1018C000540183E80E940F0B8093550184E80E9425
:1018D0000F0B8093560185E80E940F0B80935701F0
:1018E00081E0809351018AE30E94D40A84E30E943C
:1018F000D40A0F900F90DF91CF910895EE0FFF1F44
:0C1900000590F491E02D0994F894FFCFBD
:00000001FF
