S019000053756273797374656D5F50726F6772616D2E7372656305
S11300000C9458000C946A000C946A000C946A00D6
S11300100C946A000C946A000C946A000C946A00B4
S11300200C946A000C946A000C946A000C946A00A4
S11300300C94970F0C946A000C946A000C946A0058
S11300400C946A000C946A000C946A000C946A0084
S11300500C946A000C946A000C946A000C946A0074
S11300600C946A000C946A000C946A000C946A0064
S11300700C946A000C946A000C946A00C900CC00C9
S1130080D9003E01DC003E01E9003E01F600030117
S113009010011D0120013E012C0195042705B10525
S11300A025066506E1065E07FB07A1088F04AA0979
S11300B011241FBECFEFD8E0DEBFCDBF23E0A0E008
S11300C0B1E001C01D92A530B207E1F70E94ED0E28
S11300D00C94DC0F0C94000082E080937C0082EE90
S11300E080937A0080EA80937B000895E8E7F0E04B
S11300F02081DC012C93218111962C930895809307
S11301007C00089522E331E030935D0120935C018B
S11301101092600170E0709358016093570122E0DF
S11301202093560128E020935B0124E020935002A1
S1130130DC01E2E3F1E08AE391E02D912193E817F9
S1130140F907D9F76091500285E591E00E944B04CC
S11301508111F8CF6091500285E591E00E94770A01
S11301608130C1F30895CF93DF93DC0117962C916E
S1130170179722952F7015964C91159750E0FA0118
S11301803197EF30F10508F079C0E25CFF4F0C9431
S1130190D60F81E08093720181E080933602ED01F5
S11301A0E1E6F1E089E691E039913193E817F90746
S11301B0D9F781E08093140281E080937C01ED0102
S11301C0ECEFF2E084E093E039913193E817F9071A
S11301D0D9F781E080934801ED01E1E0F1E089E0A5
S11301E091E039913193E817F907D9F781E08093C9
S11301F03302ED01E9E4F1E081E591E039913193D5
S1130200E817F907D9F781E080933702ED01E0E6BA
S1130210F2E088E692E039913193E817F907D9F7CB
S113022081E080932401ED01ECE3F1E084E491E0CA
S113023039913193E817F907D9F78C9180936F01BD
S113024081E080937301E8E3F2E080E492E03D9181
S11302503193E817F907D9F7206120932D0182E043
S113026080932C0180E180932B0180916F01809316
S11302702A0161E186E291E00E948200DF91CF9140
S113028008951092600195E09093560198E0909340
S11302905B018093500281110EC08CE092E0909338
S11302A05D0180935C018091230290E0909358015A
S11302B0809357010895813071F484E191E0909323
S11302C05D0180935C018091240290E09093580139
S11302D0809357010895823071F48CE191E09093FA
S11302E05D0180935C018091250290E09093580118
S11302F0809357010895833071F48BE292E09093D8
S11303005D0180935C018091260290E090935801F6
S1130310809357010895853069F484E492E09093C2
S11303205D0180935C018091280290E090935801D4
S1130330809357010895811120C01092600185E0D7
S11303408093560188E080935B01109250028CE008
S113035092E090935D0180935C018091230290E090
S113036090935801809357016091500285E591E084
S11303700E944B048111F8CF0895813001F5109249
S1130380600185E08093560188E080935B0181E001
S11303908093500284E191E090935D0180935C012D
S11303A085E190E090935801809357016091500249
S11303B085E591E00E944B048111F8CF08958230C5
S11303C009F51092600185E08093560188E08093DE
S11303D05B0182E0809350028CE191E090935D0197
S11303E080935C018091250290E090935801809362
S11303F057016091500285E591E00E944B04811100
S1130400F8CF0895833009F51092600185E0809358
S1130410560188E080935B0183E0809350028BE275
S113042092E090935D0180935C018091260290E0BC
S113043090935801809357016091500285E591E0B3
S11304400E944B048111F8CF08958530F1F4109285
S113045060018093560198E090935B018093500271
S113046084E492E090935D0180935C018091280282
S113047090E090935801809357016091500285E574
S113048091E00E944B048111F8CF0895CF93DF933C
S113049085E00E9441016091500285E591E00E944F
S11304A0770A813011F180915E018032D9F4A091F4
S11304B05C01B0915D01C3E2D2E0EBE1F2E08D9129
S11304C08193EC17FD07D9F780912102823021F442
S11304D08BE192E00E94B300EBE1F2E01192EC17A1
S11304E0FD07E1F785E00E949B01DF91CF9108951C
S11304F09F92AF92BF92CF92DF92EF92FF920F93AF
S11305001F93CF93DF93912C0EE511E00F2EFCE5A2
S1130510AF2EF1E0BF2EF02DC3E2D2E00F2EFBE1AF
S1130520EF2EF2E0FF2EF02D0F2EF1E2CF2EF2E0AF
S1130530DF2EF02D892D0E9441016091500285E546
S113054091E00E94770A8130E1F0F80180818032E5
S1130550A9F4F501A081B181F7018D918193EC1784
S1130560FD07D9F7F6018081823019F4C7010E9492
S1130570B300F7011192EC17FD07E1F7892D0E94F2
S11305809B019394F4E09F12D5CF0E944602DF9121
S1130590CF911F910F91FF90EF90DF90CF90BF907C
S11305A0AF909F9008958F929F92BF92CF92DF92C7
S11305B0EF92FF920F931F93CF93DF938AE180937F
S11305C023028BE1809324028CE1809325028DE148
S11305D0809326028EE1809327028FE18093280284
S11305E08CE092E090935D0180935C011092600135
S11305F08AE190E0909358018093570185E08093BD
S1130600560188E080935B01109250026091500281
S113061085E591E00E944B048111F8CF84E191E0DB
S113062090935D0180935C0110926001809124029B
S113063090E0909358018093570185E08093560190
S113064088E080935B0181E08093500260915002C6
S113065085E591E00E944B048111F8CF8CE191E093
S113066090935D0180935C0110926001809125025A
S113067090E0909358018093570185E08093560150
S113068088E080935B0182E0809350026091500285
S113069085E591E00E944B048111F8CF8BE292E052
S11306A090935D0180935C01109260018091260219
S11306B090E0909358018093570185E08093560110
S11306C088E080935B0183E0809350026091500244
S11306D085E591E00E944B048111F8CF84E492E017
S11306E090935D0180935C011092600180912802D7
S11306F090E0909358018093570185E080935601D0
S113070098E090935B01809350026091500285E5DC
S113071091E00E944B048111F8CF0F2EFBE1CF2E04
S1130720F2E0DF2EF02D0F2EF6E2EF2EF1E0FF2E99
S1130730F02D0CEF12E061E071E041E651E029E4B4
S113074031E080E692E0CCE3D1E0A8E3B2E00F2E02
S1130750F6E58F2EF2E09F2EF02D6894BB24B3F8BB
S1130760F60111926F01F70111927F01F8011192C4
S11307708F01FB011192BF01FA011192AF01F9013E
S113078011929F01FC011192CF0119921D92F40163
S113079011924F01BA9421F7EDE7F1E0ABE6B2E034
S11307A08CE092E011921D92E817F907D9F71092A4
S11307B07201109214021092360210927C0110926F
S11307C048011092330210923702109224011092C1
S11307D07301109200011092350210923402DF91DD
S11307E0CF911F910F91FF90EF90DF90CF90BF902A
S11307F09F908F90089580E0ADEEB0E03EEE20E053
S1130800982F9295907F9C93E32FF22F1192E83FBB
S1130810F105E1F78F5F863099F708958091EF0035
S1130820807C61F08091EE00982F907E282F2076B6
S1130830203231F0903431F08F7108958FEF0895A4
S1130840892F0895892F0895FC0180E0AAEFB0E074
S11308509C9191938F5F8830D9F7089581E08093BC
S1130860D80082E08093E2008CE08093E30087E389
S11308708093E40081E008950E942E04882349F0C7
S11308800E94FB03E8EDF0E080818260808381E0D8
S1130890089580E00895CF93DF931F92CDB7DEB71C
S11308A0DC0111968C9111978C30B1F419968C91CE
S11308B01997803669F4862F8295807F8093ED00A6
S11308C0EFEEF0E080818F7380831092EE006C93E2
S11308D019961C9280E007C6862F8295807F8093AC
S11308E0ED008091EF00807C09F0F9C580E619964F
S11308F08C9319976C93EEEEF0E01192E83FF105BA
S1130900E1F711964C91119750E0FA013197EB30D1
S1130910F10508F0E0C5E35BFF4F0C94D60F169683
S11309208C9116978111B7C4C8C41B968C911B97E0
S11309308823D9F114969C91149792959695977063
S113094015968C911597880F880F880F890F8093BF
S1130950F30013969C91139792959695977014961D
S11309608C911497880F880F880F890F8093F20059
S113097012969C91129792959695977013968C91D6
S11309801397880F880F880F890F8093F1001296B0
S11309908C911297880F880F880F8093F000EFEEE8
S11309A0F0E08081806180831CC012968C91129744
S11309B086958695869513969C91139720E2929F2F
S11309C0800D11248093F30012968C9112978295D6
S11309D0880F807E8093F200EFEEF0E080818F7EBE
S11309E0808316968C911697882391F020E08AEFE5
S11309F090E01796ED91FC911897E20FF11D30816C
S1130A00FC0130832F5F16963C911697231788F3C9
S1130A101A968C911A97882331F0E0EFF0E08081E8
S1130A208460808305C0E0EFF0E080818B7F808369
S1130A30EFEEF0E0908116968C91892B8083808173
S1130A408F73808380818064808380E04CC51B9693
S1130A508C911B978823D9F114969C9114979295A5
S1130A609695977015968C911597880F880F880F17
S1130A70890F8093F30013969C9113979295969502
S1130A80977014968C911497880F880F880F890F8C
S1130A908093F20012969C91129792959695977076
S1130AA013968C911397880F880F880F890F809362
S1130AB0F10012968C911297880F880F880F8093FB
S1130AC0F000EFEEF0E08081806180831CC012961C
S1130AD08C91129786958695869513969C9113977B
S1130AE0F0E29F9F800D11248093F30012968C9165
S1130AF012978295880F807E8093F200EFEEF0E0EB
S1130B0080818F7E808316968C911697882391F02E
S1130B1020E08AEF90E01796ED91FC911897E20F90
S1130B20F11D3081FC0130832F5F16963C9116979E
S1130B30231788F31A961C921A97E0EFF0E080814D
S1130B408B7F8083EFEEF0E0908116968C91892B59
S1130B50808380818F73808380818064808380E040
S1130B60C2C41B968C911B978823D9F114969C912F
S1130B70149792959695977015968C911597880F62
S1130B80880F880F890F8093F30013969C91139715
S1130B9092959695977014968C911497880F880F58
S1130BA0880F890F8093F20012969C911297929568
S1130BB09695977013968C911397880F880F880FCA
S1130BC0890F8093F10012968C911297880F880FE9
S1130BD0880F8093F000EFEEF0E0808180618083E5
S1130BE01CC012968C9112978695869586951396BD
S1130BF09C911397F0E29F9F800D11248093F30042
S1130C0012968C9112978295880F807E8093F200C1
S1130C10EFEEF0E080818F7E808381E01A968C93E2
S1130C201A97E0EFF0E0808184608083EFEEF0E0DB
S1130C30908116968C91892B808380818F73808319
S1130C4080818064808380E04EC419829B81929568
S1130C50969597708C81880F880F880F890F8093E1
S1130C60F7009A819295969597708B81880F880FDB
S1130C70880F890F8093F6009981929596959770C5
S1130C808A81880F880F880F890F8093F500298146
S1130C90220F220F220F84EF90E0FC012083EFEE5D
S1130CA0F0E0308116962C91232B2083DC012C91CB
S1130CB02B7F2C932C912E7F2C9380818F73808398
S1130CC080818068808380E00EC48FEF89838A816D
S1130CD08295880F807E815E27EF30E0F901808362
S1130CE049814295440F407E86EF90E0FC014083A9
S1130CF012964C91129746954695469513965C919B
S1130D001397F0E25F9F400D11244093F300129675
S1130D104C9112974295440F407E4093F2006FEE3F
S1130D2070E0FB0140814F7E408319825B815295C4
S1130D30569557704C81440F440F440F450FF901E9
S1130D4040833A813295369537702B81220F220FDA
S1130D50220F230FFC012083998192959695977019
S1130D608A81880F880F880F890F8093F500298165
S1130D70220F220F220F84EF90E0FC012083FB015D
S1130D80308116962C911697232B20831A961C9249
S1130D90DC012C9124602C93A0EFB0E02C912B7FEC
S1130DA02C9320812F7E2083FC0120812E7F2083A1
S1130DB0DB018C918F738C938C9180688C9380E091
S1130DC092C38FEF89838A818295880F807E815EAA
S1130DD027EF30E0F901808349814295440F407E3A
S1130DE086EF90E0FC01408312964C911297469551
S1130DF04695469513965C911397F0E25F9F400DDC
S1130E0011244093F30012964C9112974295440F8B
S1130E10407E4093F2006FEE70E0FB0140814F7E14
S1130E20408319825B815295569557704C81440FCB
S1130E30440F440F450FF90140833A8132953695AA
S1130E4037702B81220F220F220F230FFC012083E6
S1130E5099819295969597708A81880F880F880F4B
S1130E60890F8093F5002981220F220F220F84EF2E
S1130E7090E0FC012083FB01308116962C9116979B
S1130E80232B208321E01A962C93DC012C912460DF
S1130E902C93A0EFB0E02C9124602C9320812F7D23
S1130EA02083FC0120812E7F2083DB018C918F73B2
S1130EB08C938C9180688C9380E015C31B968C91E5
S1130EC01B978823D9F114969C9114979295969523
S1130ED0977015968C911597880F880F880F890F36
S1130EE08093F30013969C9113979295969597701F
S1130EF014968C911497880F880F880F890F80930C
S1130F00F20012969C91129792959695977013966B
S1130F108C911397880F880F880F890F8093F100A5
S1130F2012968C911297880F880F880F8093F00087
S1130F30EFEEF0E08081806180831CC012968C917A
S1130F40129786958695869513969C911397E0E261
S1130F509E9F800D11248093F30012968C9112971A
S1130F608295880F807E8093F200EFEEF0E080811E
S1130F708F7E80838FEF89839B819295969597705E
S1130F808C81880F880F880F890F8093F7009A81CE
S1130F909295969597708B81880F880F880F890F8B
S1130FA08093F60099819295969597708A81880F1F
S1130FB0880F880F890F8093F5002981220F220F53
S1130FC0220F84EF90E0FC012083EFEEF0E030810B
S1130FD016962C91232B2083DC012C912B7F2C93B0
S1130FE02C9121602C9380818F7380838081806811
S1130FF0808380E078C21B968C911B978823D9F15B
S113100014969C91149792959695977015968C9139
S11310101597880F880F880F890F8093F300139614
S11310209C91139792959695977014968C9114971A
S1131030880F880F880F890F8093F20012969C9175
S1131040129792959695977013968C911397880F93
S1131050880F880F890F8093F10012968C91129754
S1131060880F880F880F8093F000EFEEF0E0808106
S1131070806180831CC012968C9112978695869508
S1131080869513969C911397E0E29E9F800D112400
S11310908093F30012968C9112978295880F807E2C
S11310A08093F200EFEEF0E080818F7E80838FEFFB
S11310B089839B819295969597708C81880F880F70
S11310C0880F890F8093F7009A819295969597706F
S11310D08B81880F880F880F890F8093F600998180
S11310E09295969597708A81880F880F880F890F3B
S11310F08093F5002981220F220F220F84EF90E0C4
S1131100FC012083EFEEF0E0308116962C911697C7
S1131110232B20831A961C92DC012C9124602C939F
S1131120A0EFB0E02C912B7F2C93DC012C9121605B
S11311302C9380818F73808380818068808380E09A
S1131140D2C11B968C911B978823D9F114969C913C
S1131150149792959695977015968C911597880F7C
S1131160880F880F890F8093F30013969C9113972F
S113117092959695977014968C911497880F880F72
S1131180880F890F8093F20012969C911297929582
S11311909695977013968C911397880F880F880FE4
S11311A0890F8093F10012968C911297880F880F03
S11311B0880F8093F000EFEEF0E0808180618083FF
S11311C01CC012968C9112978695869586951396D7
S11311D09C911397E0E29E9F800D11248093F3006D
S11311E012968C9112978295880F807E8093F200DC
S11311F0EFEEF0E080818F7E80838FEF89839B8187
S11312009295969597708C81880F880F880F890F17
S11312108093F7009A819295969597708B81880FA9
S1131220880F880F890F8093F6009981929596957F
S113123097708A81880F880F880F890F8093F50033
S11312402981220F220F220F84EF90E0FC012083DA
S1131250EFEEF0E0308116962C911697232B208325
S113126021E01A962C93DC012C9124602C93A0EF9E
S1131270B0E02C9124602C9320812F7D2083DC010D
S11312802C9121602C9380818F738083808180686E
S1131290808380E028C120E08AEF90E01796ED91EA
S11312A0FC911897E20FF11D3081FC0130832F5F10
S11312B016963C911697231788F319829B81929571
S11312C0969597708C81880F880F880F890F80936B
S11312D0F7009A819295969597708B81880F880F65
S11312E0880F890F8093F60099819295969597704F
S11312F08A81880F880F880F890F8093F5002981D0
S1131300220F220F220F84EF90E0FC012083EFEEE6
S1131310F0E0308116962C911697232B208321E040
S11313201A962C93DC012C9124602C93A0EFB0E04E
S11313302C9124602C93208120622083DC012C9149
S11313402E7F2C9380818F7380838081806880833B
S113135080E0C9C01B968C911B978823D9F1149601
S11313609C91149792959695977015968C911597D4
S1131370880F880F880F890F8093F30013969C9130
S1131380139792959695977014968C911497880F4D
S1131390880F880F890F8093F20012969C91129700
S11313A092959695977013968C911397880F880F42
S11313B0880F890F8093F10012968C911297880FF1
S11313C0880F880F8093F000EFEEF0E08081806159
S11313D080831CC012968C9112978695869586956B
S11313E013969C911397E0E29E9F800D11248093A5
S11313F0F30012968C9112978295880F807E8093C9
S1131400F200EFEEF0E080818F7E808316968C915F
S11314101697882391F020E08AEF90E01796ED91DB
S1131420FC911897E20FF11D3081FC0130832F5F8E
S113143016963C911697231788F38FEF89839B8127
S11314409295969597708C81880F880F880F890FD5
S11314508093F7009A819295969597708B81880F67
S1131460880F880F890F8093F6009981929596953D
S113147097708A81880F880F880F890F8093F500F1
S11314802981220F220F220F84EF90E0FC01208398
S1131490EFEEF0E0308116962C911697232B2083E3
S11314A021E01A962C93DC012C9124602C93A0EF5C
S11314B0B0E02C9124602C93208120622083DC01F5
S11314C02C9121602C9380818F738083808180682C
S11314D0808380E008C019961C9280E004C08FE1EC
S11314E019968C938FEF0F90DF91CF910895CF933E
S11314F0DF93EC018985882309F4D5C08F3109F481
S1131500D4C08F3F09F4D3C06295607F6093ED002F
S11315100E940E04803261F020F4882309F4C9C0CB
S1131520B8C0803409F4AAC0803A09F44EC0B1C0EE
S11315308091F00082FB882780F98A878091EF00F0
S113154084FF2DC081E08B87E3EFF0E080818695F6
S1131550869586958D83A2EFB0E08C9190818695D7
S11315608695869520E2929F800D11248C83E1EF6D
S1131570F0E080819C9186958695869520E2929FE5
S1131580800D11248B838091F0009081869586953F
S1131590869520E2929F800D11248A8307C01B86C2
S11315A0E3EFF0E080818091F200808180E289871E
S11315B08F8198850E942404EFEEF0E080818F7380
S11315C080831092EE0080E275C08091F00082FB6F
S11315D0882780F98A878091EF0084FF2DC081E0FD
S11315E08B87E3EFF0E080818695869586958D83E1
S11315F0A2EFB0E08C91908186958695869520E245
S1131600929F800D11248C83E1EFF0E080819C9106
S113161086958695869520E2929F800D11248B8372
S11316208091F000908186958695869520E2929F20
S1131630800D11248A8313C01B86E3EFF0E08081C0
S11316408295869587708B838091F2009081990FA3
S1131650990F990F829586958770890F8A8380EAFE
S113166089878F8198850E942404EFEEF0E08081C1
S11316708F7380831092EE0080EA1CC080E4898717
S1131680EFEEF0E080818F7380831092EE0080E4AF
S113169011C08987EFEEF0E080818F738083109210
S11316A0EE0082E007C082E005C082E003C082E071
S11316B001C081E0DF91CF910895806180932D0175
S11316C082E080932C0183E180932B0180916F0150
S11316D080932A0110922901109228011092270167
S11316E06093260161E186E291E00E948200089500
S11316F083E180932D0182E080932C0184E0809328
S11317002B0180916F0180932A0161E186E291E0CF
S11317100E94820010927201089584E180932D0149
S113172081E080932C0180916F0180932A0160E114
S113173086E291E00E9482001092140208950F93B1
S11317401F93CF93DF9300D0CDB7DEB71091640120
S11317500091680102950F701A3069F4BE016E5F42
S11317607F4FCE0101960E947A0F898180932701D1
S11317708A8180932601006100932D0110922C012F
S113178010932B0180916F0180932A016AE086E215
S113179091E00E948200109236020F900F90DF9128
S11317A0CF911F910F91089583E180932D011092A1
S11317B02C0182E080932B0180916F0180932A0198
S11317C080917601809326016AE086E291E00E948E
S11317D0820010920D0108959091FF02E091FC02A5
S11317E0F0E0808120910303206120932D0122E009
S11317F020932C0126E020932B0120916F0120934C
S11318002A01909329018093260161E186E291E007
S11318100E94820010927C0108958091040120911D
S1131820010190910303E0910201F0E020839061B3
S113183090932D0192E090932C0198E090932B01CA
S113184090916F0190932A018093290181E0809304
S1131850260161E186E291E00E9482001092480133
S1131860089520914C012A3069F480914A0190E056
S1131870982F882730914901832B90932F018093CF
S11318802E011EC0213069F480914A0190E0982F06
S1131890882730914901832B9093710180937001C3
S11318A01EC0223069F480914A0190E0982F882765
S11318B030914901832B90936A02809369021EC080
S11318C0233069F480914A0190E0982F8827309161
S11318D04901832B90931101809310011EC0243081
S11318E069F480914A0190E0982F8827309149014A
S11318F0832B9093FB028093FA021EC0253069F477
S113190080914A0190E0982F882730914901832BD8
S113191090936E0180936D011EC0263069F480910E
S11319204A0190E0982F882730914901832B9093A6
S11319304102809340021EC0213169F480914A0122
S113194090E0982F882730914901832B909371015F
S1131950809370011EC0293069F480914A0190E09F
S1131960982F882730914901832B909313018093FA
S113197012011EC02B3069F480914A0190E0982F27
S1131980882730914901832B90935401809353010C
S11319901EC02C3069F480914A0190E0982F88276A
S11319A030914901832B90933B0180933A011EC0EF
S11319B02D3069F480914A0190E0982F8827309166
S11319C04901832B90930F0180930E011EC02E308A
S11319D069F480914A0190E0982F88272091490169
S11319E0822B90935402809353021DC02F3069F4CC
S11319F080914A0190E0982F882720914901822BF9
S1131A0090934701809346010EC0203161F4809188
S1131A104A0190E0982F882720914901822B9093C6
S1131A2016028093150210923302089520916302E6
S1131A302A3069F48091610290E0982F88273091D0
S1131A406002832B90933101809330011EC02130BA
S1131A5069F48091610290E0982F882730916002A8
S1131A60832B90931802809317021EC0223069F4CE
S1131A708091610290E0982F882730916002832B37
S1131A8090934501809344011EC0233069F48091F2
S1131A90610290E0982F882730916002832B909305
S1131AA01A02809319021EC0243069F480916102E5
S1131AB090E0982F882730916002832B90932A021C
S1131AC0809329021EC0253069F48091610290E060
S1131AD0982F882730916002832B90936C01809318
S1131AE06B011EC0263069F48091610290E0982F4A
S1131AF0882730916002832B90930A018093090117
S1131B001EC0213169F48091610290E0982F8827EA
S1131B1030916002832B90931802809317021EC0A9
S1131B20293069F48091610290E0982F88273091E0
S1131B306002832B90934302809342021EC02B3099
S1131B4069F48091610290E0982F882730916002B7
S1131B50832B90936A01809369011EC02C3069F431
S1131B608091610290E0982F882730916002832B46
S1131B7090935202809351021EC02D3069F48091DB
S1131B80610290E0982F882730916002832B909314
S1131B900C0180930B011EC02E3069F48091610208
S1131BA090E0982F882720916002822B90937501F2
S1131BB0809374011DC02F3069F48091610290E01C
S1131BC0982F882720916002822B90935F02809344
S1131BD05E020EC0203161F48091610290E0982F82
S1131BE0882720916002822B90934D0280934C02AF
S1131BF010923702089580913F01813029F4809139
S1131C003C018093550206C0823021F480913C014E
S1131C108093250110922401089580913F028295BA
S1131C208F7090913C02292F30E060910001462F83
S1131C3050E04F5F5F4F4217530784F46FEF0E94E9
S1131C405D0B1092000110927301EDE7F1E08CE05E
S1131C5092E01192E817F907E1F7089570913502BF
S1131C60713041F46FEF0E945D0B109200011092ED
S1131C7073010895911102C0662339F024173507C2
S1131C80A1F590930001933298F4F901EE0FFF1F30
S1131C90EE0FFF1FE358FE4F4091380240834091FE
S1131CA03902418340913A02428340913B0243838B
S1131CB09332C1F41092000191E090933502F9013E
S1131CC0EE0FFF1FEE0FFF1FE358FE4F90913802F7
S1131CD0908390913902918390913A02928363E2C6
S1131CE00E945D0B1092730108956FEF0E945D0BCB
S1131CF01092000110927301EDE7F1E08CE092E0A4
S1131D001192E817F907E1F7089580917201813083
S1131D1011F40E94780B80911402813011F40E9416
S1131D208D0B80913602813011F40E949F0B8091BB
S1131D300D01813011F40E94D40B80917C0181301B
S1131D4011F40E94EC0B80914801813011F40E943F
S1131D500D0C80913302813011F40E94310C80917A
S1131D603702813011F40E94160D809124018130D4
S1131D7011F40E94FB0D80917301813011F40E94D3
S1131D800D0E0895813011F4589A0895823011F49B
S1131D902E980895833009F440980895813011F401
S1131DA058980895823011F42E9A0895833009F4D6
S1131DB0409A089580913302813011F40E94310CCD
S1131DC080913702813011F40E94160D8091240114
S1131DD0813011F40E94FB0D0895E1E6F0E080E803
S1131DE0808310828EEF84B981E187B918B889E0C5
S1131DF08AB981E08BB91DB81EB80E94A60F0E9453
S1131E006C0080E00E943C040E94D3020E94700F88
S1131E1081E00E94C20E0E94600F78940E94760FA7
S1131E200E9478020E9478020E94DA0E81E00E94E9
S1131E30CE0E88EE93E00E94C00F82E00E947F00E5
S1131E40C0E0D0E0CE010E94760088818131C0F0EC
S1131E5081E00E94C20E8FEB0E946C0F8FE10E9402
S1131E606E0F88EE93E00E94C00F83E00E947F0013
S1131E7080E090E00E94760081E00E94C20E17C0CC
S1131E8081E00E94CE0E8FEB0E946C0F8FE10E94C6
S1131E906E0F88EE93E00E94C00F83E00E947F00E3
S1131EA080E090E00E94760081E00E94CE0E8FE1F7
S1131EB00E946C0F8FEB0E946E0F0E94850EB0CFB4
S1131EC016BC8FE387BD8FEB88BD14BC85E085BD50
S1131ED087E080936E00089587BD089588BD0895B6
S1131EE085B78F7785BF83E58CBD0895449A08959F
S1131EF0449808950F931F93CF93DF938C01EB01C4
S1131F000E94780F1EBC80E890E00E94C00F8EB53E
S1131F10F801808380E890E00E94C00F8EB588832A
S1131F200E94760FDF91CF911F910F9108951F9218
S1131F300F920FB60F9211248F9381E080930403C4
S1131F408F910F900FBE0F901F90189510926F00F5
S1131F50109280008AE08093810008951092040317
S1131F6010928500109284009093890080938800D9
S1131F7082E080936F00809104038823E1F3089545
S1131F800F931F93CF93DF938C01009751F0C0E020
S1131F90D0E088EE93E00E94AE0F2196C017D107DF
S1131FA0C1F7DF91CF911F910F910895EE0FFF1F9D
S10F1FB00590F491E02D0994F894FFCF03
S9030000FC
