S019000053756273797374656D5F50726F6772616D2E7372656305
S11300000C945D000C946F000C946F000C946F00C2
S11300100C946F000C946F000C946F000C946F00A0
S11300200C946F000C946F000C946F000C946F0090
S11300300C9462100C946F000C946F000C946F007D
S11300400C946F000C946F000C946F000C946F0070
S11300500C946F000C946F000C946F000C946F0060
S11300600C946F000C946F000C946F000C946F0050
S11300700C946F000C946F000C946F00C700CA00BE
S1130080D7004E01DA004E01E7004E01F4000101F1
S11300900E011B011E014E012B014E014E014B01AD
S11300A04E014801AB043D05C7053B067B06F70638
S11300B074071108B708A504C00911241FBECFEFA7
S11300C0D8E0DEBFCDBF23E0A0E0B1E001C01D92C7
S11300D0AA39B207E1F70E94D40F0C94A7100C942C
S11300E0000082E080937C0082EE80937A0080EAB4
S11300F080937B000895E8E7F0E02081DC012C93F5
S1130100218111962C93089580937C00089521EC0D
S113011031E03093EE012093ED011092F10170E093
S11301207093E9016093E80122E02093E70128E05D
S11301302093EC0124E02093E302DC01E1ECF1E004
S113014089EC91E02D912193E817F907D9F7609193
S1130150E30286EE91E00E9461048111F8CF609180
S1130160E30286EE91E00E948D0A8130C1F3089586
S1130170CF93DF93EC014D8150E0FA013197E431E4
S1130180F10508F08BC0E25CFF4F0C94A11081E0F4
S11301908093030281E08093C802DE01E2EFF1E084
S11301A08AEF91E02D912193E817F907D9F781E0BF
S11301B08093A60281E080930D02DE01E1E9F3E081
S11301C089E993E02D912193E817F907D9F781E0A4
S11301D08093D701DE01E1E0F1E089E091E02D9127
S11301E02193E817F907D9F781E08093C502DE016E
S11301F0E8EDF1E080EE91E02D912193E817F90705
S1130200D9F781E08093CA02DE01E4EFF2E08CEFDB
S113021092E02D912193E817F907D9F781E08093B3
S1130220C902DE01EBECF1E083ED91E02D91219325
S1130230E817F907D9F788818093000281E0809359
S11302400402DE01EBECF2E083ED92E02D912193C8
S1130250E817F907D9F78091C702811119C0809175
S1130260E902811115C087E18093BC0182E080938B
S1130270BB0180E18093BA01809100028093B901AF
S113028081E08093E90261E185EB91E00E948700BF
S113029088818093E30181E08093E201DF91CF9133
S11302A008951092F10195E09093E70198E09093FE
S11302B0EC018093E30281110EC08EE992E09093E9
S11302C0EE018093ED018091B50290E09093E901F5
S11302D08093E8010895813071F484EA91E0909369
S11302E0EE018093ED018091B60290E09093E901D4
S11302F08093E8010895823071F48CEA91E0909340
S1130300EE018093ED018091B70290E09093E901B2
S11303108093E8010895833071F48DEB92E090931B
S1130320EE018093ED018091B80290E09093E90191
S11303308093E8010895853069F487ED92E0909305
S1130340EE018093ED018091BA0290E09093E9016F
S11303508093E8010895811120C01092F10185E095
S11303608093E70188E08093EC011092E3028EE928
S113037092E09093EE018093ED018091B50290E0BC
S11303809093E9018093E8016091E30286EE91E0A5
S11303900E9461048111F8CF0895813001F5109213
S11303A0F10185E08093E70188E08093EC0181E02E
S11303B08093E30284EA91E09093EE018093ED014F
S11303C085E190E09093E9018093E8016091E30274
S11303D086EE91E00E9461048111F8CF0895823085
S11303E009F51092F10185E08093E70188E080939C
S11303F0EC0182E08093E3028CEA91E09093EE01B9
S11304008093ED018091B70290E09093E90180938D
S1130410E8016091E30286EE91E00E94610481119B
S1130420F8CF0895833009F51092F10185E08093A7
S1130430E70188E08093EC0183E08093E3028DEB95
S113044092E09093EE018093ED018091B80290E0E8
S11304509093E9018093E8016091E30286EE91E0D4
S11304600E9461048111F8CF08958530F1F410924F
S1130470F1018093E70198E09093EC018093E3020B
S113048087ED92E09093EE018093ED018091BA02A2
S113049090E09093E9018093E8016091E30286EE95
S11304A091E00E9461048111F8CF0895CF93DF9306
S11304B085E00E9451016091E30286EE91E00E9482
S11304C08D0A813011F18091EF018032D9F4A0912D
S11304D0ED01B091EE01C5EBD2E0EDEAF2E08D91D1
S11304E08193EC17FD07D9F78091B302823021F490
S11304F08DEA92E00E94B800EDEAF2E01192EC1766
S1130500FD07E1F785E00E94AB01DF91CF910895EB
S11305109F92AF92BF92CF92DF92EF92FF920F938E
S11305201F93CF93DF93912C0FEE11E00F2EFDEE6E
S1130530AF2EF1E0BF2EF02DC5EBD2E00F2EFDEA79
S1130540EF2EF2E0FF2EF02D0F2EF3EBCF2EF2E084
S1130550DF2EF02D892D0E9451016091E30286EE79
S113056091E00E948D0A8130E1F0F80180818032AF
S1130570A9F4F501A081B181F7018D918193EC1764
S1130580FD07D9F7F6018081823019F4C7010E9472
S1130590B800F7011192EC17FD07E1F7892D0E94CD
S11305A0AB019394F4E09F12D5CF0E945602DF91E1
S11305B0CF911F910F91FF90EF90DF90CF90BF905C
S11305C0AF909F9008958F929F92BF92CF92DF92A7
S11305D0EF92FF920F931F93CF93DF938AE180935F
S11305E0B5028BE18093B6028CE18093B7028DE172
S11305F08093B8028EE18093B9028FE18093BA02AE
S11306008EE992E09093EE018093ED011092F10156
S11306108AE190E09093E9018093E80185E080937A
S1130620E70188E08093EC011092E3026091E30219
S113063086EE91E00E9461048111F8CF84EA91E092
S11306409093EE018093ED011092F1018091B60236
S113065090E09093E9018093E80185E08093E701BD
S113066088E08093EC0181E08093E3026091E302EF
S113067086EE91E00E9461048111F8CF8CEA91E04A
S11306809093EE018093ED011092F1018091B702F5
S113069090E09093E9018093E80185E08093E7017D
S11306A088E08093EC0182E08093E3026091E302AE
S11306B086EE91E00E9461048111F8CF8DEB92E007
S11306C09093EE018093ED011092F1018091B802B4
S11306D090E09093E9018093E80185E08093E7013D
S11306E088E08093EC0183E08093E3026091E3026D
S11306F086EE91E00E9461048111F8CF87ED92E0CB
S11307009093EE018093ED011092F1018091BA0271
S113071090E09093E9018093E80185E08093E701FC
S113072098E09093EC018093E3026091E30286EEFB
S113073091E00E9461048111F8CF0F2EFDEACF2EC3
S1130740F2E0DF2EF02D0F2EF5EBEF2EF1E0FF2E71
S1130750F02D01E913E061E071E042EF51E028ED92
S113076031E084EF92E0CBECD1E0ABECB2E00F2EC1
S1130770FAEE8F2EF2E09F2EF02D6894BB24B3F88E
S1130780F60111926F01F70111927F01F8011192A4
S11307908F01FB011192BF01FA011192AF01F9011E
S11307A011929F01FC011192CF0119921D92F40143
S11307B011924F01BA9421F7EEE0F2E0AFEFB2E00C
S11307C08DE992E011921D92E817F907D9F710927A
S11307D003021092A6021092C80210920D02109207
S11307E0D7011092C5021092CA021092C902109247
S11307F00402109200011092C7021092C6021092D5
S1130800E3011092E2011092E902DF91CF911F916E
S11308100F91FF90EF90DF90CF90BF909F908F90BB
S1130820089580E0ADEEB0E03EEE20E0982F929582
S1130830907F9C93E32FF22F1192E83FF105E1F7AB
S11308408F5F863099F708958091EF00807C61F086
S11308508091EE00982F907E282F2076203231F060
S1130860903431F08F7108958FEF0895892F089592
S1130870892F0895FC0180E0AAEFB0E09C91919348
S11308808F5F8830D9F7089581E08093D80082E0A3
S11308908093E2008CE08093E30087E38093E4009C
S11308A081E008950E944404882349F00E941104C1
S11308B0E8EDF0E080818260808381E0089580E04B
S11308C00895CF93DF931F92CDB7DEB7DC01119665
S11308D08C9111978C30B1F419968C9119978036BC
S11308E069F4862F8295807F8093ED00EFEEF0E02F
S11308F080818F7380831092EE006C9319961C9202
S113090080E007C6862F8295807F8093ED008091DA
S1130910EF00807C09F0F9C580E619968C9319974D
S11309206C93EEEEF0E01192E83FF105E1F71196D9
S11309304C91119750E0FA013197EB30F10508F032
S1130940E0C5EE5AFF4F0C94A11016968C911697A1
S11309508111B7C4C8C41B968C911B978823D9F105
S113096014969C91149792959695977015968C91E0
S11309701597880F880F880F890F8093F3001396BB
S11309809C91139792959695977014968C911497C1
S1130990880F880F880F890F8093F20012969C911C
S11309A0129792959695977013968C911397880F3A
S11309B0880F880F890F8093F10012968C911297FB
S11309C0880F880F880F8093F000EFEEF0E08081AD
S11309D0806180831CC012968C91129786958695AF
S11309E0869513969C91139720E2929F800D112473
S11309F08093F30012968C9112978295880F807ED3
S1130A008093F200EFEEF0E080818F7E8083169673
S1130A108C911697882391F020E08AEF90E0179646
S1130A20ED91FC911897E20FF11D3081FC013083A8
S1130A302F5F16963C911697231788F31A968C917C
S1130A401A97882331F0E0EFF0E08081846080839E
S1130A5005C0E0EFF0E080818B7F8083EFEEF0E073
S1130A60908116968C91892B808380818F738083EB
S1130A7080818064808380E04CC51B968C911B9799
S1130A808823D9F114969C91149792959695977012
S1130A9015968C911597880F880F880F890F80936E
S1130AA0F30013969C9113979295969597701496CC
S1130AB08C911497880F880F880F890F8093F20008
S1130AC012969C91129792959695977013968C9185
S1130AD01397880F880F880F890F8093F10012965F
S1130AE08C911297880F880F880F8093F000EFEE97
S1130AF0F0E08081806180831CC012968C911297F3
S1130B0086958695869513969C911397F0E29F9F00
S1130B10800D11248093F30012968C911297829584
S1130B20880F807E8093F200EFEEF0E080818F7E6C
S1130B30808316968C911697882391F020E08AEF93
S1130B4090E01796ED91FC911897E20FF11D30811A
S1130B50FC0130832F5F16963C911697231788F378
S1130B601A961C921A97E0EFF0E080818B7F8083C5
S1130B70EFEEF0E0908116968C91892B8083808132
S1130B808F73808380818064808380E0C2C41B96DD
S1130B908C911B978823D9F114969C911497929564
S1130BA09695977015968C911597880F880F880FD6
S1130BB0890F8093F30013969C91139792959695C1
S1130BC0977014968C911497880F880F880F890F4B
S1130BD08093F20012969C91129792959695977035
S1130BE013968C911397880F880F880F890F809321
S1130BF0F10012968C911297880F880F880F8093BA
S1130C00F000EFEEF0E08081806180831CC01296DA
S1130C108C91129786958695869513969C91139739
S1130C20F0E29F9F800D11248093F30012968C9123
S1130C3012978295880F807E8093F200EFEEF0E0A9
S1130C4080818F7E808381E01A968C931A97E0EFDF
S1130C50F0E0808184608083EFEEF0E0908116966E
S1130C608C91892B808380818F73808380818064C1
S1130C70808380E04EC419829B81929596959770EB
S1130C808C81880F880F880F890F8093F7009A81D1
S1130C909295969597708B81880F880F880F890F8E
S1130CA08093F60099819295969597708A81880F22
S1130CB0880F880F890F8093F5002981220F220F56
S1130CC0220F84EF90E0FC012083EFEEF0E030810E
S1130CD016962C91232B2083DC012C912B7F2C93B3
S1130CE02C912E7F2C9380818F73808380818068E8
S1130CF0808380E00EC48FEF89838A818295880F78
S1130D00807E815E27EF30E0F9018083498142953E
S1130D10440F407E86EF90E0FC01408312964C9194
S1130D20129746954695469513965C911397F0E273
S1130D305F9F400D11244093F30012964C9112973B
S1130D404295440F407E4093F2006FEE70E0FB0149
S1130D5040814F7E408319825B815295569557702E
S1130D604C81440F440F440F450FF90140833A81ED
S1130D703295369537702B81220F220F220F230FC5
S1130D80FC01208399819295969597708A81880FAA
S1130D90880F880F890F8093F5002981220F220F75
S1130DA0220F84EF90E0FC012083FB013081169632
S1130DB02C911697232B20831A961C92DC012C91DC
S1130DC024602C93A0EFB0E02C912B7F2C932081F6
S1130DD02F7E2083FC0120812E7F2083DB018C91D8
S1130DE08F738C938C9180688C9380E092C38FEF87
S1130DF089838A818295880F807E815E27EF30E027
S1130E00F901808349814295440F407E86EF90E04A
S1130E10FC01408312964C9112974695469546954F
S1130E2013965C911397F0E25F9F400D1124409359
S1130E30F30012964C9112974295440F407E4093D2
S1130E40F2006FEE70E0FB0140814F7E4083198217
S1130E505B815295569557704C81440F440F440F53
S1130E60450FF90140833A813295369537702B81CD
S1130E70220F220F220F230FFC01208399819295C8
S1130E80969597708A81880F880F880F890F8093B1
S1130E90F5002981220F220F220F84EF90E0FC013C
S1130EA02083FB01308116962C911697232B2083E7
S1130EB021E01A962C93DC012C9124602C93A0EF52
S1130EC0B0E02C9124602C9320812F7D2083FC01A1
S1130ED020812E7F2083DB018C918F738C938C91E6
S1130EE080688C9380E015C31B968C911B97882394
S1130EF0D9F114969C91149792959695977015969E
S1130F008C911597880F880F880F890F8093F300B1
S1130F1013969C91139792959695977014968C912D
S1130F201497880F880F880F890F8093F200129608
S1130F309C91129792959695977013968C9113970E
S1130F40880F880F880F890F8093F10012968C9177
S1130F501297880F880F880F8093F000EFEEF0E06F
S1130F608081806180831CC012968C911297869533
S1130F708695869513969C911397E0E29E9F800D2B
S1130F8011248093F30012968C9112978295880F06
S1130F90807E8093F200EFEEF0E080818F7E80838C
S1130FA08FEF89839B819295969597708C81880F9A
S1130FB0880F880F890F8093F7009A8192959695F0
S1130FC097708B81880F880F880F890F8093F600A4
S1130FD099819295969597708A81880F880F880FCA
S1130FE0890F8093F5002981220F220F220F84EFAD
S1130FF090E0FC012083EFEEF0E0308116962C9116
S1131000232B2083DC012C912B7F2C932C912160AA
S11310102C9380818F73808380818068808380E0BB
S113102078C21B968C911B978823D9F114969C91B6
S1131030149792959695977015968C911597880F9D
S1131040880F880F890F8093F30013969C91139750
S113105092959695977014968C911497880F880F93
S1131060880F890F8093F20012969C9112979295A3
S11310709695977013968C911397880F880F880F05
S1131080890F8093F10012968C911297880F880F24
S1131090880F8093F000EFEEF0E080818061808320
S11310A01CC012968C9112978695869586951396F8
S11310B09C911397E0E29E9F800D11248093F3008E
S11310C012968C9112978295880F807E8093F200FD
S11310D0EFEEF0E080818F7E80838FEF89839B81A8
S11310E09295969597708C81880F880F880F890F39
S11310F08093F7009A819295969597708B81880FCB
S1131100880F880F890F8093F600998192959695A0
S113111097708A81880F880F880F890F8093F50054
S11311202981220F220F220F84EF90E0FC012083FB
S1131130EFEEF0E0308116962C911697232B208346
S11311401A961C92DC012C9124602C93A0EFB0E041
S11311502C912B7F2C93DC012C9121602C9380818A
S11311608F73808380818068808380E0D2C11B96E6
S11311708C911B978823D9F114969C91149792957E
S11311809695977015968C911597880F880F880FF0
S1131190890F8093F30013969C91139792959695DB
S11311A0977014968C911497880F880F880F890F65
S11311B08093F20012969C9112979295969597704F
S11311C013968C911397880F880F880F890F80933B
S11311D0F10012968C911297880F880F880F8093D4
S11311E0F000EFEEF0E08081806180831CC01296F5
S11311F08C91129786958695869513969C91139754
S1131200E0E29E9F800D11248093F30012968C914E
S113121012978295880F807E8093F200EFEEF0E0C3
S113122080818F7E80838FEF89839B8192959695B1
S113123097708C81880F880F880F890F8093F7002F
S11312409A819295969597708B81880F880F880F55
S1131250890F8093F60099819295969597708A816B
S1131260880F880F880F890F8093F5002981220F3A
S1131270220F220F84EF90E0FC012083EFEEF0E0D8
S1131280308116962C911697232B208321E01A96F1
S11312902C93DC012C9124602C93A0EFB0E02C91D2
S11312A024602C9320812F7D2083DC012C912160EC
S11312B02C9380818F73808380818068808380E019
S11312C028C120E08AEF90E01796ED91FC911897E1
S11312D0E20FF11D3081FC0130832F5F16963C91A3
S11312E01697231788F319829B8192959695977088
S11312F08C81880F880F880F890F8093F7009A815B
S11313009295969597708B81880F880F880F890F17
S11313108093F60099819295969597708A81880FAB
S1131320880F880F890F8093F5002981220F220FDF
S1131330220F84EF90E0FC012083EFEEF0E0308197
S113134016962C911697232B208321E01A962C9322
S1131350DC012C9124602C93A0EFB0E02C9124604C
S11313602C93208120622083DC012C912E7F2C93EE
S113137080818F73808380818068808380E0C9C08E
S11313801B968C911B978823D9F114969C911497E2
S113139092959695977015968C911597880F880F4E
S11313A0880F890F8093F30013969C91139792955D
S11313B09695977014968C911497880F880F880FC0
S11313C0890F8093F20012969C91129792959695AC
S11313D0977013968C911397880F880F880F890F35
S11313E08093F10012968C911297880F880F880FC2
S11313F08093F000EFEEF0E08081806180831CC078
S113140012968C91129786958695869513969C9143
S11314101397E0E29E9F800D11248093F3001296AF
S11314208C9112978295880F807E8093F200EFEE64
S1131430F0E080818F7E808316968C9116978823A6
S113144091F020E08AEF90E01796ED91FC911897C7
S1131450E20FF11D3081FC0130832F5F16963C9121
S11314601697231788F38FEF89839B81929596951E
S113147097708C81880F880F880F890F8093F700ED
S11314809A819295969597708B81880F880F880F13
S1131490890F8093F60099819295969597708A8129
S11314A0880F880F880F890F8093F5002981220FF8
S11314B0220F220F84EF90E0FC012083EFEEF0E096
S11314C0308116962C911697232B208321E01A96AF
S11314D02C93DC012C9124602C93A0EFB0E02C9190
S11314E024602C93208120622083DC012C912160D4
S11314F02C9380818F73808380818068808380E0D7
S113150008C019961C9280E004C08FE119968C9350
S11315108FEF0F90DF91CF910895CF93DF93EC017C
S11315208985882309F4D5C08F3109F4D4C08F3F4D
S113153009F4D3C06295607F6093ED000E94240497
S1131540803261F020F4882309F4C9C0B8C0803423
S113155009F4AAC0803A09F44EC0B1C08091F000E9
S113156082FB882780F98A878091EF0084FF2DC051
S113157081E08B87E3EFF0E0808186958695869500
S11315808D83A2EFB0E08C919081869586958695A7
S113159020E2929F800D11248C83E1EFF0E08081A2
S11315A09C9186958695869520E2929F800D1124C4
S11315B08B838091F000908186958695869520E2B4
S11315C0929F800D11248A8307C01B86E3EFF0E00D
S11315D080818091F200808180E289878F81988563
S11315E00E943A04EFEEF0E080818F7380831092C2
S11315F0EE0080E275C08091F00082FB882780F9BC
S11316008A878091EF0084FF2DC081E08B87E3EF10
S1131610F0E080818695869586958D83A2EFB0E073
S11316208C91908186958695869520E2929F800D77
S113163011248C83E1EFF0E080819C91869586955E
S1131640869520E2929F800D11248B838091F00077
S1131650908186958695869520E2929F800D11242F
S11316608A8313C01B86E3EFF0E080818295869520
S113167087708B838091F2009081990F990F990F55
S1131680829586958770890F8A8380EA89878F81FE
S113169098850E943A04EFEEF0E080818F73808396
S11316A01092EE0080EA1CC080E48987EFEEF0E03F
S11316B080818F7380831092EE0080E411C089874B
S11316C0EFEEF0E080818F7380831092EE0082E071
S11316D007C082E005C082E003C082E001C081E06F
S11316E0DF91CF91089580618093BC0182E0809363
S11316F0BB0183E18093BA01809100028093B90118
S11317001092B8011092B7011092B6016093B5011E
S113171061E185EB91E00E948700089583E1809365
S1131720BC0182E08093BB0184E08093BA01809184
S113173000028093B90161E185EB91E00E9487008A
S113174010920302089584E18093BC0181E08093A8
S1131750BB01809100028093B90160E185EB91E0C7
S11317600E9487001092A60208950F931F93CF93AF
S1131770DF9300D0CDB7DEB71091F5010091F901E8
S113178002950F701A3069F4BE016E5F7F4FCE016F
S113179001960E94451089818093B6018A818093C5
S11317A0B50100610093BC011092BB011093BA0112
S11317B0809100028093B9016AE085EB91E00E9478
S11317C087001092C8020F900F90DF91CF911F9164
S11317D00F91089583E18093BC011092BB0182E0D4
S11317E08093BA01809100028093B901809107022D
S11317F08093B5016AE085EB91E00E948700109226
S11318000D01089590919403E0919103F0E080819B
S11318102091980320612093BC0122E02093BB0116
S113182026E02093BA01209100022093B9019093FD
S1131830B8018093B50161E185EB91E00E948700D6
S113184010920D020895809104012091010190915C
S11318509803E0910201F0E0208390619093BC0131
S113186092E09093BB0198E09093BA0190910002AA
S11318709093B9018093B80181E08093B50161E14F
S113188085EB91E00E9487001092D7010895209182
S1131890DB012A3069F48091D90190E0982F8827E0
S11318A03091D801832B9093BE018093BD011EC05B
S11318B0213069F48091D90190E0982F88273091E4
S11318C0D801832B90930202809301021EC0223020
S11318D069F48091D90190E0982F88273091D8013C
S11318E0832B9093FE028093FD021EC0233069F483
S11318F08091D90190E0982F88273091D801832BCB
S11319009093A1018093A0011EC0243069F48091BA
S1131910D90190E0982F88273091D801832B909398
S1131920900380938F031EC0253069F48091D90100
S113193090E0982F88273091D801832B9093FF0152
S11319408093FE011EC0263069F48091D90190E095
S1131950982F88273091D801832B9093D4028093B9
S1131960D3021EC0213169F48091D90190E0982FEF
S113197088273091D801832B90930202809301022F
S11319801EC0293069F48091D90190E0982F8827EE
S11319903091D801832B9093A3018093A2011EC0A0
S11319A02B3069F48091D90190E0982F88273091E9
S11319B0D801832B9093E5018093E4011EC02C3061
S11319C069F48091D90190E0982F88273091D8014B
S11319D0832B9093CA018093C9011EC02D3069F4F2
S11319E08091D90190E0982F88273091D801832BDA
S11319F090939F0180939E011EC02E3069F48091C4
S1131A00D90190E0982F88272091D801822B9093B8
S1131A10E7028093E6021DC02F3069F48091D9015A
S1131A2090E0982F88272091D801822B9093D6019B
S1131A308093D5010EC0203161F48091D90190E0EA
S1131A40982F88272091D801822B9093A802809305
S1131A50A7021092C50208952091F7022A3069F472
S1131A608091F50290E0982F88273091F402832B1F
S1131A709093C0018093BF011EC0213069F480910E
S1131A80F50290E0982F88273091F402832B9093ED
S1131A90AA028093A9021EC0223069F48091F50243
S1131AA090E0982F88273091F402832B9093D401EF
S1131AB08093D3011EC0233069F48091F50290E035
S1131AC0982F88273091F402832B9093AC02809353
S1131AD0AB021EC0243069F48091F50290E0982F87
S1131AE088273091F402832B9093BC028093BB022D
S1131AF01EC0253069F48091F50290E0982F882764
S1131B003091F402832B9093FD018093FC011EC05D
S1131B10263069F48091F50290E0982F882730915F
S1131B20F402832B90930A01809309011EC0213192
S1131B3069F48091F50290E0982F88273091F4029F
S1131B40832B9093AA028093A9021EC0293069F4C2
S1131B508091F50290E0982F88273091F402832B2E
S1131B609093D6028093D5021EC02B3069F48091E5
S1131B70F50290E0982F88273091F402832B9093FC
S1131B80FB018093FA011EC02C3069F48091F502A8
S1131B9090E0982F88273091F402832B9093E502EC
S1131BA08093E4021EC02D3069F48091F50290E028
S1131BB0982F88273091F402832B90930C01809303
S1131BC00B011EC02E3069F48091F50290E0982F2D
S1131BD088272091F402822B9093060280930502B9
S1131BE01DC02F3069F48091F50290E0982F88276A
S1131BF02091F402822B9093F3028093F2020EC0A0
S1131C00203161F48091F50290E0982F882720918B
S1131C10F402822B9093E0028093DF021092CA02B6
S1131C2008958091CE018F3F29F48091CB01809358
S1131C30E80206C08E3F21F48091CB018093B40169
S1131C401092C90208958091D20282958F7090916A
S1131C50CF02292F30E060910001462F50E04F5F02
S1131C605F4F4217530794F46FEF0E94730B109267
S1131C700001109204021092E902EEE0F2E08DE914
S1131C8092E01192E817F907E1F708957091C702FD
S1131C90772351F06FEF0E94730B109200011092A2
S1131CA004021092E9020895911103C0662309F415
S1131CB047C02417350791F59093000141E0409304
S1131CC0E902F901EE0FFF1FEE0FFF1FE25FFD4F68
S1131CD02091CB0220832091CC0221832091CD023C
S1131CE022832091CE0223839332A9F4109200011F
S1131CF01092E90291E09093C702EEE0F2E0AEE0C8
S1131D00B1E02DE932E091919D93E217F307D9F701
S1131D1063E20E94730B1092040208956FEF0E9415
S1131D20730B109200011092E90210920402EEE08B
S1131D30F2E08DE992E01192E817F907E1F70895CE
S1131D4081E08093E902F901EE0FFF1FEE0FFF1F00
S1131D50E25FFD4F8091CB0280838091CC0281832E
S1131D608091CD0282838091CE028383D4CF8AE195
S1131D708093BC0182E08093BB0181E18093BA012E
S1131D80809100028093B90161E185EB91E00E94AA
S1131D90870008952F923F924F925F926F927F92A5
S1131DA08F929F92AF92BF92CF92DF92EF92FF9267
S1131DB00F931F93CF93DF931092E3011092E201EC
S1131DC00E94B70E8091E20181110DC0CAEF03C0D9
S1131DD0C15009F486C08AE090E00E947910809195
S1131DE0E2018823A9F31092E2018091E3018F3F7D
S1131DF009F477C00F2EF2E04F2EF3E05F2EF02DA2
S1131E00312CC5EBD1E00F2EF6EBAF2EF1E0BF2E57
S1131E10F02D0F2EF7EBCF2EF1E0DF2EF02D0F2E4D
S1131E20F8EBEF2EF1E0FF2EF02D0CEB11E00F2E6E
S1131E30FAE12F2EF02D0F2EFBEB8F2EF1E09F2ECB
S1131E40F02D0F2EFAEB6F2EF1E07F2EF02D08C04F
S1131E5084E0480E511C8091E3018F3F09F441C096
S1131E60F20133978081888331968081F5018083E4
S1131E70F20131978081F6018083F2018081F701BC
S1131E808083F801208282E0F40180838EE0F301F4
S1131E908083E9EBF1E0308261E1CE010E948700AA
S1131EA081E090E00E948B103394F3E23F12D0CF94
S1131EB08091E30181110CC0C4E602C0C15089F0D5
S1131EC084E690E00E9479108091E3018823B1F3C5
S1131ED0833219F01092E30104C01092E3011092CE
S1131EE0C602DF91CF911F910F91FF90EF90DF9089
S1131EF0CF90BF90AF909F908F907F906F905F90A6
S1131F004F903F902F9008958091030281110E9479
S1131F108E0B8091A60281110E94A30B8091C802AE
S1131F2081110E94B50B80910D0181110E94EA0B71
S1131F3080910D0281110E94020C8091D7018111C0
S1131F400E94230C8091C50281110E94470C80914C
S1131F50CA0281110E942C0D8091C90281110E9434
S1131F60110E8091040281110E94230E8091C602F9
S1131F7081110E94CA0E0895813011F4589A08956F
S1131F80823011F42E980895833009F4409808950E
S1131F90813011F458980895823011F42E9A0895DE
S1131FA0833009F4409A089510920000E1E6F0E0CD
S1131FB080E8808310828EEF84B981E187B918B8F4
S1131FC089E08AB981E08BB91DB81EB80E947110EE
S1131FD00E94710080E00E9452040E94E3020E9469
S1131FE03B1081E00E94BC0F0E942B1078940E9449
S1131FF041100E9488020E94880281E00E94C80F5A
S113200088EE93E00E948B1082E00E948400C0E07E
S1132010D0E0CE010E947B0081E00E94C80F8FEBCC
S11320200E9437108FE10E94391088EE93E00E94DD
S11320308B1083E00E948400CE010E947B0081E02B
S11320400E94C80F8FE10E9437108FEB0E94391055
S11320500E94840FCECF16BC8FE387BD8FEB88BD63
S113206014BC85E085BD87E080936E00089587BD2C
S1132070089588BD089585B78F7785BF83E58CBDA6
S11320800895449A0895449808950F931F93CF9305
S1132090DF938C01EB010E9443101EBC80E890E0AA
S11320A00E948B108EB5F801808380E890E00E9436
S11320B08B108EB588830E944110DF91CF911F91C0
S11320C00F9108951F920F920FB60F9211248F93C0
S11320D081E0809399038F910F900FBE0F901F9012
S11320E0189510926F00109280008AE0809381000E
S11320F00895109299031092850010928400909391
S113210089008093880082E080936F008091990316
S11321108823E1F308950F931F93CF93DF938C01EA
S1132120009751F0C0E0D0E088EE93E00E9479106F
S11321302196C017D107C1F7DF91CF911F910F915D
S11321400895EE0FFF1F0590F491E02D0994F89483
S1052150FFCFBB
S9030000FC
