S019000053756273797374656D5F50726F6772616D2E7372656305
S11300000C9449000C945B000C945B000C945B0012
S11300100C945B000C945B000C945B000C945B00F0
S11300200C945B000C945B000C945B000C945B00E0
S11300300C943B080C945B000C945B000C945B00E8
S11300400C945B000C945B000C945B000C945B00C0
S11300500C945B000C945B000C945B000C945B00B0
S11300600C945B000C945B000C945B000C945B00A0
S11300700C945B000C945B000C945B006E01D70144
S113008048029902CE023303990319049F046C01B8
S11300907B0511241FBECFEFD8E0DEBFCDBF21E02A
S11300A0A0E0B1E001C01D92A235B207E1F70E94C1
S11300B032070C944B0B0C94000082E080937C007C
S11300C082EE80937A0080EA80937B000895E8E7CB
S11300D0F0E02081DC012C93218111962C9308956A
S11300E028E131E0309328012093270110922B015D
S11300F070E0709323016093220122E02093210198
S113010028E02093260124E020934F01E8E1F1E068
S1130110DC012D91CD012193B1E0E032FB07C1F761
S113012060914F0180E291E00E942C018111F8CF8F
S113013060914F0180E291E00E9430068130C1F36A
S113014008958DE291E09093280180932701109205
S11301502B0184E190E0909323018093220185E0B8
S11301608093210188E08093260110924F016091D1
S11301704F0180E291E00E942C018111F8CF87E4C5
S113018091E0909328018093270110922B0189E13B
S113019090E0909323018093220185E080932101D4
S11301A098E09093260180934F0160914F0180E283
S11301B091E00E942C018111F8CF089580E0982FDE
S11301C09295907F9093ED00EEEEF0E01192E83F6F
S11301D0F105E1F78F5F863091F708958091EF0084
S11301E0807C61F08091EE00982F907E903241F0F7
S11301F0903441F0903A41F08F7108958FEF089553
S113020080E2089580E4089580EA089528E030911A
S1130210FA00FC013193CF012150C9F7089581E020
S11302208093D80082E08093E2008CE08093E30026
S113023087E38093E40081E008950E940F018823FE
S113024049F00E94DE008091D80082608093D8003B
S113025081E0089580E008950F931F93CF93DF9377
S11302601F92CDB7DEB78C01FC0181818C3091F4F3
S11302708185803609F0E7C4862F8295807F80933C
S1130280ED008091EF008F738093EF001092EE00E9
S11302906083D9C4862F8295807F8093ED008091FE
S11302A0EF00807C09F0D2C480E6F8018187608386
S11302B0AEEEB0E01D92A83FB105E1F7F80141812F
S11302C050E0415051094B30510508F0BCC4425C28
S11302D05F4FFA010C94310B80E0BBC3F8018385B6
S11302E0882371F184818295869587709581F8E0E1
S11302F09F9F800D11248093F300F80183818295E0
S1130300869587709481F8E09F9F800D11248093D7
S1130310F200F80182818295869587709381F8E0D6
S11303209F9F800D11248093F100F8018281880F32
S1130330880F880F8093F0008091EF00806116C0D1
S1130340F80182818695869586959381F0E29F9F38
S1130350800D11248093F300F80182818295880F27
S1130360807E8093F2008091EF008F7E8093EF0077
S113037080E0F8019681891750F4F801A781B085CF
S1130380A80FB11D9C919093FA008F5FF2CF8285E4
S1130390882321F08091F000846003C08091F000F4
S11303A08B7F8093F0008091EF00F80161C0F80129
S11303B08385882371F184818295869587709581E0
S11303C0F8E09F9F800D11248093F300F80183814E
S11303D08295869587709481F8E09F9F800D112403
S11303E08093F200F80182818295869587709381CB
S11303F0F8E09F9F800D11248093F100F801828121
S1130400880F880F880F8093F0008091EF0080613F
S113041016C0F80182818695869586959381F0E2CF
S11304209F9F800D11248093F300F80182818295AF
S1130430880F807E8093F2008091EF008F7E8093FE
S1130440EF0080E0F8019681891750F4F801A78144
S1130450B085A80FB11D9C919093FA008F5FF2CFE5
S113046012868091F0008B7F8093F0008091EF00E2
S11304709681892B8093EF008091EF008F73809396
S1130480EF008091EF0080648093EF0080E0E2C38E
S1130490F8018385882371F184818295869587701C
S11304A09581F8E09F9F800D11248093F300F8015B
S11304B083818295869587709481F8E09F9F800D53
S11304C011248093F200F8018281829586958770C9
S11304D09381F8E09F9F800D11248093F100F8012F
S11304E08281880F880F880F8093F0008091EF003D
S11304F0806116C0F80182818695869586959381E0
S1130500F0E29F9F800D11248093F300F801828113
S11305108295880F807E8093F2008091EF008F7E19
S11305208093EF0081E0F80182878091F00084607D
S11305309BCF19828B818295869587709C81F8E088
S11305409F9F800D11248093F7008A818295869560
S113055087709B8128E0929F800D11248093F60080
S113056089818295869587709A81E8E09E9F800DA7
S113057011248093F5008981880F880F880F809358
S1130580F4008091EF00F8019681892B8093EF00AD
S11305908091F4008B7F8093F400A9C28FEF89834C
S11305A08A818295880F807E815E8093F70089819D
S11305B08295880F807E8093F600F801828186956B
S11305C0869586959381F0E29F9F800D11248093F8
S11305D0F300F80182818295880F807E8093F20077
S11305E08091EF008F7E8093EF0019828B8182953A
S11305F0869587709C81F8E09F9F800D11248093DD
S1130600F7008A818295869587709B8128E0929F66
S1130610800D11248093F6008981829586958770D8
S11306209A81E8E09E9F800D11248093F5008981D2
S1130630880F880F880F8093F4008091EF00F801F1
S11306409681892B8093EF0012868091F400846058
S11306508093F4008091F0008B7F8093F000809170
S1130660EF008F7E42C28FEF89838A818295880F43
S1130670807E815E8093F70089818295880F807ED9
S11306808093F600F80182818695869586959381FC
S1130690F0E29F9F800D11248093F300F801828182
S11306A08295880F807E8093F2008091EF008F7E88
S11306B08093EF0019828B818295869587709C8147
S11306C0F8E09F9F800D11248093F7008A81829522
S11306D0869587709B8128E0929F800D11248093DA
S11306E0F60089818295869587709A81E8E09E9FBD
S11306F0800D11248093F5008981880F880F880F5D
S11307008093F4008091EF00F8019681892B809307
S1130710EF0081E082878091F40084608093F4008C
S11307208091F00084608093F0008091EF008F7DD1
S1130730DCC1F8018385882371F1848182958695D3
S113074087709581F8E09F9F800D11248093F300BA
S1130750F80183818295869587709481F8E09F9F44
S1130760800D11248093F200F80182818295869590
S113077087709381F8E09F9F800D11248093F1008E
S1130780F8018281880F880F880F8093F000809190
S1130790EF00806116C0F801828186958695869562
S11307A09381F0E29F9F800D11248093F300F80160
S11307B082818295880F807E8093F2008091EF0081
S11307C08F7E8093EF008FEF89838B81829586954E
S11307D087709C81F8E09F9F800D11248093F7001F
S11307E08A818295869587709B8128E0929F800DEF
S11307F011248093F60089818295869587709A8169
S1130800E8E09E9F800D11248093F5008981880F74
S1130810880F880F8093F4008091EF00F80196818F
S1130820892B8093EF008091F4008B7F8093F400F8
S1130830FCC1F8018385882371F1848182958695B2
S113084087709581F8E09F9F800D11248093F300B9
S1130850F80183818295869587709481F8E09F9F43
S1130860800D11248093F200F8018281829586958F
S113087087709381F8E09F9F800D11248093F1008D
S1130880F8018281880F880F880F8093F00080918F
S1130890EF00806116C0F801828186958695869561
S11308A09381F0E29F9F800D11248093F300F8015F
S11308B082818295880F807E8093F2008091EF0080
S11308C08F7E8093EF008FEF89838B81829586954D
S11308D087709C81F8E09F9F800D11248093F7001E
S11308E08A818295869587709B8128E0929F800DEE
S11308F011248093F60089818295869587709A8168
S1130900E8E09E9F800D11248093F5008981880F73
S1130910880F880F8093F4008091EF00F80196818E
S1130920892B8093EF0012868091F4008460809379
S1130930F4008091F0008B7F8093F00076C1F80181
S11309408385882371F1848182958695877095814A
S1130950F8E09F9F800D11248093F300F8018381B8
S11309608295869587709481F8E09F9F800D11246D
S11309708093F200F8018281829586958770938135
S1130980F8E09F9F800D11248093F100F80182818B
S1130990880F880F880F8093F0008091EF008061AA
S11309A016C0F80182818695869586959381F0E23A
S11309B09F9F800D11248093F300F801828182951A
S11309C0880F807E8093F2008091EF008F7E809369
S11309D0EF008FEF89838B818295869587709C8148
S11309E0F8E09F9F800D11248093F7008A818295FF
S11309F0869587709B8128E0929F800D11248093B7
S1130A00F60089818295869587709A81E8E09E9F99
S1130A10800D11248093F5008981880F880F880F39
S1130A208093F4008091EF00F8019681892B8093E4
S1130A30EF0081E082878091F40084608093F40069
S1130A408091F00084608093F0008091EF008F7DAE
S1130A50EAC0F8019681891750F4F801A781B0859E
S1130A60A80FB11D9C919093FA008F5FF2CF198269
S1130A708B818295869587709C81F8E09F9F800D7D
S1130A8011248093F7008A818295869587709B81D3
S1130A9028E0929F800D11248093F600898182952D
S1130AA0869587709A81E8E09E9F800D112480933B
S1130AB0F5008981880F880F880F8093F400809156
S1130AC0EF00F8019681892B8093EF0081E0828703
S1130AD08091F40084608093F4008091F00084603D
S1130AE08093F0008091EF0080628093EF0080910A
S1130AF0F4008E7F9DC0F8018385882371F1848181
S1130B008295869587709581F8E09F9F800D1124CA
S1130B108093F300F8018381829586958770948190
S1130B20F8E09F9F800D11248093F200F8018281E8
S1130B308295869587709381F8E09F9F800D11249C
S1130B408093F100F8018281880F880F880F8093C9
S1130B50F0008091EF00806116C0F80182818695D3
S1130B60869586959381F0E29F9F800D1124809352
S1130B70F300F80182818295880F807E8093F200D1
S1130B808091EF008F7E8093EF0080E0F8019681E2
S1130B90891750F4F801A781B085A80FB11D9C9165
S1130BA09093FA008F5FF2CF8FEF89838B818295C8
S1130BB0869587709C81F8E09F9F800D1124809317
S1130BC0F7008A818295869587709B8128E0929FA1
S1130BD0800D11248093F600898182958695877013
S1130BE09A81E8E09E9F800D11248093F50089810D
S1130BF0880F880F880F8093F4008091EF00F8012C
S1130C009681892B8093EF0081E082878091F400A4
S1130C1084608093F4008091F00084608093F000FD
S1130C208091EF0080628093EF008091F4008160F6
S1130C308093F4008091EF008F738093EF00809194
S1130C40EF00806821CCF801118620CC8FE1F801F7
S1130C5081878FEF0F90DF91CF911F910F910895AE
S1130C60CF93DF93EC018985882309F4DCC08F31AD
S1130C7009F4D9C08F3F09F4D6C06295607F6093B0
S1130C80ED000E94EE00803261F020F4882309F424
S1130C90CCC0C1C0803409F4B4C0803A09F45CC04B
S1130CA0BAC087E00E94190784E690E00E946408B5
S1130CB087E00E94190784E690E00E94640880910E
S1130CC0F00082FB882780F98A878091EF0084FFF7
S1130CD02DC081E08B878091F3008695869586955B
S1130CE08D838091F2009091F30086958695869588
S1130CF020E2929F800D11248C838091F1009091C9
S1130D00F20086958695869520E2929F800D1124A7
S1130D108B838091F0009091F1008695869586955D
S1130D2020E2929F800D11248A8307C01B86809144
S1130D30F3008091F2008091F30080E289878F8133
S1130D4098850E9406018091EF008F738093EF00D5
S1130D501092EE0080E26AC08091F00082FB882746
S1130D6080F98A878091EF0084FF29C081E08B8716
S1130D708091F3008695869586958D838091F20007
S1130D809091F30086958695869520E2929F800D3A
S1130D9011248C838091F1009091F20086958695C0
S1130DA0869520E2929F800D11248B838091F00020
S1130DB09091F10086958695869520E20FC01B865A
S1130DC08091F3008295869587708B838091F200E1
S1130DD09091F30082958695877028E0929F800D0C
S1130DE011248A8380EA89878F8198850E9406016D
S1130DF08091EF008F738093EF001092EE0080EAF1
S1130E0015C089878091EF008F738093EF00109253
S1130E10EE0080E40BC089878091EF008F7380938C
S1130E20EF001092EE0082E001C081E0DF91CF91EB
S1130E300895873029F49BB121E092279BB907C01C
S1130E40833029F488B191E0892788B9089595B150
S1130E5021E030E0082E01C0220F0A94EAF792271D
S1130E6095B90895CF93DF9300D01F92CDB7DEB725
S1130E7080E880936100109261008EEF84B981E074
S1130E8087B918B899E09AB98BB91DB81BB80E94F4
S1130E904A080E945D0080E00E941D010E94A1009A
S1130EA00E940E080E94600986E30E94C608789496
S1130EB083E00E94190784EF91E00E94640883E0B4
S1130EC00E9419078AEF90E00E946408E6E3F1E0CB
S1130ED0119281E0EE33F807D9F710922C011092A9
S1130EE03501109246010BEA80EFF82E15E50E94B9
S1130EF0340880E590E00E9452086FEF8AE00E9477
S1130F007E080E9438080E94340880E590E00E9420
S1130F1052088AE00E9479088B830E9438088B81EA
S1130F20882371F083E00E94190784E690E00E9410
S1130F30640883E00E94190784E690E00E94640834
S1130F400E94D408BE016E5F7F4FCE0101960E94BD
S1130F50AF088A81863021F586E30E94C60880E8BE
S1130F600E94C8088A3071F483E00E94190784E65D
S1130F7090E00E94640883E00E94190784E690E0F0
S1130F800E9464088AE30E94C60860E082ED0E9421
S1130F9099086FEF84ED0E94990884E30E94C608C3
S1130FA080912C01813071F4E0E1F1E0019381E062
S1130FB0E831F807D9F761E180E191E00E9470001F
S1130FC010922C0180913501813071F4E0E1F1E05F
S1130FD0F19281E0E831F807D9F760E180E191E02E
S1130FE00E9470001092350180914601813009F011
S1130FF07ECFE0E1F1E0119281E0E831F807D9F722
S113100080E191E00E946700109313016AE080E19F
S113101091E00E9470001092460169CF85B78F77E6
S113102085BF8FE58CBD08958EBD0DB407FE18C035
S113103027E030E090E0682F70E0AB01022E01C0A1
S1131040440F0A94EAF7441F4427441F022E01C0A8
S1131050440F0A94EAF7940F2150310970F702C043
S113106080E00895892F08958BB188708BB9089515
S11310708BB11BB808951F920F920FB60F921124D3
S11310808F9381E0809351018F910F900FBE0F9049
S11310901F90189510926F00109280008AE0809340
S11310A081000895109251011092850010928400DD
S11310B0909389008093880082E080936F008091F0
S11310C051018823E1F308950F931F93CF93DF9386
S11310D08C01C0E0D0E0C017D10731F088EE93E076
S11310E00E9452082196F7CFDF91CF911F910F9163
S11310F008950E94140880E00C941408CF93DF93A1
S11311001F92CDB7DEB769830E9414086981862FC8
S11311100F90DF91CF910C941408CF93C82F87E5DB
S11311200E9414088C2F0E94140880E0CF910C9424
S113113014081F93CF93DF931F92CDB7DEB7182FF8
S113114087E569830E941408812F0E94140869812D
S1131150862F0F90DF91CF911F910C9414080F9359
S11311601F93CF93DF93EC018B018DE30E9414084E
S1131170982F991F9927991F988382958770F80152
S11311808083DF91CF911F910F9108950C941408DF
S1131190CF93C82F8EEB0E9414088C2F0E94140842
S11311A080E0CF910C941408CF93DF9300D0CDB797
S11311B0DEB7BE016F5F7F4FCE0102960E94AF087B
S11311C08A81811103C08981863071F486E00E948E
S11311D0190784E690E00E94640886E00E941907DB
S11311E084E690E00E9464088981813071F487E08C
S11311F00E94190784E690E00E94640887E00E9438
S1131200190784E690E00E9464080F900F90DF9124
S1131210CF9108951F93CF93DF9300D0CDB7DEB75E
S1131220182F4A8369830E947908282F52E0698124
S113123056274A81549F800D1124482F822F652FF1
S11312400E94110B490F822F90E0652F70E0660F0A
S1131250771F0E941D0B481B642F812F0F900F9046
S1131260DF91CF911F910C947E081F93CF93DF934E
S113127000D0CDB7DEB7182F4A8369830E948D084A
S1131280282F52E0698156274A81549F800D1124EA
S1131290482F822F652F0E94110B490F822F90E057
S11312A0652F70E0660F771F0E941D0B481B642F8B
S11312B0812F0F900F90DF91CF911F910C9499087B
S11312C00E94380880E30E94C60886E30E94C6088C
S11312D08AE30E94C6088BE30E94C60860E082E1AC
S11312E00E9499086FE583E10E94990860E486E111
S11312F00E9499086EE087E10E94990863E089E101
S11313000E94990863E38BE10E94990867E18DE1EB
S11313100E94990860E58FE10E9499086EE680E2D8
S11313200E94990864E181E20E9499086CEA82E2D1
S11313300E94990864EB87E20E9499086EE082E3B8
S11313400E94990863E086E30E94990864E080E0C3
S11313500E94990860E083E00E94990860E089E0B7
S11313600E94990862E08FE00E94990866EA80E191
S11313700E94990864E081E10E94990860E08AE192
S11313800E9499086FEF8CE10E94990860E08EE159
S11313900E9499086EE680E20E94990864E183E263
S11313A00E94990860E084E20E94990860E088E263
S11313B00E94990862E089E20E94990860E08AE24A
S11313C00E94990860E08BE20E94990860E18CE237
S11313D00E94990860E08DE20E94990860E08EE224
S11313E00E94990861E08FE20E94990861E080E31D
S11313F00E94990861E081E30E94990860EA83E30E
S11314000E94990863E084E30E94990860E088E3FD
S11314100E94990860E089E30E94990860E088E6E8
S11314200E94990860E08BE70E9499086FE38CE7BB
S11314300E94990860E086E90E94990860E087E9C3
S11314400E94990860E088E90E94990860E089E9AF
S11314500E94990860E08AE90E9499086BE08BE990
S11314600E94990860E48CE90E94990860E08DE983
S11314700E94990860E08EE90E9499086CE38FE964
S11314800E94990860E080EA0E9499086BE088E075
S11314900E947E086DE083E10E947E0864E086E29B
S11314A00E947E0860E088E20E947E086FE78BE27B
S11314B00E947E0860E085E00E94990860E084E173
S11314C00E94990860E086E20E94990864E085E33E
S11314D00E94990861ED8AE70E94990861E08DE80D
S11314E00E9499086BE088E00E947E086CE18CE021
S11314F00E947E0860E080E10E947E0864E081E151
S11315000E947E0865E083E10E947E0869EA8CE11E
S11315100E947E086FEC8DE10E947E0860E08EE1FF
S11315200E947E0863E080E20E947E0860E08EE212
S11315300E947E0860E080E00E94990868E48AE0E6
S11315400E947E0865E08BE00E947E0864E081E2F0
S11315500E947E0860E08DE00E947E0840E065E025
S11315608EE00E940A0940E067E082E00E943509AB
S113157040E066E082E00E94350940E066E088E0F1
S11315800E940A0967E189E00E947E0863E984E019
S11315900E947E086BE085E00E947E0861E586E09B
S11315A00E947E086EED87E00E947E0841E066E0BE
S11315B082E10E940A0940E066E083E10E940A0990
S11315C060E086E20E947E0860E088E20E947E0875
S11315D06FEF8EE20E947E086FE78BE20E947E0826
S11315E060E08AE00E94990860E08BE00E9499081C
S11315F06CE68CE00E94990860E88DE00E949908EE
S113160060E08EE00E94990861E180E00E947E081B
S113161083E30E94C60887E30E94C60884E30C940F
S1131620C608991B79E004C0991F961708F0961B09
S1131630881F7A95C9F78095089597FB072E16F4AD
S1131640009407D077FD09D00E94370B07FC05D022
S11316503EF4909581959F4F0895709561957F4FC5
S11316600895EE0FFF1F0590F491E02D0994AA1B35
S1131670BB1B51E107C0AA1FBB1FA617B70710F079
S1131680A61BB70B881F991F5A95A9F780959095AB
S10D1690BC01CD010895F894FFCFCA
S9030000FC
